{
	"contracts/arrays.sol": {
		"Array": {
			"abi": [
				{
					"inputs": [
						{
							"internalType": "uint256",
							"name": "",
							"type": "uint256"
						}
					],
					"name": "arr",
					"outputs": [
						{
							"internalType": "uint256",
							"name": "",
							"type": "uint256"
						}
					],
					"stateMutability": "view",
					"type": "function"
				},
				{
					"inputs": [],
					"name": "examples",
					"outputs": [],
					"stateMutability": "nonpayable",
					"type": "function"
				},
				{
					"inputs": [
						{
							"internalType": "uint256",
							"name": "i",
							"type": "uint256"
						}
					],
					"name": "get",
					"outputs": [
						{
							"internalType": "uint256",
							"name": "",
							"type": "uint256"
						}
					],
					"stateMutability": "view",
					"type": "function"
				},
				{
					"inputs": [],
					"name": "getArr",
					"outputs": [
						{
							"internalType": "uint256[]",
							"name": "",
							"type": "uint256[]"
						}
					],
					"stateMutability": "view",
					"type": "function"
				},
				{
					"inputs": [],
					"name": "getLen",
					"outputs": [
						{
							"internalType": "uint256",
							"name": "",
							"type": "uint256"
						}
					],
					"stateMutability": "view",
					"type": "function"
				},
				{
					"inputs": [],
					"name": "pop",
					"outputs": [],
					"stateMutability": "nonpayable",
					"type": "function"
				},
				{
					"inputs": [
						{
							"internalType": "uint256",
							"name": "i",
							"type": "uint256"
						}
					],
					"name": "push",
					"outputs": [],
					"stateMutability": "nonpayable",
					"type": "function"
				},
				{
					"inputs": [
						{
							"internalType": "uint256",
							"name": "index",
							"type": "uint256"
						}
					],
					"name": "remove",
					"outputs": [],
					"stateMutability": "nonpayable",
					"type": "function"
				}
			],
			"devdoc": {
				"kind": "dev",
				"methods": {},
				"version": 1
			},
			"evm": {
				"assembly": "    /* \"contracts/arrays.sol\":125:1093  contract Array{... */\n  mstore(0x40, 0x80)\n  callvalue\n  dup1\n  iszero\n  tag_1\n  jumpi\n  0x00\n  dup1\n  revert\ntag_1:\n  pop\n  dataSize(sub_0)\n  dup1\n  dataOffset(sub_0)\n  0x00\n  codecopy\n  0x00\n  return\nstop\n\nsub_0: assembly {\n        /* \"contracts/arrays.sol\":125:1093  contract Array{... */\n      mstore(0x40, 0x80)\n      callvalue\n      dup1\n      iszero\n      tag_1\n      jumpi\n      0x00\n      dup1\n      revert\n    tag_1:\n      pop\n      jumpi(tag_2, lt(calldatasize, 0x04))\n      shr(0xe0, calldataload(0x00))\n      dup1\n      0x9507d39a\n      gt\n      tag_11\n      jumpi\n      dup1\n      0x9507d39a\n      eq\n      tag_7\n      jumpi\n      dup1\n      0x959ac484\n      eq\n      tag_8\n      jumpi\n      dup1\n      0xa4ece52c\n      eq\n      tag_9\n      jumpi\n      dup1\n      0xfb8cbced\n      eq\n      tag_10\n      jumpi\n      jump(tag_2)\n    tag_11:\n      dup1\n      0x335d00c2\n      eq\n      tag_3\n      jumpi\n      dup1\n      0x4a90be57\n      eq\n      tag_4\n      jumpi\n      dup1\n      0x4cc82215\n      eq\n      tag_5\n      jumpi\n      dup1\n      0x71e5ee5f\n      eq\n      tag_6\n      jumpi\n    tag_2:\n      0x00\n      dup1\n      revert\n        /* \"contracts/arrays.sol\":1010:1088  function examples() external{... */\n    tag_3:\n      tag_12\n      tag_13\n      jump\t// in\n    tag_12:\n      stop\n        /* \"contracts/arrays.sol\":748:828  function getLen() public view returns (uint){... */\n    tag_4:\n      tag_14\n      tag_15\n      jump\t// in\n    tag_14:\n      mload(0x40)\n      tag_16\n      swap2\n      swap1\n      tag_17\n      jump\t// in\n    tag_16:\n      mload(0x40)\n      dup1\n      swap2\n      sub\n      swap1\n      return\n        /* \"contracts/arrays.sol\":881:952  function remove(uint index) public {... */\n    tag_5:\n      tag_18\n      0x04\n      dup1\n      calldatasize\n      sub\n      dup2\n      add\n      swap1\n      tag_19\n      swap2\n      swap1\n      tag_20\n      jump\t// in\n    tag_19:\n      tag_21\n      jump\t// in\n    tag_18:\n      stop\n        /* \"contracts/arrays.sol\":178:195  uint[] public arr */\n    tag_6:\n      tag_22\n      0x04\n      dup1\n      calldatasize\n      sub\n      dup2\n      add\n      swap1\n      tag_23\n      swap2\n      swap1\n      tag_20\n      jump\t// in\n    tag_23:\n      tag_24\n      jump\t// in\n    tag_22:\n      mload(0x40)\n      tag_25\n      swap2\n      swap1\n      tag_17\n      jump\t// in\n    tag_25:\n      mload(0x40)\n      dup1\n      swap2\n      sub\n      swap1\n      return\n        /* \"contracts/arrays.sol\":321:399  function get(uint i) public view returns(uint){... */\n    tag_7:\n      tag_26\n      0x04\n      dup1\n      calldatasize\n      sub\n      dup2\n      add\n      swap1\n      tag_27\n      swap2\n      swap1\n      tag_20\n      jump\t// in\n    tag_27:\n      tag_28\n      jump\t// in\n    tag_26:\n      mload(0x40)\n      tag_29\n      swap2\n      swap1\n      tag_17\n      jump\t// in\n    tag_29:\n      mload(0x40)\n      dup1\n      swap2\n      sub\n      swap1\n      return\n        /* \"contracts/arrays.sol\":579:639  function push (uint i) public {... */\n    tag_8:\n      tag_30\n      0x04\n      dup1\n      calldatasize\n      sub\n      dup2\n      add\n      swap1\n      tag_31\n      swap2\n      swap1\n      tag_20\n      jump\t// in\n    tag_31:\n      tag_32\n      jump\t// in\n    tag_30:\n      stop\n        /* \"contracts/arrays.sol\":691:740  function pop() public{... */\n    tag_9:\n      tag_33\n      tag_34\n      jump\t// in\n    tag_33:\n      stop\n        /* \"contracts/arrays.sol\":447:530  function getArr() public view returns (uint[] memory){... */\n    tag_10:\n      tag_35\n      tag_36\n      jump\t// in\n    tag_35:\n      mload(0x40)\n      tag_37\n      swap2\n      swap1\n      tag_38\n      jump\t// in\n    tag_37:\n      mload(0x40)\n      dup1\n      swap2\n      sub\n      swap1\n      return\n        /* \"contracts/arrays.sol\":1010:1088  function examples() external{... */\n    tag_13:\n        /* \"contracts/arrays.sol\":1049:1064  uint[] memory a */\n      0x00\n        /* \"contracts/arrays.sol\":1078:1079  5 */\n      0x05\n        /* \"contracts/arrays.sol\":1067:1080  new uint[](5) */\n      0xffffffffffffffff\n      dup2\n      gt\n      iszero\n      tag_40\n      jumpi\n      tag_41\n      tag_42\n      jump\t// in\n    tag_41:\n    tag_40:\n      mload(0x40)\n      swap1\n      dup1\n      dup3\n      mstore\n      dup1\n      0x20\n      mul\n      0x20\n      add\n      dup3\n      add\n      0x40\n      mstore\n      dup1\n      iszero\n      tag_43\n      jumpi\n      dup2\n      0x20\n      add\n      0x20\n      dup3\n      mul\n      dup1\n      calldatasize\n      dup4\n      calldatacopy\n      dup1\n      dup3\n      add\n      swap2\n      pop\n      pop\n      swap1\n      pop\n    tag_43:\n      pop\n        /* \"contracts/arrays.sol\":1049:1080  uint[] memory a = new uint[](5) */\n      swap1\n      pop\n        /* \"contracts/arrays.sol\":1038:1088  {... */\n      pop\n        /* \"contracts/arrays.sol\":1010:1088  function examples() external{... */\n      jump\t// out\n        /* \"contracts/arrays.sol\":748:828  function getLen() public view returns (uint){... */\n    tag_15:\n        /* \"contracts/arrays.sol\":787:791  uint */\n      0x00\n        /* \"contracts/arrays.sol\":810:813  arr */\n      dup1\n        /* \"contracts/arrays.sol\":810:820  arr.length */\n      dup1\n      sload\n      swap1\n      pop\n        /* \"contracts/arrays.sol\":803:820  return arr.length */\n      swap1\n      pop\n        /* \"contracts/arrays.sol\":748:828  function getLen() public view returns (uint){... */\n      swap1\n      jump\t// out\n        /* \"contracts/arrays.sol\":881:952  function remove(uint index) public {... */\n    tag_21:\n        /* \"contracts/arrays.sol\":934:937  arr */\n      0x00\n        /* \"contracts/arrays.sol\":938:943  index */\n      dup2\n        /* \"contracts/arrays.sol\":934:944  arr[index] */\n      dup2\n      sload\n      dup2\n      lt\n      tag_46\n      jumpi\n      tag_47\n      tag_48\n      jump\t// in\n    tag_47:\n    tag_46:\n      swap1\n      0x00\n      mstore\n      keccak256(0x00, 0x20)\n      add\n        /* \"contracts/arrays.sol\":927:944  delete arr[index] */\n      0x00\n      swap1\n      sstore\n        /* \"contracts/arrays.sol\":881:952  function remove(uint index) public {... */\n      pop\n      jump\t// out\n        /* \"contracts/arrays.sol\":178:195  uint[] public arr */\n    tag_24:\n      0x00\n      dup2\n      dup2\n      sload\n      dup2\n      lt\n      tag_50\n      jumpi\n      0x00\n      dup1\n      revert\n    tag_50:\n      swap1\n      0x00\n      mstore\n      keccak256(0x00, 0x20)\n      add\n      0x00\n      swap2\n      pop\n      swap1\n      pop\n      sload\n      dup2\n      jump\t// out\n        /* \"contracts/arrays.sol\":321:399  function get(uint i) public view returns(uint){... */\n    tag_28:\n        /* \"contracts/arrays.sol\":362:366  uint */\n      0x00\n        /* \"contracts/arrays.sol\":385:388  arr */\n      dup1\n        /* \"contracts/arrays.sol\":389:390  i */\n      dup3\n        /* \"contracts/arrays.sol\":385:391  arr[i] */\n      dup2\n      sload\n      dup2\n      lt\n      tag_53\n      jumpi\n      tag_54\n      tag_48\n      jump\t// in\n    tag_54:\n    tag_53:\n      swap1\n      0x00\n      mstore\n      keccak256(0x00, 0x20)\n      add\n      sload\n        /* \"contracts/arrays.sol\":378:391  return arr[i] */\n      swap1\n      pop\n        /* \"contracts/arrays.sol\":321:399  function get(uint i) public view returns(uint){... */\n      swap2\n      swap1\n      pop\n      jump\t// out\n        /* \"contracts/arrays.sol\":579:639  function push (uint i) public {... */\n    tag_32:\n        /* \"contracts/arrays.sol\":620:623  arr */\n      0x00\n        /* \"contracts/arrays.sol\":629:630  i */\n      dup2\n        /* \"contracts/arrays.sol\":620:631  arr.push(i) */\n      swap1\n      dup1\n      0x01\n      dup2\n      sload\n      add\n      dup1\n      dup3\n      sstore\n      dup1\n      swap2\n      pop\n      pop\n      0x01\n      swap1\n      sub\n      swap1\n      0x00\n      mstore\n      keccak256(0x00, 0x20)\n      add\n      0x00\n      swap1\n      swap2\n      swap1\n      swap2\n      swap1\n      swap2\n      pop\n      sstore\n        /* \"contracts/arrays.sol\":579:639  function push (uint i) public {... */\n      pop\n      jump\t// out\n        /* \"contracts/arrays.sol\":691:740  function pop() public{... */\n    tag_34:\n        /* \"contracts/arrays.sol\":723:726  arr */\n      0x00\n        /* \"contracts/arrays.sol\":723:732  arr.pop() */\n      dup1\n      sload\n      dup1\n      tag_59\n      jumpi\n      tag_60\n      tag_61\n      jump\t// in\n    tag_60:\n    tag_59:\n      0x01\n      swap1\n      sub\n      dup2\n      dup2\n      swap1\n      0x00\n      mstore\n      keccak256(0x00, 0x20)\n      add\n      0x00\n      swap1\n      sstore\n      swap1\n      sstore\n        /* \"contracts/arrays.sol\":691:740  function pop() public{... */\n      jump\t// out\n        /* \"contracts/arrays.sol\":447:530  function getArr() public view returns (uint[] memory){... */\n    tag_36:\n        /* \"contracts/arrays.sol\":486:499  uint[] memory */\n      0x60\n        /* \"contracts/arrays.sol\":518:521  arr */\n      0x00\n        /* \"contracts/arrays.sol\":511:521  return arr */\n      dup1\n      sload\n      dup1\n      0x20\n      mul\n      0x20\n      add\n      mload(0x40)\n      swap1\n      dup2\n      add\n      0x40\n      mstore\n      dup1\n      swap3\n      swap2\n      swap1\n      dup2\n      dup2\n      mstore\n      0x20\n      add\n      dup3\n      dup1\n      sload\n      dup1\n      iszero\n      tag_64\n      jumpi\n      0x20\n      mul\n      dup3\n      add\n      swap2\n      swap1\n      0x00\n      mstore\n      keccak256(0x00, 0x20)\n      swap1\n    tag_65:\n      dup2\n      sload\n      dup2\n      mstore\n      0x20\n      add\n      swap1\n      0x01\n      add\n      swap1\n      dup1\n      dup4\n      gt\n      tag_65\n      jumpi\n    tag_64:\n      pop\n      pop\n      pop\n      pop\n      pop\n      swap1\n      pop\n        /* \"contracts/arrays.sol\":447:530  function getArr() public view returns (uint[] memory){... */\n      swap1\n      jump\t// out\n        /* \"#utility.yul\":7:84   */\n    tag_66:\n        /* \"#utility.yul\":44:51   */\n      0x00\n        /* \"#utility.yul\":73:78   */\n      dup2\n        /* \"#utility.yul\":62:78   */\n      swap1\n      pop\n        /* \"#utility.yul\":7:84   */\n      swap2\n      swap1\n      pop\n      jump\t// out\n        /* \"#utility.yul\":90:208   */\n    tag_67:\n        /* \"#utility.yul\":177:201   */\n      tag_83\n        /* \"#utility.yul\":195:200   */\n      dup2\n        /* \"#utility.yul\":177:201   */\n      tag_66\n      jump\t// in\n    tag_83:\n        /* \"#utility.yul\":172:175   */\n      dup3\n        /* \"#utility.yul\":165:202   */\n      mstore\n        /* \"#utility.yul\":90:208   */\n      pop\n      pop\n      jump\t// out\n        /* \"#utility.yul\":214:436   */\n    tag_17:\n        /* \"#utility.yul\":307:311   */\n      0x00\n        /* \"#utility.yul\":345:347   */\n      0x20\n        /* \"#utility.yul\":334:343   */\n      dup3\n        /* \"#utility.yul\":330:348   */\n      add\n        /* \"#utility.yul\":322:348   */\n      swap1\n      pop\n        /* \"#utility.yul\":358:429   */\n      tag_85\n        /* \"#utility.yul\":426:427   */\n      0x00\n        /* \"#utility.yul\":415:424   */\n      dup4\n        /* \"#utility.yul\":411:428   */\n      add\n        /* \"#utility.yul\":402:408   */\n      dup5\n        /* \"#utility.yul\":358:429   */\n      tag_67\n      jump\t// in\n    tag_85:\n        /* \"#utility.yul\":214:436   */\n      swap3\n      swap2\n      pop\n      pop\n      jump\t// out\n        /* \"#utility.yul\":523:640   */\n    tag_69:\n        /* \"#utility.yul\":632:633   */\n      0x00\n        /* \"#utility.yul\":629:630   */\n      dup1\n        /* \"#utility.yul\":622:634   */\n      revert\n        /* \"#utility.yul\":769:891   */\n    tag_71:\n        /* \"#utility.yul\":842:866   */\n      tag_90\n        /* \"#utility.yul\":860:865   */\n      dup2\n        /* \"#utility.yul\":842:866   */\n      tag_66\n      jump\t// in\n    tag_90:\n        /* \"#utility.yul\":835:840   */\n      dup2\n        /* \"#utility.yul\":832:867   */\n      eq\n        /* \"#utility.yul\":822:885   */\n      tag_91\n      jumpi\n        /* \"#utility.yul\":881:882   */\n      0x00\n        /* \"#utility.yul\":878:879   */\n      dup1\n        /* \"#utility.yul\":871:883   */\n      revert\n        /* \"#utility.yul\":822:885   */\n    tag_91:\n        /* \"#utility.yul\":769:891   */\n      pop\n      jump\t// out\n        /* \"#utility.yul\":897:1036   */\n    tag_72:\n        /* \"#utility.yul\":943:948   */\n      0x00\n        /* \"#utility.yul\":981:987   */\n      dup2\n        /* \"#utility.yul\":968:988   */\n      calldataload\n        /* \"#utility.yul\":959:988   */\n      swap1\n      pop\n        /* \"#utility.yul\":997:1030   */\n      tag_93\n        /* \"#utility.yul\":1024:1029   */\n      dup2\n        /* \"#utility.yul\":997:1030   */\n      tag_71\n      jump\t// in\n    tag_93:\n        /* \"#utility.yul\":897:1036   */\n      swap3\n      swap2\n      pop\n      pop\n      jump\t// out\n        /* \"#utility.yul\":1042:1371   */\n    tag_20:\n        /* \"#utility.yul\":1101:1107   */\n      0x00\n        /* \"#utility.yul\":1150:1152   */\n      0x20\n        /* \"#utility.yul\":1138:1147   */\n      dup3\n        /* \"#utility.yul\":1129:1136   */\n      dup5\n        /* \"#utility.yul\":1125:1148   */\n      sub\n        /* \"#utility.yul\":1121:1153   */\n      slt\n        /* \"#utility.yul\":1118:1237   */\n      iszero\n      tag_95\n      jumpi\n        /* \"#utility.yul\":1156:1235   */\n      tag_96\n      tag_69\n      jump\t// in\n    tag_96:\n        /* \"#utility.yul\":1118:1237   */\n    tag_95:\n        /* \"#utility.yul\":1276:1277   */\n      0x00\n        /* \"#utility.yul\":1301:1354   */\n      tag_97\n        /* \"#utility.yul\":1346:1353   */\n      dup5\n        /* \"#utility.yul\":1337:1343   */\n      dup3\n        /* \"#utility.yul\":1326:1335   */\n      dup6\n        /* \"#utility.yul\":1322:1344   */\n      add\n        /* \"#utility.yul\":1301:1354   */\n      tag_72\n      jump\t// in\n    tag_97:\n        /* \"#utility.yul\":1291:1354   */\n      swap2\n      pop\n        /* \"#utility.yul\":1247:1364   */\n      pop\n        /* \"#utility.yul\":1042:1371   */\n      swap3\n      swap2\n      pop\n      pop\n      jump\t// out\n        /* \"#utility.yul\":1377:1491   */\n    tag_73:\n        /* \"#utility.yul\":1444:1450   */\n      0x00\n        /* \"#utility.yul\":1478:1483   */\n      dup2\n        /* \"#utility.yul\":1472:1484   */\n      mload\n        /* \"#utility.yul\":1462:1484   */\n      swap1\n      pop\n        /* \"#utility.yul\":1377:1491   */\n      swap2\n      swap1\n      pop\n      jump\t// out\n        /* \"#utility.yul\":1497:1681   */\n    tag_74:\n        /* \"#utility.yul\":1596:1607   */\n      0x00\n        /* \"#utility.yul\":1630:1636   */\n      dup3\n        /* \"#utility.yul\":1625:1628   */\n      dup3\n        /* \"#utility.yul\":1618:1637   */\n      mstore\n        /* \"#utility.yul\":1670:1674   */\n      0x20\n        /* \"#utility.yul\":1665:1668   */\n      dup3\n        /* \"#utility.yul\":1661:1675   */\n      add\n        /* \"#utility.yul\":1646:1675   */\n      swap1\n      pop\n        /* \"#utility.yul\":1497:1681   */\n      swap3\n      swap2\n      pop\n      pop\n      jump\t// out\n        /* \"#utility.yul\":1687:1819   */\n    tag_75:\n        /* \"#utility.yul\":1754:1758   */\n      0x00\n        /* \"#utility.yul\":1777:1780   */\n      dup2\n        /* \"#utility.yul\":1769:1780   */\n      swap1\n      pop\n        /* \"#utility.yul\":1807:1811   */\n      0x20\n        /* \"#utility.yul\":1802:1805   */\n      dup3\n        /* \"#utility.yul\":1798:1812   */\n      add\n        /* \"#utility.yul\":1790:1812   */\n      swap1\n      pop\n        /* \"#utility.yul\":1687:1819   */\n      swap2\n      swap1\n      pop\n      jump\t// out\n        /* \"#utility.yul\":1825:1933   */\n    tag_76:\n        /* \"#utility.yul\":1902:1926   */\n      tag_102\n        /* \"#utility.yul\":1920:1925   */\n      dup2\n        /* \"#utility.yul\":1902:1926   */\n      tag_66\n      jump\t// in\n    tag_102:\n        /* \"#utility.yul\":1897:1900   */\n      dup3\n        /* \"#utility.yul\":1890:1927   */\n      mstore\n        /* \"#utility.yul\":1825:1933   */\n      pop\n      pop\n      jump\t// out\n        /* \"#utility.yul\":1939:2118   */\n    tag_77:\n        /* \"#utility.yul\":2008:2018   */\n      0x00\n        /* \"#utility.yul\":2029:2075   */\n      tag_104\n        /* \"#utility.yul\":2071:2074   */\n      dup4\n        /* \"#utility.yul\":2063:2069   */\n      dup4\n        /* \"#utility.yul\":2029:2075   */\n      tag_76\n      jump\t// in\n    tag_104:\n        /* \"#utility.yul\":2107:2111   */\n      0x20\n        /* \"#utility.yul\":2102:2105   */\n      dup4\n        /* \"#utility.yul\":2098:2112   */\n      add\n        /* \"#utility.yul\":2084:2112   */\n      swap1\n      pop\n        /* \"#utility.yul\":1939:2118   */\n      swap3\n      swap2\n      pop\n      pop\n      jump\t// out\n        /* \"#utility.yul\":2124:2237   */\n    tag_78:\n        /* \"#utility.yul\":2194:2198   */\n      0x00\n        /* \"#utility.yul\":2226:2230   */\n      0x20\n        /* \"#utility.yul\":2221:2224   */\n      dup3\n        /* \"#utility.yul\":2217:2231   */\n      add\n        /* \"#utility.yul\":2209:2231   */\n      swap1\n      pop\n        /* \"#utility.yul\":2124:2237   */\n      swap2\n      swap1\n      pop\n      jump\t// out\n        /* \"#utility.yul\":2273:3005   */\n    tag_79:\n        /* \"#utility.yul\":2392:2395   */\n      0x00\n        /* \"#utility.yul\":2421:2475   */\n      tag_107\n        /* \"#utility.yul\":2469:2474   */\n      dup3\n        /* \"#utility.yul\":2421:2475   */\n      tag_73\n      jump\t// in\n    tag_107:\n        /* \"#utility.yul\":2491:2577   */\n      tag_108\n        /* \"#utility.yul\":2570:2576   */\n      dup2\n        /* \"#utility.yul\":2565:2568   */\n      dup6\n        /* \"#utility.yul\":2491:2577   */\n      tag_74\n      jump\t// in\n    tag_108:\n        /* \"#utility.yul\":2484:2577   */\n      swap4\n      pop\n        /* \"#utility.yul\":2601:2657   */\n      tag_109\n        /* \"#utility.yul\":2651:2656   */\n      dup4\n        /* \"#utility.yul\":2601:2657   */\n      tag_75\n      jump\t// in\n    tag_109:\n        /* \"#utility.yul\":2680:2687   */\n      dup1\n        /* \"#utility.yul\":2711:2712   */\n      0x00\n        /* \"#utility.yul\":2696:2980   */\n    tag_110:\n        /* \"#utility.yul\":2721:2727   */\n      dup4\n        /* \"#utility.yul\":2718:2719   */\n      dup2\n        /* \"#utility.yul\":2715:2728   */\n      lt\n        /* \"#utility.yul\":2696:2980   */\n      iszero\n      tag_112\n      jumpi\n        /* \"#utility.yul\":2797:2803   */\n      dup2\n        /* \"#utility.yul\":2791:2804   */\n      mload\n        /* \"#utility.yul\":2824:2887   */\n      tag_113\n        /* \"#utility.yul\":2883:2886   */\n      dup9\n        /* \"#utility.yul\":2868:2881   */\n      dup3\n        /* \"#utility.yul\":2824:2887   */\n      tag_77\n      jump\t// in\n    tag_113:\n        /* \"#utility.yul\":2817:2887   */\n      swap8\n      pop\n        /* \"#utility.yul\":2910:2970   */\n      tag_114\n        /* \"#utility.yul\":2963:2969   */\n      dup4\n        /* \"#utility.yul\":2910:2970   */\n      tag_78\n      jump\t// in\n    tag_114:\n        /* \"#utility.yul\":2900:2970   */\n      swap3\n      pop\n        /* \"#utility.yul\":2756:2980   */\n      pop\n        /* \"#utility.yul\":2743:2744   */\n      0x01\n        /* \"#utility.yul\":2740:2741   */\n      dup2\n        /* \"#utility.yul\":2736:2745   */\n      add\n        /* \"#utility.yul\":2731:2745   */\n      swap1\n      pop\n        /* \"#utility.yul\":2696:2980   */\n      jump(tag_110)\n    tag_112:\n        /* \"#utility.yul\":2700:2714   */\n      pop\n        /* \"#utility.yul\":2996:2999   */\n      dup6\n        /* \"#utility.yul\":2989:2999   */\n      swap4\n      pop\n        /* \"#utility.yul\":2397:3005   */\n      pop\n      pop\n      pop\n        /* \"#utility.yul\":2273:3005   */\n      swap3\n      swap2\n      pop\n      pop\n      jump\t// out\n        /* \"#utility.yul\":3011:3384   */\n    tag_38:\n        /* \"#utility.yul\":3154:3158   */\n      0x00\n        /* \"#utility.yul\":3192:3194   */\n      0x20\n        /* \"#utility.yul\":3181:3190   */\n      dup3\n        /* \"#utility.yul\":3177:3195   */\n      add\n        /* \"#utility.yul\":3169:3195   */\n      swap1\n      pop\n        /* \"#utility.yul\":3241:3250   */\n      dup2\n        /* \"#utility.yul\":3235:3239   */\n      dup2\n        /* \"#utility.yul\":3231:3251   */\n      sub\n        /* \"#utility.yul\":3227:3228   */\n      0x00\n        /* \"#utility.yul\":3216:3225   */\n      dup4\n        /* \"#utility.yul\":3212:3229   */\n      add\n        /* \"#utility.yul\":3205:3252   */\n      mstore\n        /* \"#utility.yul\":3269:3377   */\n      tag_116\n        /* \"#utility.yul\":3372:3376   */\n      dup2\n        /* \"#utility.yul\":3363:3369   */\n      dup5\n        /* \"#utility.yul\":3269:3377   */\n      tag_79\n      jump\t// in\n    tag_116:\n        /* \"#utility.yul\":3261:3377   */\n      swap1\n      pop\n        /* \"#utility.yul\":3011:3384   */\n      swap3\n      swap2\n      pop\n      pop\n      jump\t// out\n        /* \"#utility.yul\":3390:3570   */\n    tag_42:\n        /* \"#utility.yul\":3438:3515   */\n      0x4e487b7100000000000000000000000000000000000000000000000000000000\n        /* \"#utility.yul\":3435:3436   */\n      0x00\n        /* \"#utility.yul\":3428:3516   */\n      mstore\n        /* \"#utility.yul\":3535:3539   */\n      0x41\n        /* \"#utility.yul\":3532:3533   */\n      0x04\n        /* \"#utility.yul\":3525:3540   */\n      mstore\n        /* \"#utility.yul\":3559:3563   */\n      0x24\n        /* \"#utility.yul\":3556:3557   */\n      0x00\n        /* \"#utility.yul\":3549:3564   */\n      revert\n        /* \"#utility.yul\":3576:3756   */\n    tag_48:\n        /* \"#utility.yul\":3624:3701   */\n      0x4e487b7100000000000000000000000000000000000000000000000000000000\n        /* \"#utility.yul\":3621:3622   */\n      0x00\n        /* \"#utility.yul\":3614:3702   */\n      mstore\n        /* \"#utility.yul\":3721:3725   */\n      0x32\n        /* \"#utility.yul\":3718:3719   */\n      0x04\n        /* \"#utility.yul\":3711:3726   */\n      mstore\n        /* \"#utility.yul\":3745:3749   */\n      0x24\n        /* \"#utility.yul\":3742:3743   */\n      0x00\n        /* \"#utility.yul\":3735:3750   */\n      revert\n        /* \"#utility.yul\":3762:3942   */\n    tag_61:\n        /* \"#utility.yul\":3810:3887   */\n      0x4e487b7100000000000000000000000000000000000000000000000000000000\n        /* \"#utility.yul\":3807:3808   */\n      0x00\n        /* \"#utility.yul\":3800:3888   */\n      mstore\n        /* \"#utility.yul\":3907:3911   */\n      0x31\n        /* \"#utility.yul\":3904:3905   */\n      0x04\n        /* \"#utility.yul\":3897:3912   */\n      mstore\n        /* \"#utility.yul\":3931:3935   */\n      0x24\n        /* \"#utility.yul\":3928:3929   */\n      0x00\n        /* \"#utility.yul\":3921:3936   */\n      revert\n\n    auxdata: 0xa26469706673582212206cbd308f38b1b62fb955374307446657a3628eea9a42a3537988d294494af2ec64736f6c63430008120033\n}\n",
				"bytecode": {
					"linkReferences": {},
					"object": "608060405234801561001057600080fd5b50610525806100206000396000f3fe608060405234801561001057600080fd5b50600436106100885760003560e01c80639507d39a1161005b5780639507d39a14610101578063959ac48414610131578063a4ece52c1461014d578063fb8cbced1461015757610088565b8063335d00c21461008d5780634a90be57146100975780634cc82215146100b557806371e5ee5f146100d1575b600080fd5b610095610175565b005b61009f6101c6565b6040516100ac9190610309565b60405180910390f35b6100cf60048036038101906100ca9190610355565b6101d2565b005b6100eb60048036038101906100e69190610355565b6101f7565b6040516100f89190610309565b60405180910390f35b61011b60048036038101906101169190610355565b61021b565b6040516101289190610309565b60405180910390f35b61014b60048036038101906101469190610355565b610242565b005b61015561026e565b005b61015f610298565b60405161016c9190610440565b60405180910390f35b6000600567ffffffffffffffff81111561019257610191610462565b5b6040519080825280602002602001820160405280156101c05781602001602082028036833780820191505090505b50905050565b60008080549050905090565b600081815481106101e6576101e5610491565b5b906000526020600020016000905550565b6000818154811061020757600080fd5b906000526020600020016000915090505481565b60008082815481106102305761022f610491565b5b90600052602060002001549050919050565b600081908060018154018082558091505060019003906000526020600020016000909190919091505550565b60008054806102805761027f6104c0565b5b60019003818190600052602060002001600090559055565b606060008054806020026020016040519081016040528092919081815260200182805480156102e657602002820191906000526020600020905b8154815260200190600101908083116102d2575b5050505050905090565b6000819050919050565b610303816102f0565b82525050565b600060208201905061031e60008301846102fa565b92915050565b600080fd5b610332816102f0565b811461033d57600080fd5b50565b60008135905061034f81610329565b92915050565b60006020828403121561036b5761036a610324565b5b600061037984828501610340565b91505092915050565b600081519050919050565b600082825260208201905092915050565b6000819050602082019050919050565b6103b7816102f0565b82525050565b60006103c983836103ae565b60208301905092915050565b6000602082019050919050565b60006103ed82610382565b6103f7818561038d565b93506104028361039e565b8060005b8381101561043357815161041a88826103bd565b9750610425836103d5565b925050600181019050610406565b5085935050505092915050565b6000602082019050818103600083015261045a81846103e2565b905092915050565b7f4e487b7100000000000000000000000000000000000000000000000000000000600052604160045260246000fd5b7f4e487b7100000000000000000000000000000000000000000000000000000000600052603260045260246000fd5b7f4e487b7100000000000000000000000000000000000000000000000000000000600052603160045260246000fdfea26469706673582212206cbd308f38b1b62fb955374307446657a3628eea9a42a3537988d294494af2ec64736f6c63430008120033",
					"opcodes": "PUSH1 0x80 PUSH1 0x40 MSTORE CALLVALUE DUP1 ISZERO PUSH2 0x10 JUMPI PUSH1 0x0 DUP1 REVERT JUMPDEST POP PUSH2 0x525 DUP1 PUSH2 0x20 PUSH1 0x0 CODECOPY PUSH1 0x0 RETURN INVALID PUSH1 0x80 PUSH1 0x40 MSTORE CALLVALUE DUP1 ISZERO PUSH2 0x10 JUMPI PUSH1 0x0 DUP1 REVERT JUMPDEST POP PUSH1 0x4 CALLDATASIZE LT PUSH2 0x88 JUMPI PUSH1 0x0 CALLDATALOAD PUSH1 0xE0 SHR DUP1 PUSH4 0x9507D39A GT PUSH2 0x5B JUMPI DUP1 PUSH4 0x9507D39A EQ PUSH2 0x101 JUMPI DUP1 PUSH4 0x959AC484 EQ PUSH2 0x131 JUMPI DUP1 PUSH4 0xA4ECE52C EQ PUSH2 0x14D JUMPI DUP1 PUSH4 0xFB8CBCED EQ PUSH2 0x157 JUMPI PUSH2 0x88 JUMP JUMPDEST DUP1 PUSH4 0x335D00C2 EQ PUSH2 0x8D JUMPI DUP1 PUSH4 0x4A90BE57 EQ PUSH2 0x97 JUMPI DUP1 PUSH4 0x4CC82215 EQ PUSH2 0xB5 JUMPI DUP1 PUSH4 0x71E5EE5F EQ PUSH2 0xD1 JUMPI JUMPDEST PUSH1 0x0 DUP1 REVERT JUMPDEST PUSH2 0x95 PUSH2 0x175 JUMP JUMPDEST STOP JUMPDEST PUSH2 0x9F PUSH2 0x1C6 JUMP JUMPDEST PUSH1 0x40 MLOAD PUSH2 0xAC SWAP2 SWAP1 PUSH2 0x309 JUMP JUMPDEST PUSH1 0x40 MLOAD DUP1 SWAP2 SUB SWAP1 RETURN JUMPDEST PUSH2 0xCF PUSH1 0x4 DUP1 CALLDATASIZE SUB DUP2 ADD SWAP1 PUSH2 0xCA SWAP2 SWAP1 PUSH2 0x355 JUMP JUMPDEST PUSH2 0x1D2 JUMP JUMPDEST STOP JUMPDEST PUSH2 0xEB PUSH1 0x4 DUP1 CALLDATASIZE SUB DUP2 ADD SWAP1 PUSH2 0xE6 SWAP2 SWAP1 PUSH2 0x355 JUMP JUMPDEST PUSH2 0x1F7 JUMP JUMPDEST PUSH1 0x40 MLOAD PUSH2 0xF8 SWAP2 SWAP1 PUSH2 0x309 JUMP JUMPDEST PUSH1 0x40 MLOAD DUP1 SWAP2 SUB SWAP1 RETURN JUMPDEST PUSH2 0x11B PUSH1 0x4 DUP1 CALLDATASIZE SUB DUP2 ADD SWAP1 PUSH2 0x116 SWAP2 SWAP1 PUSH2 0x355 JUMP JUMPDEST PUSH2 0x21B JUMP JUMPDEST PUSH1 0x40 MLOAD PUSH2 0x128 SWAP2 SWAP1 PUSH2 0x309 JUMP JUMPDEST PUSH1 0x40 MLOAD DUP1 SWAP2 SUB SWAP1 RETURN JUMPDEST PUSH2 0x14B PUSH1 0x4 DUP1 CALLDATASIZE SUB DUP2 ADD SWAP1 PUSH2 0x146 SWAP2 SWAP1 PUSH2 0x355 JUMP JUMPDEST PUSH2 0x242 JUMP JUMPDEST STOP JUMPDEST PUSH2 0x155 PUSH2 0x26E JUMP JUMPDEST STOP JUMPDEST PUSH2 0x15F PUSH2 0x298 JUMP JUMPDEST PUSH1 0x40 MLOAD PUSH2 0x16C SWAP2 SWAP1 PUSH2 0x440 JUMP JUMPDEST PUSH1 0x40 MLOAD DUP1 SWAP2 SUB SWAP1 RETURN JUMPDEST PUSH1 0x0 PUSH1 0x5 PUSH8 0xFFFFFFFFFFFFFFFF DUP2 GT ISZERO PUSH2 0x192 JUMPI PUSH2 0x191 PUSH2 0x462 JUMP JUMPDEST JUMPDEST PUSH1 0x40 MLOAD SWAP1 DUP1 DUP3 MSTORE DUP1 PUSH1 0x20 MUL PUSH1 0x20 ADD DUP3 ADD PUSH1 0x40 MSTORE DUP1 ISZERO PUSH2 0x1C0 JUMPI DUP2 PUSH1 0x20 ADD PUSH1 0x20 DUP3 MUL DUP1 CALLDATASIZE DUP4 CALLDATACOPY DUP1 DUP3 ADD SWAP2 POP POP SWAP1 POP JUMPDEST POP SWAP1 POP POP JUMP JUMPDEST PUSH1 0x0 DUP1 DUP1 SLOAD SWAP1 POP SWAP1 POP SWAP1 JUMP JUMPDEST PUSH1 0x0 DUP2 DUP2 SLOAD DUP2 LT PUSH2 0x1E6 JUMPI PUSH2 0x1E5 PUSH2 0x491 JUMP JUMPDEST JUMPDEST SWAP1 PUSH1 0x0 MSTORE PUSH1 0x20 PUSH1 0x0 KECCAK256 ADD PUSH1 0x0 SWAP1 SSTORE POP JUMP JUMPDEST PUSH1 0x0 DUP2 DUP2 SLOAD DUP2 LT PUSH2 0x207 JUMPI PUSH1 0x0 DUP1 REVERT JUMPDEST SWAP1 PUSH1 0x0 MSTORE PUSH1 0x20 PUSH1 0x0 KECCAK256 ADD PUSH1 0x0 SWAP2 POP SWAP1 POP SLOAD DUP2 JUMP JUMPDEST PUSH1 0x0 DUP1 DUP3 DUP2 SLOAD DUP2 LT PUSH2 0x230 JUMPI PUSH2 0x22F PUSH2 0x491 JUMP JUMPDEST JUMPDEST SWAP1 PUSH1 0x0 MSTORE PUSH1 0x20 PUSH1 0x0 KECCAK256 ADD SLOAD SWAP1 POP SWAP2 SWAP1 POP JUMP JUMPDEST PUSH1 0x0 DUP2 SWAP1 DUP1 PUSH1 0x1 DUP2 SLOAD ADD DUP1 DUP3 SSTORE DUP1 SWAP2 POP POP PUSH1 0x1 SWAP1 SUB SWAP1 PUSH1 0x0 MSTORE PUSH1 0x20 PUSH1 0x0 KECCAK256 ADD PUSH1 0x0 SWAP1 SWAP2 SWAP1 SWAP2 SWAP1 SWAP2 POP SSTORE POP JUMP JUMPDEST PUSH1 0x0 DUP1 SLOAD DUP1 PUSH2 0x280 JUMPI PUSH2 0x27F PUSH2 0x4C0 JUMP JUMPDEST JUMPDEST PUSH1 0x1 SWAP1 SUB DUP2 DUP2 SWAP1 PUSH1 0x0 MSTORE PUSH1 0x20 PUSH1 0x0 KECCAK256 ADD PUSH1 0x0 SWAP1 SSTORE SWAP1 SSTORE JUMP JUMPDEST PUSH1 0x60 PUSH1 0x0 DUP1 SLOAD DUP1 PUSH1 0x20 MUL PUSH1 0x20 ADD PUSH1 0x40 MLOAD SWAP1 DUP2 ADD PUSH1 0x40 MSTORE DUP1 SWAP3 SWAP2 SWAP1 DUP2 DUP2 MSTORE PUSH1 0x20 ADD DUP3 DUP1 SLOAD DUP1 ISZERO PUSH2 0x2E6 JUMPI PUSH1 0x20 MUL DUP3 ADD SWAP2 SWAP1 PUSH1 0x0 MSTORE PUSH1 0x20 PUSH1 0x0 KECCAK256 SWAP1 JUMPDEST DUP2 SLOAD DUP2 MSTORE PUSH1 0x20 ADD SWAP1 PUSH1 0x1 ADD SWAP1 DUP1 DUP4 GT PUSH2 0x2D2 JUMPI JUMPDEST POP POP POP POP POP SWAP1 POP SWAP1 JUMP JUMPDEST PUSH1 0x0 DUP2 SWAP1 POP SWAP2 SWAP1 POP JUMP JUMPDEST PUSH2 0x303 DUP2 PUSH2 0x2F0 JUMP JUMPDEST DUP3 MSTORE POP POP JUMP JUMPDEST PUSH1 0x0 PUSH1 0x20 DUP3 ADD SWAP1 POP PUSH2 0x31E PUSH1 0x0 DUP4 ADD DUP5 PUSH2 0x2FA JUMP JUMPDEST SWAP3 SWAP2 POP POP JUMP JUMPDEST PUSH1 0x0 DUP1 REVERT JUMPDEST PUSH2 0x332 DUP2 PUSH2 0x2F0 JUMP JUMPDEST DUP2 EQ PUSH2 0x33D JUMPI PUSH1 0x0 DUP1 REVERT JUMPDEST POP JUMP JUMPDEST PUSH1 0x0 DUP2 CALLDATALOAD SWAP1 POP PUSH2 0x34F DUP2 PUSH2 0x329 JUMP JUMPDEST SWAP3 SWAP2 POP POP JUMP JUMPDEST PUSH1 0x0 PUSH1 0x20 DUP3 DUP5 SUB SLT ISZERO PUSH2 0x36B JUMPI PUSH2 0x36A PUSH2 0x324 JUMP JUMPDEST JUMPDEST PUSH1 0x0 PUSH2 0x379 DUP5 DUP3 DUP6 ADD PUSH2 0x340 JUMP JUMPDEST SWAP2 POP POP SWAP3 SWAP2 POP POP JUMP JUMPDEST PUSH1 0x0 DUP2 MLOAD SWAP1 POP SWAP2 SWAP1 POP JUMP JUMPDEST PUSH1 0x0 DUP3 DUP3 MSTORE PUSH1 0x20 DUP3 ADD SWAP1 POP SWAP3 SWAP2 POP POP JUMP JUMPDEST PUSH1 0x0 DUP2 SWAP1 POP PUSH1 0x20 DUP3 ADD SWAP1 POP SWAP2 SWAP1 POP JUMP JUMPDEST PUSH2 0x3B7 DUP2 PUSH2 0x2F0 JUMP JUMPDEST DUP3 MSTORE POP POP JUMP JUMPDEST PUSH1 0x0 PUSH2 0x3C9 DUP4 DUP4 PUSH2 0x3AE JUMP JUMPDEST PUSH1 0x20 DUP4 ADD SWAP1 POP SWAP3 SWAP2 POP POP JUMP JUMPDEST PUSH1 0x0 PUSH1 0x20 DUP3 ADD SWAP1 POP SWAP2 SWAP1 POP JUMP JUMPDEST PUSH1 0x0 PUSH2 0x3ED DUP3 PUSH2 0x382 JUMP JUMPDEST PUSH2 0x3F7 DUP2 DUP6 PUSH2 0x38D JUMP JUMPDEST SWAP4 POP PUSH2 0x402 DUP4 PUSH2 0x39E JUMP JUMPDEST DUP1 PUSH1 0x0 JUMPDEST DUP4 DUP2 LT ISZERO PUSH2 0x433 JUMPI DUP2 MLOAD PUSH2 0x41A DUP9 DUP3 PUSH2 0x3BD JUMP JUMPDEST SWAP8 POP PUSH2 0x425 DUP4 PUSH2 0x3D5 JUMP JUMPDEST SWAP3 POP POP PUSH1 0x1 DUP2 ADD SWAP1 POP PUSH2 0x406 JUMP JUMPDEST POP DUP6 SWAP4 POP POP POP POP SWAP3 SWAP2 POP POP JUMP JUMPDEST PUSH1 0x0 PUSH1 0x20 DUP3 ADD SWAP1 POP DUP2 DUP2 SUB PUSH1 0x0 DUP4 ADD MSTORE PUSH2 0x45A DUP2 DUP5 PUSH2 0x3E2 JUMP JUMPDEST SWAP1 POP SWAP3 SWAP2 POP POP JUMP JUMPDEST PUSH32 0x4E487B7100000000000000000000000000000000000000000000000000000000 PUSH1 0x0 MSTORE PUSH1 0x41 PUSH1 0x4 MSTORE PUSH1 0x24 PUSH1 0x0 REVERT JUMPDEST PUSH32 0x4E487B7100000000000000000000000000000000000000000000000000000000 PUSH1 0x0 MSTORE PUSH1 0x32 PUSH1 0x4 MSTORE PUSH1 0x24 PUSH1 0x0 REVERT JUMPDEST PUSH32 0x4E487B7100000000000000000000000000000000000000000000000000000000 PUSH1 0x0 MSTORE PUSH1 0x31 PUSH1 0x4 MSTORE PUSH1 0x24 PUSH1 0x0 REVERT INVALID LOG2 PUSH5 0x6970667358 0x22 SLT KECCAK256 PUSH13 0xBD308F38B1B62FB95537430744 PUSH7 0x57A3628EEA9A42 LOG3 MSTORE8 PUSH26 0x88D294494AF2EC64736F6C634300081200330000000000000000 "
				},
				"gasEstimates": {
					"creation": {
						"codeDepositCost": "263400",
						"executionCost": "306",
						"totalCost": "263706"
					},
					"external": {
						"arr(uint256)": "infinite",
						"examples()": "341",
						"get(uint256)": "infinite",
						"getArr()": "infinite",
						"getLen()": "2468",
						"pop()": "29489",
						"push(uint256)": "46851",
						"remove(uint256)": "7640"
					}
				},
				"methodIdentifiers": {
					"arr(uint256)": "71e5ee5f",
					"examples()": "335d00c2",
					"get(uint256)": "9507d39a",
					"getArr()": "fb8cbced",
					"getLen()": "4a90be57",
					"pop()": "a4ece52c",
					"push(uint256)": "959ac484",
					"remove(uint256)": "4cc82215"
				}
			},
			"storageLayout": {
				"storage": [
					{
						"astId": 4,
						"contract": "contracts/arrays.sol:Array",
						"label": "arr",
						"offset": 0,
						"slot": "0",
						"type": "t_array(t_uint256)dyn_storage"
					}
				],
				"types": {
					"t_array(t_uint256)dyn_storage": {
						"base": "t_uint256",
						"encoding": "dynamic_array",
						"label": "uint256[]",
						"numberOfBytes": "32"
					},
					"t_uint256": {
						"encoding": "inplace",
						"label": "uint256",
						"numberOfBytes": "32"
					}
				}
			},
			"userdoc": {
				"kind": "user",
				"methods": {},
				"version": 1
			}
		}
	}
}