{
	"contracts/viewsNpure.sol": {
		"View": {
			"abi": [
				{
					"inputs": [],
					"name": "calculator",
					"outputs": [
						{
							"internalType": "uint256",
							"name": "stateSum",
							"type": "uint256"
						},
						{
							"internalType": "uint256",
							"name": "localSum",
							"type": "uint256"
						}
					],
					"stateMutability": "view",
					"type": "function"
				},
				{
					"inputs": [],
					"name": "getResults",
					"outputs": [
						{
							"internalType": "uint256",
							"name": "",
							"type": "uint256"
						},
						{
							"internalType": "uint256",
							"name": "",
							"type": "uint256"
						}
					],
					"stateMutability": "view",
					"type": "function"
				}
			],
			"devdoc": {
				"kind": "dev",
				"methods": {},
				"version": 1
			},
			"evm": {
				"assembly": "    /* \"contracts/viewsNpure.sol\":61:782  contract View{... */\n  mstore(0x40, 0x80)\n    /* \"contracts/viewsNpure.sol\":95:102  3823923 */\n  0x3a5933\n    /* \"contracts/viewsNpure.sol\":83:102  uint Num1 = 3823923 */\n  0x00\n  sstore\n    /* \"contracts/viewsNpure.sol\":121:126  12345 */\n  0x3039\n    /* \"contracts/viewsNpure.sol\":109:126  uint Num2 = 12345 */\n  0x01\n  sstore\n    /* \"contracts/viewsNpure.sol\":61:782  contract View{... */\n  callvalue\n  dup1\n  iszero\n  tag_1\n  jumpi\n  0x00\n  dup1\n  revert\ntag_1:\n  pop\n  dataSize(sub_0)\n  dup1\n  dataOffset(sub_0)\n  0x00\n  codecopy\n  0x00\n  return\nstop\n\nsub_0: assembly {\n        /* \"contracts/viewsNpure.sol\":61:782  contract View{... */\n      mstore(0x40, 0x80)\n      callvalue\n      dup1\n      iszero\n      tag_1\n      jumpi\n      0x00\n      dup1\n      revert\n    tag_1:\n      pop\n      jumpi(tag_2, lt(calldatasize, 0x04))\n      shr(0xe0, calldataload(0x00))\n      dup1\n      0x4717f97c\n      eq\n      tag_3\n      jumpi\n      dup1\n      0xce3e39c0\n      eq\n      tag_4\n      jumpi\n    tag_2:\n      0x00\n      dup1\n      revert\n        /* \"contracts/viewsNpure.sol\":135:227  function getResults () public view returns(uint, uint){... */\n    tag_3:\n      tag_5\n      tag_6\n      jump\t// in\n    tag_5:\n      mload(0x40)\n      tag_7\n      swap3\n      swap2\n      swap1\n      tag_8\n      jump\t// in\n    tag_7:\n      mload(0x40)\n      dup1\n      swap2\n      sub\n      swap1\n      return\n        /* \"contracts/viewsNpure.sol\":489:777  function calculator () public view returns(uint256 stateSum, uint256 localSum){... */\n    tag_4:\n      tag_9\n      tag_10\n      jump\t// in\n    tag_9:\n      mload(0x40)\n      tag_11\n      swap3\n      swap2\n      swap1\n      tag_8\n      jump\t// in\n    tag_11:\n      mload(0x40)\n      dup1\n      swap2\n      sub\n      swap1\n      return\n        /* \"contracts/viewsNpure.sol\":135:227  function getResults () public view returns(uint, uint){... */\n    tag_6:\n        /* \"contracts/viewsNpure.sol\":178:182  uint */\n      0x00\n        /* \"contracts/viewsNpure.sol\":184:188  uint */\n      dup1\n        /* \"contracts/viewsNpure.sol\":208:212  Num1 */\n      sload(0x00)\n        /* \"contracts/viewsNpure.sol\":214:218  Num2 */\n      sload(0x01)\n        /* \"contracts/viewsNpure.sol\":200:219  return (Num1, Num2) */\n      swap2\n      pop\n      swap2\n      pop\n        /* \"contracts/viewsNpure.sol\":135:227  function getResults () public view returns(uint, uint){... */\n      swap1\n      swap2\n      jump\t// out\n        /* \"contracts/viewsNpure.sol\":489:777  function calculator () public view returns(uint256 stateSum, uint256 localSum){... */\n    tag_10:\n        /* \"contracts/viewsNpure.sol\":532:548  uint256 stateSum */\n      0x00\n        /* \"contracts/viewsNpure.sol\":550:566  uint256 localSum */\n      dup1\n        /* \"contracts/viewsNpure.sol\":578:590  uint256 num1 */\n      0x00\n        /* \"contracts/viewsNpure.sol\":593:594  5 */\n      0x05\n        /* \"contracts/viewsNpure.sol\":578:594  uint256 num1 = 5 */\n      swap1\n      pop\n        /* \"contracts/viewsNpure.sol\":605:617  uint256 num2 */\n      0x00\n        /* \"contracts/viewsNpure.sol\":620:622  50 */\n      0x32\n        /* \"contracts/viewsNpure.sol\":605:622  uint256 num2 = 50 */\n      swap1\n      pop\n        /* \"contracts/viewsNpure.sol\":653:657  Num2 */\n      sload(0x01)\n        /* \"contracts/viewsNpure.sol\":646:650  Num2 */\n      sload(0x01)\n        /* \"contracts/viewsNpure.sol\":646:657  Num2 * Num2 */\n      tag_14\n      swap2\n      swap1\n      tag_15\n      jump\t// in\n    tag_14:\n        /* \"contracts/viewsNpure.sol\":635:657  stateSum = Num2 * Num2 */\n      swap4\n      pop\n        /* \"contracts/viewsNpure.sol\":686:690  num2 */\n      dup1\n        /* \"contracts/viewsNpure.sol\":679:683  num1 */\n      dup3\n        /* \"contracts/viewsNpure.sol\":679:690  num1 + num2 */\n      tag_16\n      swap2\n      swap1\n      tag_17\n      jump\t// in\n    tag_16:\n        /* \"contracts/viewsNpure.sol\":668:690  localSum = num1 + num2 */\n      swap3\n      pop\n        /* \"contracts/viewsNpure.sol\":702:729  return (stateSum, localSum) */\n      pop\n      pop\n        /* \"contracts/viewsNpure.sol\":489:777  function calculator () public view returns(uint256 stateSum, uint256 localSum){... */\n      swap1\n      swap2\n      jump\t// out\n        /* \"#utility.yul\":7:84   */\n    tag_18:\n        /* \"#utility.yul\":44:51   */\n      0x00\n        /* \"#utility.yul\":73:78   */\n      dup2\n        /* \"#utility.yul\":62:78   */\n      swap1\n      pop\n        /* \"#utility.yul\":7:84   */\n      swap2\n      swap1\n      pop\n      jump\t// out\n        /* \"#utility.yul\":90:208   */\n    tag_19:\n        /* \"#utility.yul\":177:201   */\n      tag_24\n        /* \"#utility.yul\":195:200   */\n      dup2\n        /* \"#utility.yul\":177:201   */\n      tag_18\n      jump\t// in\n    tag_24:\n        /* \"#utility.yul\":172:175   */\n      dup3\n        /* \"#utility.yul\":165:202   */\n      mstore\n        /* \"#utility.yul\":90:208   */\n      pop\n      pop\n      jump\t// out\n        /* \"#utility.yul\":214:546   */\n    tag_8:\n        /* \"#utility.yul\":335:339   */\n      0x00\n        /* \"#utility.yul\":373:375   */\n      0x40\n        /* \"#utility.yul\":362:371   */\n      dup3\n        /* \"#utility.yul\":358:376   */\n      add\n        /* \"#utility.yul\":350:376   */\n      swap1\n      pop\n        /* \"#utility.yul\":386:457   */\n      tag_26\n        /* \"#utility.yul\":454:455   */\n      0x00\n        /* \"#utility.yul\":443:452   */\n      dup4\n        /* \"#utility.yul\":439:456   */\n      add\n        /* \"#utility.yul\":430:436   */\n      dup6\n        /* \"#utility.yul\":386:457   */\n      tag_19\n      jump\t// in\n    tag_26:\n        /* \"#utility.yul\":467:539   */\n      tag_27\n        /* \"#utility.yul\":535:537   */\n      0x20\n        /* \"#utility.yul\":524:533   */\n      dup4\n        /* \"#utility.yul\":520:538   */\n      add\n        /* \"#utility.yul\":511:517   */\n      dup5\n        /* \"#utility.yul\":467:539   */\n      tag_19\n      jump\t// in\n    tag_27:\n        /* \"#utility.yul\":214:546   */\n      swap4\n      swap3\n      pop\n      pop\n      pop\n      jump\t// out\n        /* \"#utility.yul\":552:732   */\n    tag_20:\n        /* \"#utility.yul\":600:677   */\n      0x4e487b7100000000000000000000000000000000000000000000000000000000\n        /* \"#utility.yul\":597:598   */\n      0x00\n        /* \"#utility.yul\":590:678   */\n      mstore\n        /* \"#utility.yul\":697:701   */\n      0x11\n        /* \"#utility.yul\":694:695   */\n      0x04\n        /* \"#utility.yul\":687:702   */\n      mstore\n        /* \"#utility.yul\":721:725   */\n      0x24\n        /* \"#utility.yul\":718:719   */\n      0x00\n        /* \"#utility.yul\":711:726   */\n      revert\n        /* \"#utility.yul\":738:1148   */\n    tag_15:\n        /* \"#utility.yul\":778:785   */\n      0x00\n        /* \"#utility.yul\":801:821   */\n      tag_30\n        /* \"#utility.yul\":819:820   */\n      dup3\n        /* \"#utility.yul\":801:821   */\n      tag_18\n      jump\t// in\n    tag_30:\n        /* \"#utility.yul\":796:821   */\n      swap2\n      pop\n        /* \"#utility.yul\":835:855   */\n      tag_31\n        /* \"#utility.yul\":853:854   */\n      dup4\n        /* \"#utility.yul\":835:855   */\n      tag_18\n      jump\t// in\n    tag_31:\n        /* \"#utility.yul\":830:855   */\n      swap3\n      pop\n        /* \"#utility.yul\":890:891   */\n      dup3\n        /* \"#utility.yul\":887:888   */\n      dup3\n        /* \"#utility.yul\":883:892   */\n      mul\n        /* \"#utility.yul\":912:942   */\n      tag_32\n        /* \"#utility.yul\":930:941   */\n      dup2\n        /* \"#utility.yul\":912:942   */\n      tag_18\n      jump\t// in\n    tag_32:\n        /* \"#utility.yul\":901:942   */\n      swap2\n      pop\n        /* \"#utility.yul\":1091:1092   */\n      dup3\n        /* \"#utility.yul\":1082:1089   */\n      dup3\n        /* \"#utility.yul\":1078:1093   */\n      div\n        /* \"#utility.yul\":1075:1076   */\n      dup5\n        /* \"#utility.yul\":1072:1094   */\n      eq\n        /* \"#utility.yul\":1052:1053   */\n      dup4\n        /* \"#utility.yul\":1045:1054   */\n      iszero\n        /* \"#utility.yul\":1025:1108   */\n      or\n        /* \"#utility.yul\":1002:1141   */\n      tag_33\n      jumpi\n        /* \"#utility.yul\":1121:1139   */\n      tag_34\n      tag_20\n      jump\t// in\n    tag_34:\n        /* \"#utility.yul\":1002:1141   */\n    tag_33:\n        /* \"#utility.yul\":786:1148   */\n      pop\n        /* \"#utility.yul\":738:1148   */\n      swap3\n      swap2\n      pop\n      pop\n      jump\t// out\n        /* \"#utility.yul\":1154:1345   */\n    tag_17:\n        /* \"#utility.yul\":1194:1197   */\n      0x00\n        /* \"#utility.yul\":1213:1233   */\n      tag_36\n        /* \"#utility.yul\":1231:1232   */\n      dup3\n        /* \"#utility.yul\":1213:1233   */\n      tag_18\n      jump\t// in\n    tag_36:\n        /* \"#utility.yul\":1208:1233   */\n      swap2\n      pop\n        /* \"#utility.yul\":1247:1267   */\n      tag_37\n        /* \"#utility.yul\":1265:1266   */\n      dup4\n        /* \"#utility.yul\":1247:1267   */\n      tag_18\n      jump\t// in\n    tag_37:\n        /* \"#utility.yul\":1242:1267   */\n      swap3\n      pop\n        /* \"#utility.yul\":1290:1291   */\n      dup3\n        /* \"#utility.yul\":1287:1288   */\n      dup3\n        /* \"#utility.yul\":1283:1292   */\n      add\n        /* \"#utility.yul\":1276:1292   */\n      swap1\n      pop\n        /* \"#utility.yul\":1311:1314   */\n      dup1\n        /* \"#utility.yul\":1308:1309   */\n      dup3\n        /* \"#utility.yul\":1305:1315   */\n      gt\n        /* \"#utility.yul\":1302:1338   */\n      iszero\n      tag_38\n      jumpi\n        /* \"#utility.yul\":1318:1336   */\n      tag_39\n      tag_20\n      jump\t// in\n    tag_39:\n        /* \"#utility.yul\":1302:1338   */\n    tag_38:\n        /* \"#utility.yul\":1154:1345   */\n      swap3\n      swap2\n      pop\n      pop\n      jump\t// out\n\n    auxdata: 0xa2646970667358221220f73bb3c0b72c58650cdcd3e793b95b5e84c3e3c7cb258f92ae50ebfb07a9e97464736f6c63430008120033\n}\n",
				"bytecode": {
					"linkReferences": {},
					"object": "6080604052623a593360005561303960015534801561001d57600080fd5b506101dc8061002d6000396000f3fe608060405234801561001057600080fd5b50600436106100365760003560e01c80634717f97c1461003b578063ce3e39c01461005a575b600080fd5b610043610079565b6040516100519291906100d8565b60405180910390f35b61006261008a565b6040516100709291906100d8565b60405180910390f35b600080600054600154915091509091565b6000806000600590506000603290506001546001546100a99190610130565b935080826100b79190610172565b925050509091565b6000819050919050565b6100d2816100bf565b82525050565b60006040820190506100ed60008301856100c9565b6100fa60208301846100c9565b9392505050565b7f4e487b7100000000000000000000000000000000000000000000000000000000600052601160045260246000fd5b600061013b826100bf565b9150610146836100bf565b9250828202610154816100bf565b9150828204841483151761016b5761016a610101565b5b5092915050565b600061017d826100bf565b9150610188836100bf565b92508282019050808211156101a05761019f610101565b5b9291505056fea2646970667358221220f73bb3c0b72c58650cdcd3e793b95b5e84c3e3c7cb258f92ae50ebfb07a9e97464736f6c63430008120033",
					"opcodes": "PUSH1 0x80 PUSH1 0x40 MSTORE PUSH3 0x3A5933 PUSH1 0x0 SSTORE PUSH2 0x3039 PUSH1 0x1 SSTORE CALLVALUE DUP1 ISZERO PUSH2 0x1D JUMPI PUSH1 0x0 DUP1 REVERT JUMPDEST POP PUSH2 0x1DC DUP1 PUSH2 0x2D PUSH1 0x0 CODECOPY PUSH1 0x0 RETURN INVALID PUSH1 0x80 PUSH1 0x40 MSTORE CALLVALUE DUP1 ISZERO PUSH2 0x10 JUMPI PUSH1 0x0 DUP1 REVERT JUMPDEST POP PUSH1 0x4 CALLDATASIZE LT PUSH2 0x36 JUMPI PUSH1 0x0 CALLDATALOAD PUSH1 0xE0 SHR DUP1 PUSH4 0x4717F97C EQ PUSH2 0x3B JUMPI DUP1 PUSH4 0xCE3E39C0 EQ PUSH2 0x5A JUMPI JUMPDEST PUSH1 0x0 DUP1 REVERT JUMPDEST PUSH2 0x43 PUSH2 0x79 JUMP JUMPDEST PUSH1 0x40 MLOAD PUSH2 0x51 SWAP3 SWAP2 SWAP1 PUSH2 0xD8 JUMP JUMPDEST PUSH1 0x40 MLOAD DUP1 SWAP2 SUB SWAP1 RETURN JUMPDEST PUSH2 0x62 PUSH2 0x8A JUMP JUMPDEST PUSH1 0x40 MLOAD PUSH2 0x70 SWAP3 SWAP2 SWAP1 PUSH2 0xD8 JUMP JUMPDEST PUSH1 0x40 MLOAD DUP1 SWAP2 SUB SWAP1 RETURN JUMPDEST PUSH1 0x0 DUP1 PUSH1 0x0 SLOAD PUSH1 0x1 SLOAD SWAP2 POP SWAP2 POP SWAP1 SWAP2 JUMP JUMPDEST PUSH1 0x0 DUP1 PUSH1 0x0 PUSH1 0x5 SWAP1 POP PUSH1 0x0 PUSH1 0x32 SWAP1 POP PUSH1 0x1 SLOAD PUSH1 0x1 SLOAD PUSH2 0xA9 SWAP2 SWAP1 PUSH2 0x130 JUMP JUMPDEST SWAP4 POP DUP1 DUP3 PUSH2 0xB7 SWAP2 SWAP1 PUSH2 0x172 JUMP JUMPDEST SWAP3 POP POP POP SWAP1 SWAP2 JUMP JUMPDEST PUSH1 0x0 DUP2 SWAP1 POP SWAP2 SWAP1 POP JUMP JUMPDEST PUSH2 0xD2 DUP2 PUSH2 0xBF JUMP JUMPDEST DUP3 MSTORE POP POP JUMP JUMPDEST PUSH1 0x0 PUSH1 0x40 DUP3 ADD SWAP1 POP PUSH2 0xED PUSH1 0x0 DUP4 ADD DUP6 PUSH2 0xC9 JUMP JUMPDEST PUSH2 0xFA PUSH1 0x20 DUP4 ADD DUP5 PUSH2 0xC9 JUMP JUMPDEST SWAP4 SWAP3 POP POP POP JUMP JUMPDEST PUSH32 0x4E487B7100000000000000000000000000000000000000000000000000000000 PUSH1 0x0 MSTORE PUSH1 0x11 PUSH1 0x4 MSTORE PUSH1 0x24 PUSH1 0x0 REVERT JUMPDEST PUSH1 0x0 PUSH2 0x13B DUP3 PUSH2 0xBF JUMP JUMPDEST SWAP2 POP PUSH2 0x146 DUP4 PUSH2 0xBF JUMP JUMPDEST SWAP3 POP DUP3 DUP3 MUL PUSH2 0x154 DUP2 PUSH2 0xBF JUMP JUMPDEST SWAP2 POP DUP3 DUP3 DIV DUP5 EQ DUP4 ISZERO OR PUSH2 0x16B JUMPI PUSH2 0x16A PUSH2 0x101 JUMP JUMPDEST JUMPDEST POP SWAP3 SWAP2 POP POP JUMP JUMPDEST PUSH1 0x0 PUSH2 0x17D DUP3 PUSH2 0xBF JUMP JUMPDEST SWAP2 POP PUSH2 0x188 DUP4 PUSH2 0xBF JUMP JUMPDEST SWAP3 POP DUP3 DUP3 ADD SWAP1 POP DUP1 DUP3 GT ISZERO PUSH2 0x1A0 JUMPI PUSH2 0x19F PUSH2 0x101 JUMP JUMPDEST JUMPDEST SWAP3 SWAP2 POP POP JUMP INVALID LOG2 PUSH5 0x6970667358 0x22 SLT KECCAK256 0xF7 EXTCODESIZE 0xB3 0xC0 0xB7 0x2C PC PUSH6 0xCDCD3E793B9 JUMPDEST 0x5E DUP5 0xC3 0xE3 0xC7 0xCB 0x25 DUP16 SWAP3 0xAE POP 0xEB 0xFB SMOD 0xA9 0xE9 PUSH21 0x64736F6C6343000812003300000000000000000000 "
				},
				"gasEstimates": {
					"creation": {
						"codeDepositCost": "95200",
						"executionCost": "44353",
						"totalCost": "139553"
					},
					"external": {
						"calculator()": "infinite",
						"getResults()": "infinite"
					}
				},
				"methodIdentifiers": {
					"calculator()": "ce3e39c0",
					"getResults()": "4717f97c"
				}
			},
			"storageLayout": {
				"storage": [
					{
						"astId": 4,
						"contract": "contracts/viewsNpure.sol:View",
						"label": "Num1",
						"offset": 0,
						"slot": "0",
						"type": "t_uint256"
					},
					{
						"astId": 7,
						"contract": "contracts/viewsNpure.sol:View",
						"label": "Num2",
						"offset": 0,
						"slot": "1",
						"type": "t_uint256"
					}
				],
				"types": {
					"t_uint256": {
						"encoding": "inplace",
						"label": "uint256",
						"numberOfBytes": "32"
					}
				}
			},
			"userdoc": {
				"kind": "user",
				"methods": {},
				"version": 1
			}
		}
	}
}