{
	"contracts/try_catch.sol": {
		"child": {
			"abi": [
				{
					"inputs": [],
					"stateMutability": "nonpayable",
					"type": "constructor"
				},
				{
					"anonymous": false,
					"inputs": [
						{
							"indexed": false,
							"internalType": "string",
							"name": "message",
							"type": "string"
						}
					],
					"name": "Log",
					"type": "event"
				},
				{
					"anonymous": false,
					"inputs": [
						{
							"indexed": false,
							"internalType": "bytes",
							"name": "data",
							"type": "bytes"
						}
					],
					"name": "LogBytes",
					"type": "event"
				},
				{
					"inputs": [],
					"name": "main",
					"outputs": [
						{
							"internalType": "contract Main",
							"name": "",
							"type": "address"
						}
					],
					"stateMutability": "view",
					"type": "function"
				},
				{
					"inputs": [
						{
							"internalType": "uint256",
							"name": "_i",
							"type": "uint256"
						}
					],
					"name": "tryCatchExternalCall",
					"outputs": [],
					"stateMutability": "nonpayable",
					"type": "function"
				},
				{
					"inputs": [
						{
							"internalType": "address",
							"name": "_owner",
							"type": "address"
						}
					],
					"name": "tryCatchNewContract",
					"outputs": [],
					"stateMutability": "nonpayable",
					"type": "function"
				}
			],
			"devdoc": {
				"kind": "dev",
				"methods": {},
				"version": 1
			},
			"evm": {
				"assembly": "    /* \"contracts/try_catch.sol\":566:1618  contract child{... */\n  mstore(0x40, 0x80)\n    /* \"contracts/try_catch.sol\":704:834  constructor(){... */\n  callvalue\n  dup1\n  iszero\n  tag_1\n  jumpi\n  0x00\n  dup1\n  revert\ntag_1:\n  pop\n    /* \"contracts/try_catch.sol\":740:750  msg.sender */\n  caller\n    /* \"contracts/try_catch.sol\":731:751  new Main(msg.sender) */\n  mload(0x40)\n  tag_4\n  swap1\n  tag_5\n  jump\t// in\ntag_4:\n  tag_6\n  swap2\n  swap1\n  tag_7\n  jump\t// in\ntag_6:\n  mload(0x40)\n  dup1\n  swap2\n  sub\n  swap1\n  0x00\n  create\n  dup1\n  iszero\n  dup1\n  iszero\n  tag_8\n  jumpi\n  returndatasize\n  0x00\n  dup1\n  returndatacopy\n  revert(0x00, returndatasize)\ntag_8:\n  pop\n    /* \"contracts/try_catch.sol\":724:728  main */\n  0x00\n  dup1\n    /* \"contracts/try_catch.sol\":724:751  main = new Main(msg.sender) */\n  0x0100\n  exp\n  dup2\n  sload\n  dup2\n  0xffffffffffffffffffffffffffffffffffffffff\n  mul\n  not\n  and\n  swap1\n  dup4\n  0xffffffffffffffffffffffffffffffffffffffff\n  and\n  mul\n  or\n  swap1\n  sstore\n  pop\n    /* \"contracts/try_catch.sol\":566:1618  contract child{... */\n  jump(tag_9)\ntag_5:\n  dataSize(sub_1)\n  dup1\n  dataOffset(sub_1)\n  dup4\n  codecopy\n  add\n  swap1\n  jump\t// out\n    /* \"#utility.yul\":7:133   */\ntag_10:\n    /* \"#utility.yul\":44:51   */\n  0x00\n    /* \"#utility.yul\":84:126   */\n  0xffffffffffffffffffffffffffffffffffffffff\n    /* \"#utility.yul\":77:82   */\n  dup3\n    /* \"#utility.yul\":73:127   */\n  and\n    /* \"#utility.yul\":62:127   */\n  swap1\n  pop\n    /* \"#utility.yul\":7:133   */\n  swap2\n  swap1\n  pop\n  jump\t// out\n    /* \"#utility.yul\":139:235   */\ntag_11:\n    /* \"#utility.yul\":176:183   */\n  0x00\n    /* \"#utility.yul\":205:229   */\n  tag_16\n    /* \"#utility.yul\":223:228   */\n  dup3\n    /* \"#utility.yul\":205:229   */\n  tag_10\n  jump\t// in\ntag_16:\n    /* \"#utility.yul\":194:229   */\n  swap1\n  pop\n    /* \"#utility.yul\":139:235   */\n  swap2\n  swap1\n  pop\n  jump\t// out\n    /* \"#utility.yul\":241:359   */\ntag_12:\n    /* \"#utility.yul\":328:352   */\n  tag_18\n    /* \"#utility.yul\":346:351   */\n  dup2\n    /* \"#utility.yul\":328:352   */\n  tag_11\n  jump\t// in\ntag_18:\n    /* \"#utility.yul\":323:326   */\n  dup3\n    /* \"#utility.yul\":316:353   */\n  mstore\n    /* \"#utility.yul\":241:359   */\n  pop\n  pop\n  jump\t// out\n    /* \"#utility.yul\":365:587   */\ntag_7:\n    /* \"#utility.yul\":458:462   */\n  0x00\n    /* \"#utility.yul\":496:498   */\n  0x20\n    /* \"#utility.yul\":485:494   */\n  dup3\n    /* \"#utility.yul\":481:499   */\n  add\n    /* \"#utility.yul\":473:499   */\n  swap1\n  pop\n    /* \"#utility.yul\":509:580   */\n  tag_20\n    /* \"#utility.yul\":577:578   */\n  0x00\n    /* \"#utility.yul\":566:575   */\n  dup4\n    /* \"#utility.yul\":562:579   */\n  add\n    /* \"#utility.yul\":553:559   */\n  dup5\n    /* \"#utility.yul\":509:580   */\n  tag_12\n  jump\t// in\ntag_20:\n    /* \"#utility.yul\":365:587   */\n  swap3\n  swap2\n  pop\n  pop\n  jump\t// out\n    /* \"contracts/try_catch.sol\":566:1618  contract child{... */\ntag_9:\n  dataSize(sub_0)\n  dup1\n  dataOffset(sub_0)\n  0x00\n  codecopy\n  0x00\n  return\nstop\n\nsub_0: assembly {\n        /* \"contracts/try_catch.sol\":566:1618  contract child{... */\n      mstore(0x40, 0x80)\n      callvalue\n      dup1\n      iszero\n      tag_1\n      jumpi\n      0x00\n      dup1\n      revert\n    tag_1:\n      pop\n      jumpi(tag_2, lt(calldatasize, 0x04))\n      shr(0xe0, calldataload(0x00))\n      dup1\n      0x77bdab83\n      eq\n      tag_3\n      jumpi\n      dup1\n      0x933ac084\n      eq\n      tag_4\n      jumpi\n      dup1\n      0xdffeadd0\n      eq\n      tag_5\n      jumpi\n    tag_2:\n      0x00\n      dup1\n      revert\n        /* \"contracts/try_catch.sol\":1258:1611  function tryCatchNewContract(address _owner) public {... */\n    tag_3:\n      tag_6\n      0x04\n      dup1\n      calldatasize\n      sub\n      dup2\n      add\n      swap1\n      tag_7\n      swap2\n      swap1\n      tag_8\n      jump\t// in\n    tag_7:\n      tag_9\n      jump\t// in\n    tag_6:\n      stop\n        /* \"contracts/try_catch.sol\":1001:1201  function tryCatchExternalCall(uint _i) public{... */\n    tag_4:\n      tag_10\n      0x04\n      dup1\n      calldatasize\n      sub\n      dup2\n      add\n      swap1\n      tag_11\n      swap2\n      swap1\n      tag_12\n      jump\t// in\n    tag_11:\n      tag_13\n      jump\t// in\n    tag_10:\n      stop\n        /* \"contracts/try_catch.sol\":681:697  Main public main */\n    tag_5:\n      tag_14\n      tag_15\n      jump\t// in\n    tag_14:\n      mload(0x40)\n      tag_16\n      swap2\n      swap1\n      tag_17\n      jump\t// in\n    tag_16:\n      mload(0x40)\n      dup1\n      swap2\n      sub\n      swap1\n      return\n        /* \"contracts/try_catch.sol\":1258:1611  function tryCatchNewContract(address _owner) public {... */\n    tag_9:\n        /* \"contracts/try_catch.sol\":1330:1336  _owner */\n      dup1\n        /* \"contracts/try_catch.sol\":1321:1337  new Main(_owner) */\n      mload(0x40)\n      tag_19\n      swap1\n      tag_20\n      jump\t// in\n    tag_19:\n      tag_21\n      swap2\n      swap1\n      tag_22\n      jump\t// in\n    tag_21:\n      mload(0x40)\n      dup1\n      swap2\n      sub\n      swap1\n      0x00\n      create\n      dup1\n      iszero\n      tag_23\n      jumpi\n      0x01\n    tag_23:\n        /* \"contracts/try_catch.sol\":1317:1606  try new Main(_owner) returns (Main main){... */\n      tag_24\n      jumpi\n      tag_28\n      tag_29\n      jump\t// in\n    tag_28:\n      dup1\n      0x08c379a0\n      sub\n      tag_27\n      jumpi\n      pop\n      tag_30\n      tag_31\n      jump\t// in\n    tag_30:\n      dup1\n      tag_32\n      jumpi\n      pop\n      jump(tag_26)\n    tag_32:\n        /* \"contracts/try_catch.sol\":1491:1502  Log(reason) */\n      0xcf34ef537ac33ee1ac626ca1587a0a7e8e51561e5514f8cb36afa1c5102b3bab\n        /* \"contracts/try_catch.sol\":1495:1501  reason */\n      dup2\n        /* \"contracts/try_catch.sol\":1491:1502  Log(reason) */\n      mload(0x40)\n      tag_33\n      swap2\n      swap1\n      tag_34\n      jump\t// in\n    tag_33:\n      mload(0x40)\n      dup1\n      swap2\n      sub\n      swap1\n      log1\n        /* \"contracts/try_catch.sol\":1398:1510  catch Error(string memory reason){... */\n      pop\n        /* \"contracts/try_catch.sol\":1317:1606  try new Main(_owner) returns (Main main){... */\n      jump(tag_25)\n    tag_27:\n      pop\n    tag_26:\n      returndatasize\n      dup1\n      0x00\n      dup2\n      eq\n      tag_36\n      jumpi\n      mload(0x40)\n      swap2\n      pop\n      and(add(returndatasize, 0x3f), not(0x1f))\n      dup3\n      add\n      0x40\n      mstore\n      returndatasize\n      dup3\n      mstore\n      returndatasize\n      0x00\n      0x20\n      dup5\n      add\n      returndatacopy\n      jump(tag_35)\n    tag_36:\n      0x60\n      swap2\n      pop\n    tag_35:\n      pop\n        /* \"contracts/try_catch.sol\":1582:1598  LogBytes(reason) */\n      0x532fd6ea96cfb78bb46e09279a26828b8b493de1a2b8b1ee1face527978a15a5\n        /* \"contracts/try_catch.sol\":1591:1597  reason */\n      dup2\n        /* \"contracts/try_catch.sol\":1582:1598  LogBytes(reason) */\n      mload(0x40)\n      tag_37\n      swap2\n      swap1\n      tag_38\n      jump\t// in\n    tag_37:\n      mload(0x40)\n      dup1\n      swap2\n      sub\n      swap1\n      log1\n        /* \"contracts/try_catch.sol\":1510:1606  catch(bytes memory reason){... */\n      pop\n        /* \"contracts/try_catch.sol\":1317:1606  try new Main(_owner) returns (Main main){... */\n    tag_25:\n      jump(tag_39)\n    tag_24:\n        /* \"contracts/try_catch.sol\":1371:1390  Log(\"Main Created\") */\n      0xcf34ef537ac33ee1ac626ca1587a0a7e8e51561e5514f8cb36afa1c5102b3bab\n      mload(0x40)\n      tag_40\n      swap1\n      tag_41\n      jump\t// in\n    tag_40:\n      mload(0x40)\n      dup1\n      swap2\n      sub\n      swap1\n      log1\n        /* \"contracts/try_catch.sol\":1338:1398  returns (Main main){... */\n      pop\n        /* \"contracts/try_catch.sol\":1317:1606  try new Main(_owner) returns (Main main){... */\n    tag_39:\n        /* \"contracts/try_catch.sol\":1258:1611  function tryCatchNewContract(address _owner) public {... */\n      pop\n      jump\t// out\n        /* \"contracts/try_catch.sol\":1001:1201  function tryCatchExternalCall(uint _i) public{... */\n    tag_13:\n        /* \"contracts/try_catch.sol\":1057:1061  main */\n      0x00\n      dup1\n      sload\n      swap1\n      0x0100\n      exp\n      swap1\n      div\n      0xffffffffffffffffffffffffffffffffffffffff\n      and\n        /* \"contracts/try_catch.sol\":1057:1068  main.myFunc */\n      0xffffffffffffffffffffffffffffffffffffffff\n      and\n      0xa9bf5633\n        /* \"contracts/try_catch.sol\":1069:1071  _i */\n      dup3\n        /* \"contracts/try_catch.sol\":1057:1072  main.myFunc(_i) */\n      mload(0x40)\n      dup3\n      0xffffffff\n      and\n      0xe0\n      shl\n      dup2\n      mstore\n      0x04\n      add\n      tag_43\n      swap2\n      swap1\n      tag_44\n      jump\t// in\n    tag_43:\n      0x00\n      mload(0x40)\n      dup1\n      dup4\n      sub\n      dup2\n      dup7\n      gas\n      staticcall\n      swap3\n      pop\n      pop\n      pop\n      dup1\n      iszero\n      tag_45\n      jumpi\n      pop\n      mload(0x40)\n      returndatasize\n      0x00\n      dup3\n      returndatacopy\n      returndatasize\n      not(0x1f)\n      0x1f\n      dup3\n      add\n      and\n      dup3\n      add\n      dup1\n      0x40\n      mstore\n      pop\n      dup2\n      add\n      swap1\n      tag_46\n      swap2\n      swap1\n      tag_47\n      jump\t// in\n    tag_46:\n      0x01\n    tag_45:\n        /* \"contracts/try_catch.sol\":1053:1196  try main.myFunc(_i) returns (string memory result){... */\n      tag_48\n      jumpi\n        /* \"contracts/try_catch.sol\":1161:1188  Log(\"External call failed\") */\n      0xcf34ef537ac33ee1ac626ca1587a0a7e8e51561e5514f8cb36afa1c5102b3bab\n      mload(0x40)\n      tag_52\n      swap1\n      tag_53\n      jump\t// in\n    tag_52:\n      mload(0x40)\n      dup1\n      swap2\n      sub\n      swap1\n      log1\n        /* \"contracts/try_catch.sol\":1053:1196  try main.myFunc(_i) returns (string memory result){... */\n      jump(tag_54)\n    tag_48:\n        /* \"contracts/try_catch.sol\":1117:1128  Log(result) */\n      0xcf34ef537ac33ee1ac626ca1587a0a7e8e51561e5514f8cb36afa1c5102b3bab\n        /* \"contracts/try_catch.sol\":1121:1127  result */\n      dup2\n        /* \"contracts/try_catch.sol\":1117:1128  Log(result) */\n      mload(0x40)\n      tag_55\n      swap2\n      swap1\n      tag_34\n      jump\t// in\n    tag_55:\n      mload(0x40)\n      dup1\n      swap2\n      sub\n      swap1\n      log1\n        /* \"contracts/try_catch.sol\":1073:1136  returns (string memory result){... */\n      pop\n        /* \"contracts/try_catch.sol\":1053:1196  try main.myFunc(_i) returns (string memory result){... */\n    tag_54:\n        /* \"contracts/try_catch.sol\":1001:1201  function tryCatchExternalCall(uint _i) public{... */\n      pop\n      jump\t// out\n        /* \"contracts/try_catch.sol\":681:697  Main public main */\n    tag_15:\n      0x00\n      dup1\n      sload\n      swap1\n      0x0100\n      exp\n      swap1\n      div\n      0xffffffffffffffffffffffffffffffffffffffff\n      and\n      dup2\n      jump\t// out\n    tag_20:\n      dataSize(sub_0)\n      dup1\n      dataOffset(sub_0)\n      dup4\n      codecopy\n      add\n      swap1\n      jump\t// out\n        /* \"#utility.yul\":7:82   */\n    tag_56:\n        /* \"#utility.yul\":40:46   */\n      0x00\n        /* \"#utility.yul\":73:75   */\n      0x40\n        /* \"#utility.yul\":67:76   */\n      mload\n        /* \"#utility.yul\":57:76   */\n      swap1\n      pop\n        /* \"#utility.yul\":7:82   */\n      swap1\n      jump\t// out\n        /* \"#utility.yul\":88:205   */\n    tag_57:\n        /* \"#utility.yul\":197:198   */\n      0x00\n        /* \"#utility.yul\":194:195   */\n      dup1\n        /* \"#utility.yul\":187:199   */\n      revert\n        /* \"#utility.yul\":211:328   */\n    tag_58:\n        /* \"#utility.yul\":320:321   */\n      0x00\n        /* \"#utility.yul\":317:318   */\n      dup1\n        /* \"#utility.yul\":310:322   */\n      revert\n        /* \"#utility.yul\":334:460   */\n    tag_59:\n        /* \"#utility.yul\":371:378   */\n      0x00\n        /* \"#utility.yul\":411:453   */\n      0xffffffffffffffffffffffffffffffffffffffff\n        /* \"#utility.yul\":404:409   */\n      dup3\n        /* \"#utility.yul\":400:454   */\n      and\n        /* \"#utility.yul\":389:454   */\n      swap1\n      pop\n        /* \"#utility.yul\":334:460   */\n      swap2\n      swap1\n      pop\n      jump\t// out\n        /* \"#utility.yul\":466:562   */\n    tag_60:\n        /* \"#utility.yul\":503:510   */\n      0x00\n        /* \"#utility.yul\":532:556   */\n      tag_100\n        /* \"#utility.yul\":550:555   */\n      dup3\n        /* \"#utility.yul\":532:556   */\n      tag_59\n      jump\t// in\n    tag_100:\n        /* \"#utility.yul\":521:556   */\n      swap1\n      pop\n        /* \"#utility.yul\":466:562   */\n      swap2\n      swap1\n      pop\n      jump\t// out\n        /* \"#utility.yul\":568:690   */\n    tag_61:\n        /* \"#utility.yul\":641:665   */\n      tag_102\n        /* \"#utility.yul\":659:664   */\n      dup2\n        /* \"#utility.yul\":641:665   */\n      tag_60\n      jump\t// in\n    tag_102:\n        /* \"#utility.yul\":634:639   */\n      dup2\n        /* \"#utility.yul\":631:666   */\n      eq\n        /* \"#utility.yul\":621:684   */\n      tag_103\n      jumpi\n        /* \"#utility.yul\":680:681   */\n      0x00\n        /* \"#utility.yul\":677:678   */\n      dup1\n        /* \"#utility.yul\":670:682   */\n      revert\n        /* \"#utility.yul\":621:684   */\n    tag_103:\n        /* \"#utility.yul\":568:690   */\n      pop\n      jump\t// out\n        /* \"#utility.yul\":696:835   */\n    tag_62:\n        /* \"#utility.yul\":742:747   */\n      0x00\n        /* \"#utility.yul\":780:786   */\n      dup2\n        /* \"#utility.yul\":767:787   */\n      calldataload\n        /* \"#utility.yul\":758:787   */\n      swap1\n      pop\n        /* \"#utility.yul\":796:829   */\n      tag_105\n        /* \"#utility.yul\":823:828   */\n      dup2\n        /* \"#utility.yul\":796:829   */\n      tag_61\n      jump\t// in\n    tag_105:\n        /* \"#utility.yul\":696:835   */\n      swap3\n      swap2\n      pop\n      pop\n      jump\t// out\n        /* \"#utility.yul\":841:1170   */\n    tag_8:\n        /* \"#utility.yul\":900:906   */\n      0x00\n        /* \"#utility.yul\":949:951   */\n      0x20\n        /* \"#utility.yul\":937:946   */\n      dup3\n        /* \"#utility.yul\":928:935   */\n      dup5\n        /* \"#utility.yul\":924:947   */\n      sub\n        /* \"#utility.yul\":920:952   */\n      slt\n        /* \"#utility.yul\":917:1036   */\n      iszero\n      tag_107\n      jumpi\n        /* \"#utility.yul\":955:1034   */\n      tag_108\n      tag_57\n      jump\t// in\n    tag_108:\n        /* \"#utility.yul\":917:1036   */\n    tag_107:\n        /* \"#utility.yul\":1075:1076   */\n      0x00\n        /* \"#utility.yul\":1100:1153   */\n      tag_109\n        /* \"#utility.yul\":1145:1152   */\n      dup5\n        /* \"#utility.yul\":1136:1142   */\n      dup3\n        /* \"#utility.yul\":1125:1134   */\n      dup6\n        /* \"#utility.yul\":1121:1143   */\n      add\n        /* \"#utility.yul\":1100:1153   */\n      tag_62\n      jump\t// in\n    tag_109:\n        /* \"#utility.yul\":1090:1153   */\n      swap2\n      pop\n        /* \"#utility.yul\":1046:1163   */\n      pop\n        /* \"#utility.yul\":841:1170   */\n      swap3\n      swap2\n      pop\n      pop\n      jump\t// out\n        /* \"#utility.yul\":1176:1253   */\n    tag_63:\n        /* \"#utility.yul\":1213:1220   */\n      0x00\n        /* \"#utility.yul\":1242:1247   */\n      dup2\n        /* \"#utility.yul\":1231:1247   */\n      swap1\n      pop\n        /* \"#utility.yul\":1176:1253   */\n      swap2\n      swap1\n      pop\n      jump\t// out\n        /* \"#utility.yul\":1259:1381   */\n    tag_64:\n        /* \"#utility.yul\":1332:1356   */\n      tag_112\n        /* \"#utility.yul\":1350:1355   */\n      dup2\n        /* \"#utility.yul\":1332:1356   */\n      tag_63\n      jump\t// in\n    tag_112:\n        /* \"#utility.yul\":1325:1330   */\n      dup2\n        /* \"#utility.yul\":1322:1357   */\n      eq\n        /* \"#utility.yul\":1312:1375   */\n      tag_113\n      jumpi\n        /* \"#utility.yul\":1371:1372   */\n      0x00\n        /* \"#utility.yul\":1368:1369   */\n      dup1\n        /* \"#utility.yul\":1361:1373   */\n      revert\n        /* \"#utility.yul\":1312:1375   */\n    tag_113:\n        /* \"#utility.yul\":1259:1381   */\n      pop\n      jump\t// out\n        /* \"#utility.yul\":1387:1526   */\n    tag_65:\n        /* \"#utility.yul\":1433:1438   */\n      0x00\n        /* \"#utility.yul\":1471:1477   */\n      dup2\n        /* \"#utility.yul\":1458:1478   */\n      calldataload\n        /* \"#utility.yul\":1449:1478   */\n      swap1\n      pop\n        /* \"#utility.yul\":1487:1520   */\n      tag_115\n        /* \"#utility.yul\":1514:1519   */\n      dup2\n        /* \"#utility.yul\":1487:1520   */\n      tag_64\n      jump\t// in\n    tag_115:\n        /* \"#utility.yul\":1387:1526   */\n      swap3\n      swap2\n      pop\n      pop\n      jump\t// out\n        /* \"#utility.yul\":1532:1861   */\n    tag_12:\n        /* \"#utility.yul\":1591:1597   */\n      0x00\n        /* \"#utility.yul\":1640:1642   */\n      0x20\n        /* \"#utility.yul\":1628:1637   */\n      dup3\n        /* \"#utility.yul\":1619:1626   */\n      dup5\n        /* \"#utility.yul\":1615:1638   */\n      sub\n        /* \"#utility.yul\":1611:1643   */\n      slt\n        /* \"#utility.yul\":1608:1727   */\n      iszero\n      tag_117\n      jumpi\n        /* \"#utility.yul\":1646:1725   */\n      tag_118\n      tag_57\n      jump\t// in\n    tag_118:\n        /* \"#utility.yul\":1608:1727   */\n    tag_117:\n        /* \"#utility.yul\":1766:1767   */\n      0x00\n        /* \"#utility.yul\":1791:1844   */\n      tag_119\n        /* \"#utility.yul\":1836:1843   */\n      dup5\n        /* \"#utility.yul\":1827:1833   */\n      dup3\n        /* \"#utility.yul\":1816:1825   */\n      dup6\n        /* \"#utility.yul\":1812:1834   */\n      add\n        /* \"#utility.yul\":1791:1844   */\n      tag_65\n      jump\t// in\n    tag_119:\n        /* \"#utility.yul\":1781:1844   */\n      swap2\n      pop\n        /* \"#utility.yul\":1737:1854   */\n      pop\n        /* \"#utility.yul\":1532:1861   */\n      swap3\n      swap2\n      pop\n      pop\n      jump\t// out\n        /* \"#utility.yul\":1867:1927   */\n    tag_66:\n        /* \"#utility.yul\":1895:1898   */\n      0x00\n        /* \"#utility.yul\":1916:1921   */\n      dup2\n        /* \"#utility.yul\":1909:1921   */\n      swap1\n      pop\n        /* \"#utility.yul\":1867:1927   */\n      swap2\n      swap1\n      pop\n      jump\t// out\n        /* \"#utility.yul\":1933:2075   */\n    tag_67:\n        /* \"#utility.yul\":1983:1992   */\n      0x00\n        /* \"#utility.yul\":2016:2069   */\n      tag_122\n        /* \"#utility.yul\":2034:2068   */\n      tag_123\n        /* \"#utility.yul\":2043:2067   */\n      tag_124\n        /* \"#utility.yul\":2061:2066   */\n      dup5\n        /* \"#utility.yul\":2043:2067   */\n      tag_59\n      jump\t// in\n    tag_124:\n        /* \"#utility.yul\":2034:2068   */\n      tag_66\n      jump\t// in\n    tag_123:\n        /* \"#utility.yul\":2016:2069   */\n      tag_59\n      jump\t// in\n    tag_122:\n        /* \"#utility.yul\":2003:2069   */\n      swap1\n      pop\n        /* \"#utility.yul\":1933:2075   */\n      swap2\n      swap1\n      pop\n      jump\t// out\n        /* \"#utility.yul\":2081:2207   */\n    tag_68:\n        /* \"#utility.yul\":2131:2140   */\n      0x00\n        /* \"#utility.yul\":2164:2201   */\n      tag_126\n        /* \"#utility.yul\":2195:2200   */\n      dup3\n        /* \"#utility.yul\":2164:2201   */\n      tag_67\n      jump\t// in\n    tag_126:\n        /* \"#utility.yul\":2151:2201   */\n      swap1\n      pop\n        /* \"#utility.yul\":2081:2207   */\n      swap2\n      swap1\n      pop\n      jump\t// out\n        /* \"#utility.yul\":2213:2350   */\n    tag_69:\n        /* \"#utility.yul\":2274:2283   */\n      0x00\n        /* \"#utility.yul\":2307:2344   */\n      tag_128\n        /* \"#utility.yul\":2338:2343   */\n      dup3\n        /* \"#utility.yul\":2307:2344   */\n      tag_68\n      jump\t// in\n    tag_128:\n        /* \"#utility.yul\":2294:2344   */\n      swap1\n      pop\n        /* \"#utility.yul\":2213:2350   */\n      swap2\n      swap1\n      pop\n      jump\t// out\n        /* \"#utility.yul\":2356:2509   */\n    tag_70:\n        /* \"#utility.yul\":2454:2502   */\n      tag_130\n        /* \"#utility.yul\":2496:2501   */\n      dup2\n        /* \"#utility.yul\":2454:2502   */\n      tag_69\n      jump\t// in\n    tag_130:\n        /* \"#utility.yul\":2449:2452   */\n      dup3\n        /* \"#utility.yul\":2442:2503   */\n      mstore\n        /* \"#utility.yul\":2356:2509   */\n      pop\n      pop\n      jump\t// out\n        /* \"#utility.yul\":2515:2759   */\n    tag_17:\n        /* \"#utility.yul\":2619:2623   */\n      0x00\n        /* \"#utility.yul\":2657:2659   */\n      0x20\n        /* \"#utility.yul\":2646:2655   */\n      dup3\n        /* \"#utility.yul\":2642:2660   */\n      add\n        /* \"#utility.yul\":2634:2660   */\n      swap1\n      pop\n        /* \"#utility.yul\":2670:2752   */\n      tag_132\n        /* \"#utility.yul\":2749:2750   */\n      0x00\n        /* \"#utility.yul\":2738:2747   */\n      dup4\n        /* \"#utility.yul\":2734:2751   */\n      add\n        /* \"#utility.yul\":2725:2731   */\n      dup5\n        /* \"#utility.yul\":2670:2752   */\n      tag_70\n      jump\t// in\n    tag_132:\n        /* \"#utility.yul\":2515:2759   */\n      swap3\n      swap2\n      pop\n      pop\n      jump\t// out\n        /* \"#utility.yul\":2765:2883   */\n    tag_71:\n        /* \"#utility.yul\":2852:2876   */\n      tag_134\n        /* \"#utility.yul\":2870:2875   */\n      dup2\n        /* \"#utility.yul\":2852:2876   */\n      tag_60\n      jump\t// in\n    tag_134:\n        /* \"#utility.yul\":2847:2850   */\n      dup3\n        /* \"#utility.yul\":2840:2877   */\n      mstore\n        /* \"#utility.yul\":2765:2883   */\n      pop\n      pop\n      jump\t// out\n        /* \"#utility.yul\":2889:3111   */\n    tag_22:\n        /* \"#utility.yul\":2982:2986   */\n      0x00\n        /* \"#utility.yul\":3020:3022   */\n      0x20\n        /* \"#utility.yul\":3009:3018   */\n      dup3\n        /* \"#utility.yul\":3005:3023   */\n      add\n        /* \"#utility.yul\":2997:3023   */\n      swap1\n      pop\n        /* \"#utility.yul\":3033:3104   */\n      tag_136\n        /* \"#utility.yul\":3101:3102   */\n      0x00\n        /* \"#utility.yul\":3090:3099   */\n      dup4\n        /* \"#utility.yul\":3086:3103   */\n      add\n        /* \"#utility.yul\":3077:3083   */\n      dup5\n        /* \"#utility.yul\":3033:3104   */\n      tag_71\n      jump\t// in\n    tag_136:\n        /* \"#utility.yul\":2889:3111   */\n      swap3\n      swap2\n      pop\n      pop\n      jump\t// out\n        /* \"#utility.yul\":3117:3223   */\n    tag_72:\n        /* \"#utility.yul\":3161:3169   */\n      0x00\n        /* \"#utility.yul\":3210:3215   */\n      dup2\n        /* \"#utility.yul\":3205:3208   */\n      0xe0\n        /* \"#utility.yul\":3201:3216   */\n      shr\n        /* \"#utility.yul\":3180:3216   */\n      swap1\n      pop\n        /* \"#utility.yul\":3117:3223   */\n      swap2\n      swap1\n      pop\n      jump\t// out\n        /* \"#utility.yul\":3229:3412   */\n    tag_29:\n        /* \"#utility.yul\":3264:3267   */\n      0x00\n        /* \"#utility.yul\":3302:3303   */\n      0x03\n        /* \"#utility.yul\":3284:3300   */\n      returndatasize\n        /* \"#utility.yul\":3281:3304   */\n      gt\n        /* \"#utility.yul\":3278:3406   */\n      iszero\n      tag_139\n      jumpi\n        /* \"#utility.yul\":3340:3341   */\n      0x04\n        /* \"#utility.yul\":3337:3338   */\n      0x00\n        /* \"#utility.yul\":3334:3335   */\n      dup1\n        /* \"#utility.yul\":3319:3342   */\n      returndatacopy\n        /* \"#utility.yul\":3362:3396   */\n      tag_140\n        /* \"#utility.yul\":3393:3394   */\n      0x00\n        /* \"#utility.yul\":3387:3395   */\n      mload\n        /* \"#utility.yul\":3362:3396   */\n      tag_72\n      jump\t// in\n    tag_140:\n        /* \"#utility.yul\":3355:3396   */\n      swap1\n      pop\n        /* \"#utility.yul\":3278:3406   */\n    tag_139:\n        /* \"#utility.yul\":3229:3412   */\n      swap1\n      jump\t// out\n        /* \"#utility.yul\":3418:3520   */\n    tag_73:\n        /* \"#utility.yul\":3459:3465   */\n      0x00\n        /* \"#utility.yul\":3510:3512   */\n      0x1f\n        /* \"#utility.yul\":3506:3513   */\n      not\n        /* \"#utility.yul\":3501:3503   */\n      0x1f\n        /* \"#utility.yul\":3494:3499   */\n      dup4\n        /* \"#utility.yul\":3490:3504   */\n      add\n        /* \"#utility.yul\":3486:3514   */\n      and\n        /* \"#utility.yul\":3476:3514   */\n      swap1\n      pop\n        /* \"#utility.yul\":3418:3520   */\n      swap2\n      swap1\n      pop\n      jump\t// out\n        /* \"#utility.yul\":3526:3706   */\n    tag_74:\n        /* \"#utility.yul\":3574:3651   */\n      0x4e487b7100000000000000000000000000000000000000000000000000000000\n        /* \"#utility.yul\":3571:3572   */\n      0x00\n        /* \"#utility.yul\":3564:3652   */\n      mstore\n        /* \"#utility.yul\":3671:3675   */\n      0x41\n        /* \"#utility.yul\":3668:3669   */\n      0x04\n        /* \"#utility.yul\":3661:3676   */\n      mstore\n        /* \"#utility.yul\":3695:3699   */\n      0x24\n        /* \"#utility.yul\":3692:3693   */\n      0x00\n        /* \"#utility.yul\":3685:3700   */\n      revert\n        /* \"#utility.yul\":3712:3993   */\n    tag_75:\n        /* \"#utility.yul\":3795:3822   */\n      tag_144\n        /* \"#utility.yul\":3817:3821   */\n      dup3\n        /* \"#utility.yul\":3795:3822   */\n      tag_73\n      jump\t// in\n    tag_144:\n        /* \"#utility.yul\":3787:3793   */\n      dup2\n        /* \"#utility.yul\":3783:3823   */\n      add\n        /* \"#utility.yul\":3925:3931   */\n      dup2\n        /* \"#utility.yul\":3913:3923   */\n      dup2\n        /* \"#utility.yul\":3910:3932   */\n      lt\n        /* \"#utility.yul\":3889:3907   */\n      0xffffffffffffffff\n        /* \"#utility.yul\":3877:3887   */\n      dup3\n        /* \"#utility.yul\":3874:3908   */\n      gt\n        /* \"#utility.yul\":3871:3933   */\n      or\n        /* \"#utility.yul\":3868:3956   */\n      iszero\n      tag_145\n      jumpi\n        /* \"#utility.yul\":3936:3954   */\n      tag_146\n      tag_74\n      jump\t// in\n    tag_146:\n        /* \"#utility.yul\":3868:3956   */\n    tag_145:\n        /* \"#utility.yul\":3976:3986   */\n      dup1\n        /* \"#utility.yul\":3972:3974   */\n      0x40\n        /* \"#utility.yul\":3965:3987   */\n      mstore\n        /* \"#utility.yul\":3755:3993   */\n      pop\n        /* \"#utility.yul\":3712:3993   */\n      pop\n      pop\n      jump\t// out\n        /* \"#utility.yul\":3999:4710   */\n    tag_31:\n        /* \"#utility.yul\":4038:4041   */\n      0x00\n        /* \"#utility.yul\":4076:4080   */\n      0x44\n        /* \"#utility.yul\":4058:4074   */\n      returndatasize\n        /* \"#utility.yul\":4055:4081   */\n      lt\n        /* \"#utility.yul\":4084:4089   */\n      tag_147\n        /* \"#utility.yul\":4052:4091   */\n      jumpi\n        /* \"#utility.yul\":4113:4133   */\n      tag_149\n      tag_56\n      jump\t// in\n    tag_149:\n        /* \"#utility.yul\":4188:4189   */\n      0x04\n        /* \"#utility.yul\":4170:4186   */\n      returndatasize\n        /* \"#utility.yul\":4166:4190   */\n      sub\n        /* \"#utility.yul\":4163:4164   */\n      0x04\n        /* \"#utility.yul\":4157:4161   */\n      dup3\n        /* \"#utility.yul\":4142:4191   */\n      returndatacopy\n        /* \"#utility.yul\":4221:4225   */\n      dup1\n        /* \"#utility.yul\":4215:4226   */\n      mload\n        /* \"#utility.yul\":4320:4336   */\n      returndatasize\n        /* \"#utility.yul\":4313:4317   */\n      0x24\n        /* \"#utility.yul\":4305:4311   */\n      dup3\n        /* \"#utility.yul\":4301:4318   */\n      add\n        /* \"#utility.yul\":4298:4337   */\n      gt\n        /* \"#utility.yul\":4265:4283   */\n      0xffffffffffffffff\n        /* \"#utility.yul\":4257:4263   */\n      dup3\n        /* \"#utility.yul\":4254:4284   */\n      gt\n        /* \"#utility.yul\":4238:4351   */\n      or\n        /* \"#utility.yul\":4235:4381   */\n      iszero\n      tag_150\n      jumpi\n        /* \"#utility.yul\":4366:4371   */\n      pop\n      pop\n      jump(tag_147)\n        /* \"#utility.yul\":4235:4381   */\n    tag_150:\n        /* \"#utility.yul\":4412:4418   */\n      dup1\n        /* \"#utility.yul\":4406:4410   */\n      dup3\n        /* \"#utility.yul\":4402:4419   */\n      add\n        /* \"#utility.yul\":4448:4451   */\n      dup1\n        /* \"#utility.yul\":4442:4452   */\n      mload\n        /* \"#utility.yul\":4475:4493   */\n      0xffffffffffffffff\n        /* \"#utility.yul\":4467:4473   */\n      dup2\n        /* \"#utility.yul\":4464:4494   */\n      gt\n        /* \"#utility.yul\":4461:4504   */\n      iszero\n      tag_151\n      jumpi\n        /* \"#utility.yul\":4497:4502   */\n      pop\n      pop\n      pop\n      pop\n      jump(tag_147)\n        /* \"#utility.yul\":4461:4504   */\n    tag_151:\n        /* \"#utility.yul\":4545:4551   */\n      dup1\n        /* \"#utility.yul\":4538:4542   */\n      0x20\n        /* \"#utility.yul\":4533:4536   */\n      dup4\n        /* \"#utility.yul\":4529:4543   */\n      add\n        /* \"#utility.yul\":4525:4552   */\n      add\n        /* \"#utility.yul\":4604:4605   */\n      0x04\n        /* \"#utility.yul\":4586:4602   */\n      returndatasize\n        /* \"#utility.yul\":4582:4606   */\n      sub\n        /* \"#utility.yul\":4576:4580   */\n      dup6\n        /* \"#utility.yul\":4572:4607   */\n      add\n        /* \"#utility.yul\":4567:4570   */\n      dup2\n        /* \"#utility.yul\":4564:4608   */\n      gt\n        /* \"#utility.yul\":4561:4618   */\n      iszero\n      tag_152\n      jumpi\n        /* \"#utility.yul\":4611:4616   */\n      pop\n      pop\n      pop\n      pop\n      pop\n      jump(tag_147)\n        /* \"#utility.yul\":4561:4618   */\n    tag_152:\n        /* \"#utility.yul\":4628:4685   */\n      tag_153\n        /* \"#utility.yul\":4676:4682   */\n      dup3\n        /* \"#utility.yul\":4670:4674   */\n      0x20\n        /* \"#utility.yul\":4666:4683   */\n      add\n        /* \"#utility.yul\":4658:4664   */\n      dup6\n        /* \"#utility.yul\":4654:4684   */\n      add\n        /* \"#utility.yul\":4648:4652   */\n      dup7\n        /* \"#utility.yul\":4628:4685   */\n      tag_75\n      jump\t// in\n    tag_153:\n        /* \"#utility.yul\":4701:4704   */\n      dup3\n        /* \"#utility.yul\":4694:4704   */\n      swap6\n      pop\n        /* \"#utility.yul\":4042:4710   */\n      pop\n      pop\n      pop\n      pop\n      pop\n        /* \"#utility.yul\":3999:4710   */\n    tag_147:\n      swap1\n      jump\t// out\n        /* \"#utility.yul\":4716:4815   */\n    tag_76:\n        /* \"#utility.yul\":4768:4774   */\n      0x00\n        /* \"#utility.yul\":4802:4807   */\n      dup2\n        /* \"#utility.yul\":4796:4808   */\n      mload\n        /* \"#utility.yul\":4786:4808   */\n      swap1\n      pop\n        /* \"#utility.yul\":4716:4815   */\n      swap2\n      swap1\n      pop\n      jump\t// out\n        /* \"#utility.yul\":4821:4990   */\n    tag_77:\n        /* \"#utility.yul\":4905:4916   */\n      0x00\n        /* \"#utility.yul\":4939:4945   */\n      dup3\n        /* \"#utility.yul\":4934:4937   */\n      dup3\n        /* \"#utility.yul\":4927:4946   */\n      mstore\n        /* \"#utility.yul\":4979:4983   */\n      0x20\n        /* \"#utility.yul\":4974:4977   */\n      dup3\n        /* \"#utility.yul\":4970:4984   */\n      add\n        /* \"#utility.yul\":4955:4984   */\n      swap1\n      pop\n        /* \"#utility.yul\":4821:4990   */\n      swap3\n      swap2\n      pop\n      pop\n      jump\t// out\n        /* \"#utility.yul\":4996:5242   */\n    tag_78:\n        /* \"#utility.yul\":5077:5078   */\n      0x00\n        /* \"#utility.yul\":5087:5200   */\n    tag_157:\n        /* \"#utility.yul\":5101:5107   */\n      dup4\n        /* \"#utility.yul\":5098:5099   */\n      dup2\n        /* \"#utility.yul\":5095:5108   */\n      lt\n        /* \"#utility.yul\":5087:5200   */\n      iszero\n      tag_159\n      jumpi\n        /* \"#utility.yul\":5186:5187   */\n      dup1\n        /* \"#utility.yul\":5181:5184   */\n      dup3\n        /* \"#utility.yul\":5177:5188   */\n      add\n        /* \"#utility.yul\":5171:5189   */\n      mload\n        /* \"#utility.yul\":5167:5168   */\n      dup2\n        /* \"#utility.yul\":5162:5165   */\n      dup5\n        /* \"#utility.yul\":5158:5169   */\n      add\n        /* \"#utility.yul\":5151:5190   */\n      mstore\n        /* \"#utility.yul\":5123:5125   */\n      0x20\n        /* \"#utility.yul\":5120:5121   */\n      dup2\n        /* \"#utility.yul\":5116:5126   */\n      add\n        /* \"#utility.yul\":5111:5126   */\n      swap1\n      pop\n        /* \"#utility.yul\":5087:5200   */\n      jump(tag_157)\n    tag_159:\n        /* \"#utility.yul\":5234:5235   */\n      0x00\n        /* \"#utility.yul\":5225:5231   */\n      dup5\n        /* \"#utility.yul\":5220:5223   */\n      dup5\n        /* \"#utility.yul\":5216:5232   */\n      add\n        /* \"#utility.yul\":5209:5236   */\n      mstore\n        /* \"#utility.yul\":5058:5242   */\n      pop\n        /* \"#utility.yul\":4996:5242   */\n      pop\n      pop\n      pop\n      jump\t// out\n        /* \"#utility.yul\":5248:5625   */\n    tag_79:\n        /* \"#utility.yul\":5336:5339   */\n      0x00\n        /* \"#utility.yul\":5364:5403   */\n      tag_161\n        /* \"#utility.yul\":5397:5402   */\n      dup3\n        /* \"#utility.yul\":5364:5403   */\n      tag_76\n      jump\t// in\n    tag_161:\n        /* \"#utility.yul\":5419:5490   */\n      tag_162\n        /* \"#utility.yul\":5483:5489   */\n      dup2\n        /* \"#utility.yul\":5478:5481   */\n      dup6\n        /* \"#utility.yul\":5419:5490   */\n      tag_77\n      jump\t// in\n    tag_162:\n        /* \"#utility.yul\":5412:5490   */\n      swap4\n      pop\n        /* \"#utility.yul\":5499:5564   */\n      tag_163\n        /* \"#utility.yul\":5557:5563   */\n      dup2\n        /* \"#utility.yul\":5552:5555   */\n      dup6\n        /* \"#utility.yul\":5545:5549   */\n      0x20\n        /* \"#utility.yul\":5538:5543   */\n      dup7\n        /* \"#utility.yul\":5534:5550   */\n      add\n        /* \"#utility.yul\":5499:5564   */\n      tag_78\n      jump\t// in\n    tag_163:\n        /* \"#utility.yul\":5589:5618   */\n      tag_164\n        /* \"#utility.yul\":5611:5617   */\n      dup2\n        /* \"#utility.yul\":5589:5618   */\n      tag_73\n      jump\t// in\n    tag_164:\n        /* \"#utility.yul\":5584:5587   */\n      dup5\n        /* \"#utility.yul\":5580:5619   */\n      add\n        /* \"#utility.yul\":5573:5619   */\n      swap2\n      pop\n        /* \"#utility.yul\":5340:5625   */\n      pop\n        /* \"#utility.yul\":5248:5625   */\n      swap3\n      swap2\n      pop\n      pop\n      jump\t// out\n        /* \"#utility.yul\":5631:5944   */\n    tag_34:\n        /* \"#utility.yul\":5744:5748   */\n      0x00\n        /* \"#utility.yul\":5782:5784   */\n      0x20\n        /* \"#utility.yul\":5771:5780   */\n      dup3\n        /* \"#utility.yul\":5767:5785   */\n      add\n        /* \"#utility.yul\":5759:5785   */\n      swap1\n      pop\n        /* \"#utility.yul\":5831:5840   */\n      dup2\n        /* \"#utility.yul\":5825:5829   */\n      dup2\n        /* \"#utility.yul\":5821:5841   */\n      sub\n        /* \"#utility.yul\":5817:5818   */\n      0x00\n        /* \"#utility.yul\":5806:5815   */\n      dup4\n        /* \"#utility.yul\":5802:5819   */\n      add\n        /* \"#utility.yul\":5795:5842   */\n      mstore\n        /* \"#utility.yul\":5859:5937   */\n      tag_166\n        /* \"#utility.yul\":5932:5936   */\n      dup2\n        /* \"#utility.yul\":5923:5929   */\n      dup5\n        /* \"#utility.yul\":5859:5937   */\n      tag_79\n      jump\t// in\n    tag_166:\n        /* \"#utility.yul\":5851:5937   */\n      swap1\n      pop\n        /* \"#utility.yul\":5631:5944   */\n      swap3\n      swap2\n      pop\n      pop\n      jump\t// out\n        /* \"#utility.yul\":5950:6048   */\n    tag_80:\n        /* \"#utility.yul\":6001:6007   */\n      0x00\n        /* \"#utility.yul\":6035:6040   */\n      dup2\n        /* \"#utility.yul\":6029:6041   */\n      mload\n        /* \"#utility.yul\":6019:6041   */\n      swap1\n      pop\n        /* \"#utility.yul\":5950:6048   */\n      swap2\n      swap1\n      pop\n      jump\t// out\n        /* \"#utility.yul\":6054:6222   */\n    tag_81:\n        /* \"#utility.yul\":6137:6148   */\n      0x00\n        /* \"#utility.yul\":6171:6177   */\n      dup3\n        /* \"#utility.yul\":6166:6169   */\n      dup3\n        /* \"#utility.yul\":6159:6178   */\n      mstore\n        /* \"#utility.yul\":6211:6215   */\n      0x20\n        /* \"#utility.yul\":6206:6209   */\n      dup3\n        /* \"#utility.yul\":6202:6216   */\n      add\n        /* \"#utility.yul\":6187:6216   */\n      swap1\n      pop\n        /* \"#utility.yul\":6054:6222   */\n      swap3\n      swap2\n      pop\n      pop\n      jump\t// out\n        /* \"#utility.yul\":6228:6601   */\n    tag_82:\n        /* \"#utility.yul\":6314:6317   */\n      0x00\n        /* \"#utility.yul\":6342:6380   */\n      tag_170\n        /* \"#utility.yul\":6374:6379   */\n      dup3\n        /* \"#utility.yul\":6342:6380   */\n      tag_80\n      jump\t// in\n    tag_170:\n        /* \"#utility.yul\":6396:6466   */\n      tag_171\n        /* \"#utility.yul\":6459:6465   */\n      dup2\n        /* \"#utility.yul\":6454:6457   */\n      dup6\n        /* \"#utility.yul\":6396:6466   */\n      tag_81\n      jump\t// in\n    tag_171:\n        /* \"#utility.yul\":6389:6466   */\n      swap4\n      pop\n        /* \"#utility.yul\":6475:6540   */\n      tag_172\n        /* \"#utility.yul\":6533:6539   */\n      dup2\n        /* \"#utility.yul\":6528:6531   */\n      dup6\n        /* \"#utility.yul\":6521:6525   */\n      0x20\n        /* \"#utility.yul\":6514:6519   */\n      dup7\n        /* \"#utility.yul\":6510:6526   */\n      add\n        /* \"#utility.yul\":6475:6540   */\n      tag_78\n      jump\t// in\n    tag_172:\n        /* \"#utility.yul\":6565:6594   */\n      tag_173\n        /* \"#utility.yul\":6587:6593   */\n      dup2\n        /* \"#utility.yul\":6565:6594   */\n      tag_73\n      jump\t// in\n    tag_173:\n        /* \"#utility.yul\":6560:6563   */\n      dup5\n        /* \"#utility.yul\":6556:6595   */\n      add\n        /* \"#utility.yul\":6549:6595   */\n      swap2\n      pop\n        /* \"#utility.yul\":6318:6601   */\n      pop\n        /* \"#utility.yul\":6228:6601   */\n      swap3\n      swap2\n      pop\n      pop\n      jump\t// out\n        /* \"#utility.yul\":6607:6916   */\n    tag_38:\n        /* \"#utility.yul\":6718:6722   */\n      0x00\n        /* \"#utility.yul\":6756:6758   */\n      0x20\n        /* \"#utility.yul\":6745:6754   */\n      dup3\n        /* \"#utility.yul\":6741:6759   */\n      add\n        /* \"#utility.yul\":6733:6759   */\n      swap1\n      pop\n        /* \"#utility.yul\":6805:6814   */\n      dup2\n        /* \"#utility.yul\":6799:6803   */\n      dup2\n        /* \"#utility.yul\":6795:6815   */\n      sub\n        /* \"#utility.yul\":6791:6792   */\n      0x00\n        /* \"#utility.yul\":6780:6789   */\n      dup4\n        /* \"#utility.yul\":6776:6793   */\n      add\n        /* \"#utility.yul\":6769:6816   */\n      mstore\n        /* \"#utility.yul\":6833:6909   */\n      tag_175\n        /* \"#utility.yul\":6904:6908   */\n      dup2\n        /* \"#utility.yul\":6895:6901   */\n      dup5\n        /* \"#utility.yul\":6833:6909   */\n      tag_82\n      jump\t// in\n    tag_175:\n        /* \"#utility.yul\":6825:6909   */\n      swap1\n      pop\n        /* \"#utility.yul\":6607:6916   */\n      swap3\n      swap2\n      pop\n      pop\n      jump\t// out\n        /* \"#utility.yul\":6922:7084   */\n    tag_83:\n        /* \"#utility.yul\":7062:7076   */\n      0x4d61696e20437265617465640000000000000000000000000000000000000000\n        /* \"#utility.yul\":7058:7059   */\n      0x00\n        /* \"#utility.yul\":7050:7056   */\n      dup3\n        /* \"#utility.yul\":7046:7060   */\n      add\n        /* \"#utility.yul\":7039:7077   */\n      mstore\n        /* \"#utility.yul\":6922:7084   */\n      pop\n      jump\t// out\n        /* \"#utility.yul\":7090:7456   */\n    tag_84:\n        /* \"#utility.yul\":7232:7235   */\n      0x00\n        /* \"#utility.yul\":7253:7320   */\n      tag_178\n        /* \"#utility.yul\":7317:7319   */\n      0x0c\n        /* \"#utility.yul\":7312:7315   */\n      dup4\n        /* \"#utility.yul\":7253:7320   */\n      tag_77\n      jump\t// in\n    tag_178:\n        /* \"#utility.yul\":7246:7320   */\n      swap2\n      pop\n        /* \"#utility.yul\":7329:7422   */\n      tag_179\n        /* \"#utility.yul\":7418:7421   */\n      dup3\n        /* \"#utility.yul\":7329:7422   */\n      tag_83\n      jump\t// in\n    tag_179:\n        /* \"#utility.yul\":7447:7449   */\n      0x20\n        /* \"#utility.yul\":7442:7445   */\n      dup3\n        /* \"#utility.yul\":7438:7450   */\n      add\n        /* \"#utility.yul\":7431:7450   */\n      swap1\n      pop\n        /* \"#utility.yul\":7090:7456   */\n      swap2\n      swap1\n      pop\n      jump\t// out\n        /* \"#utility.yul\":7462:7881   */\n    tag_41:\n        /* \"#utility.yul\":7628:7632   */\n      0x00\n        /* \"#utility.yul\":7666:7668   */\n      0x20\n        /* \"#utility.yul\":7655:7664   */\n      dup3\n        /* \"#utility.yul\":7651:7669   */\n      add\n        /* \"#utility.yul\":7643:7669   */\n      swap1\n      pop\n        /* \"#utility.yul\":7715:7724   */\n      dup2\n        /* \"#utility.yul\":7709:7713   */\n      dup2\n        /* \"#utility.yul\":7705:7725   */\n      sub\n        /* \"#utility.yul\":7701:7702   */\n      0x00\n        /* \"#utility.yul\":7690:7699   */\n      dup4\n        /* \"#utility.yul\":7686:7703   */\n      add\n        /* \"#utility.yul\":7679:7726   */\n      mstore\n        /* \"#utility.yul\":7743:7874   */\n      tag_181\n        /* \"#utility.yul\":7869:7873   */\n      dup2\n        /* \"#utility.yul\":7743:7874   */\n      tag_84\n      jump\t// in\n    tag_181:\n        /* \"#utility.yul\":7735:7874   */\n      swap1\n      pop\n        /* \"#utility.yul\":7462:7881   */\n      swap2\n      swap1\n      pop\n      jump\t// out\n        /* \"#utility.yul\":7887:8005   */\n    tag_85:\n        /* \"#utility.yul\":7974:7998   */\n      tag_183\n        /* \"#utility.yul\":7992:7997   */\n      dup2\n        /* \"#utility.yul\":7974:7998   */\n      tag_63\n      jump\t// in\n    tag_183:\n        /* \"#utility.yul\":7969:7972   */\n      dup3\n        /* \"#utility.yul\":7962:7999   */\n      mstore\n        /* \"#utility.yul\":7887:8005   */\n      pop\n      pop\n      jump\t// out\n        /* \"#utility.yul\":8011:8233   */\n    tag_44:\n        /* \"#utility.yul\":8104:8108   */\n      0x00\n        /* \"#utility.yul\":8142:8144   */\n      0x20\n        /* \"#utility.yul\":8131:8140   */\n      dup3\n        /* \"#utility.yul\":8127:8145   */\n      add\n        /* \"#utility.yul\":8119:8145   */\n      swap1\n      pop\n        /* \"#utility.yul\":8155:8226   */\n      tag_185\n        /* \"#utility.yul\":8223:8224   */\n      0x00\n        /* \"#utility.yul\":8212:8221   */\n      dup4\n        /* \"#utility.yul\":8208:8225   */\n      add\n        /* \"#utility.yul\":8199:8205   */\n      dup5\n        /* \"#utility.yul\":8155:8226   */\n      tag_85\n      jump\t// in\n    tag_185:\n        /* \"#utility.yul\":8011:8233   */\n      swap3\n      swap2\n      pop\n      pop\n      jump\t// out\n        /* \"#utility.yul\":8239:8356   */\n    tag_86:\n        /* \"#utility.yul\":8348:8349   */\n      0x00\n        /* \"#utility.yul\":8345:8346   */\n      dup1\n        /* \"#utility.yul\":8338:8350   */\n      revert\n        /* \"#utility.yul\":8362:8479   */\n    tag_87:\n        /* \"#utility.yul\":8471:8472   */\n      0x00\n        /* \"#utility.yul\":8468:8469   */\n      dup1\n        /* \"#utility.yul\":8461:8473   */\n      revert\n        /* \"#utility.yul\":8485:8614   */\n    tag_88:\n        /* \"#utility.yul\":8519:8525   */\n      0x00\n        /* \"#utility.yul\":8546:8566   */\n      tag_189\n      tag_56\n      jump\t// in\n    tag_189:\n        /* \"#utility.yul\":8536:8566   */\n      swap1\n      pop\n        /* \"#utility.yul\":8575:8608   */\n      tag_190\n        /* \"#utility.yul\":8603:8607   */\n      dup3\n        /* \"#utility.yul\":8595:8601   */\n      dup3\n        /* \"#utility.yul\":8575:8608   */\n      tag_75\n      jump\t// in\n    tag_190:\n        /* \"#utility.yul\":8485:8614   */\n      swap2\n      swap1\n      pop\n      jump\t// out\n        /* \"#utility.yul\":8620:8928   */\n    tag_89:\n        /* \"#utility.yul\":8682:8686   */\n      0x00\n        /* \"#utility.yul\":8772:8790   */\n      0xffffffffffffffff\n        /* \"#utility.yul\":8764:8770   */\n      dup3\n        /* \"#utility.yul\":8761:8791   */\n      gt\n        /* \"#utility.yul\":8758:8814   */\n      iszero\n      tag_192\n      jumpi\n        /* \"#utility.yul\":8794:8812   */\n      tag_193\n      tag_74\n      jump\t// in\n    tag_193:\n        /* \"#utility.yul\":8758:8814   */\n    tag_192:\n        /* \"#utility.yul\":8832:8861   */\n      tag_194\n        /* \"#utility.yul\":8854:8860   */\n      dup3\n        /* \"#utility.yul\":8832:8861   */\n      tag_73\n      jump\t// in\n    tag_194:\n        /* \"#utility.yul\":8824:8861   */\n      swap1\n      pop\n        /* \"#utility.yul\":8916:8920   */\n      0x20\n        /* \"#utility.yul\":8910:8914   */\n      dup2\n        /* \"#utility.yul\":8906:8921   */\n      add\n        /* \"#utility.yul\":8898:8921   */\n      swap1\n      pop\n        /* \"#utility.yul\":8620:8928   */\n      swap2\n      swap1\n      pop\n      jump\t// out\n        /* \"#utility.yul\":8934:9368   */\n    tag_90:\n        /* \"#utility.yul\":9023:9028   */\n      0x00\n        /* \"#utility.yul\":9048:9114   */\n      tag_196\n        /* \"#utility.yul\":9064:9113   */\n      tag_197\n        /* \"#utility.yul\":9106:9112   */\n      dup5\n        /* \"#utility.yul\":9064:9113   */\n      tag_89\n      jump\t// in\n    tag_197:\n        /* \"#utility.yul\":9048:9114   */\n      tag_88\n      jump\t// in\n    tag_196:\n        /* \"#utility.yul\":9039:9114   */\n      swap1\n      pop\n        /* \"#utility.yul\":9137:9143   */\n      dup3\n        /* \"#utility.yul\":9130:9135   */\n      dup2\n        /* \"#utility.yul\":9123:9144   */\n      mstore\n        /* \"#utility.yul\":9175:9179   */\n      0x20\n        /* \"#utility.yul\":9168:9173   */\n      dup2\n        /* \"#utility.yul\":9164:9180   */\n      add\n        /* \"#utility.yul\":9213:9216   */\n      dup5\n        /* \"#utility.yul\":9204:9210   */\n      dup5\n        /* \"#utility.yul\":9199:9202   */\n      dup5\n        /* \"#utility.yul\":9195:9211   */\n      add\n        /* \"#utility.yul\":9192:9217   */\n      gt\n        /* \"#utility.yul\":9189:9301   */\n      iszero\n      tag_198\n      jumpi\n        /* \"#utility.yul\":9220:9299   */\n      tag_199\n      tag_87\n      jump\t// in\n    tag_199:\n        /* \"#utility.yul\":9189:9301   */\n    tag_198:\n        /* \"#utility.yul\":9310:9362   */\n      tag_200\n        /* \"#utility.yul\":9355:9361   */\n      dup5\n        /* \"#utility.yul\":9350:9353   */\n      dup3\n        /* \"#utility.yul\":9345:9348   */\n      dup6\n        /* \"#utility.yul\":9310:9362   */\n      tag_78\n      jump\t// in\n    tag_200:\n        /* \"#utility.yul\":9029:9368   */\n      pop\n        /* \"#utility.yul\":8934:9368   */\n      swap4\n      swap3\n      pop\n      pop\n      pop\n      jump\t// out\n        /* \"#utility.yul\":9388:9743   */\n    tag_91:\n        /* \"#utility.yul\":9455:9460   */\n      0x00\n        /* \"#utility.yul\":9504:9507   */\n      dup3\n        /* \"#utility.yul\":9497:9501   */\n      0x1f\n        /* \"#utility.yul\":9489:9495   */\n      dup4\n        /* \"#utility.yul\":9485:9502   */\n      add\n        /* \"#utility.yul\":9481:9508   */\n      slt\n        /* \"#utility.yul\":9471:9593   */\n      tag_202\n      jumpi\n        /* \"#utility.yul\":9512:9591   */\n      tag_203\n      tag_86\n      jump\t// in\n    tag_203:\n        /* \"#utility.yul\":9471:9593   */\n    tag_202:\n        /* \"#utility.yul\":9622:9628   */\n      dup2\n        /* \"#utility.yul\":9616:9629   */\n      mload\n        /* \"#utility.yul\":9647:9737   */\n      tag_204\n        /* \"#utility.yul\":9733:9736   */\n      dup5\n        /* \"#utility.yul\":9725:9731   */\n      dup3\n        /* \"#utility.yul\":9718:9722   */\n      0x20\n        /* \"#utility.yul\":9710:9716   */\n      dup7\n        /* \"#utility.yul\":9706:9723   */\n      add\n        /* \"#utility.yul\":9647:9737   */\n      tag_90\n      jump\t// in\n    tag_204:\n        /* \"#utility.yul\":9638:9737   */\n      swap2\n      pop\n        /* \"#utility.yul\":9461:9743   */\n      pop\n        /* \"#utility.yul\":9388:9743   */\n      swap3\n      swap2\n      pop\n      pop\n      jump\t// out\n        /* \"#utility.yul\":9749:10273   */\n    tag_47:\n        /* \"#utility.yul\":9829:9835   */\n      0x00\n        /* \"#utility.yul\":9878:9880   */\n      0x20\n        /* \"#utility.yul\":9866:9875   */\n      dup3\n        /* \"#utility.yul\":9857:9864   */\n      dup5\n        /* \"#utility.yul\":9853:9876   */\n      sub\n        /* \"#utility.yul\":9849:9881   */\n      slt\n        /* \"#utility.yul\":9846:9965   */\n      iszero\n      tag_206\n      jumpi\n        /* \"#utility.yul\":9884:9963   */\n      tag_207\n      tag_57\n      jump\t// in\n    tag_207:\n        /* \"#utility.yul\":9846:9965   */\n    tag_206:\n        /* \"#utility.yul\":10025:10026   */\n      0x00\n        /* \"#utility.yul\":10014:10023   */\n      dup3\n        /* \"#utility.yul\":10010:10027   */\n      add\n        /* \"#utility.yul\":10004:10028   */\n      mload\n        /* \"#utility.yul\":10055:10073   */\n      0xffffffffffffffff\n        /* \"#utility.yul\":10047:10053   */\n      dup2\n        /* \"#utility.yul\":10044:10074   */\n      gt\n        /* \"#utility.yul\":10041:10158   */\n      iszero\n      tag_208\n      jumpi\n        /* \"#utility.yul\":10077:10156   */\n      tag_209\n      tag_58\n      jump\t// in\n    tag_209:\n        /* \"#utility.yul\":10041:10158   */\n    tag_208:\n        /* \"#utility.yul\":10182:10256   */\n      tag_210\n        /* \"#utility.yul\":10248:10255   */\n      dup5\n        /* \"#utility.yul\":10239:10245   */\n      dup3\n        /* \"#utility.yul\":10228:10237   */\n      dup6\n        /* \"#utility.yul\":10224:10246   */\n      add\n        /* \"#utility.yul\":10182:10256   */\n      tag_91\n      jump\t// in\n    tag_210:\n        /* \"#utility.yul\":10172:10256   */\n      swap2\n      pop\n        /* \"#utility.yul\":9975:10266   */\n      pop\n        /* \"#utility.yul\":9749:10273   */\n      swap3\n      swap2\n      pop\n      pop\n      jump\t// out\n        /* \"#utility.yul\":10279:10449   */\n    tag_92:\n        /* \"#utility.yul\":10419:10441   */\n      0x45787465726e616c2063616c6c206661696c6564000000000000000000000000\n        /* \"#utility.yul\":10415:10416   */\n      0x00\n        /* \"#utility.yul\":10407:10413   */\n      dup3\n        /* \"#utility.yul\":10403:10417   */\n      add\n        /* \"#utility.yul\":10396:10442   */\n      mstore\n        /* \"#utility.yul\":10279:10449   */\n      pop\n      jump\t// out\n        /* \"#utility.yul\":10455:10821   */\n    tag_93:\n        /* \"#utility.yul\":10597:10600   */\n      0x00\n        /* \"#utility.yul\":10618:10685   */\n      tag_213\n        /* \"#utility.yul\":10682:10684   */\n      0x14\n        /* \"#utility.yul\":10677:10680   */\n      dup4\n        /* \"#utility.yul\":10618:10685   */\n      tag_77\n      jump\t// in\n    tag_213:\n        /* \"#utility.yul\":10611:10685   */\n      swap2\n      pop\n        /* \"#utility.yul\":10694:10787   */\n      tag_214\n        /* \"#utility.yul\":10783:10786   */\n      dup3\n        /* \"#utility.yul\":10694:10787   */\n      tag_92\n      jump\t// in\n    tag_214:\n        /* \"#utility.yul\":10812:10814   */\n      0x20\n        /* \"#utility.yul\":10807:10810   */\n      dup3\n        /* \"#utility.yul\":10803:10815   */\n      add\n        /* \"#utility.yul\":10796:10815   */\n      swap1\n      pop\n        /* \"#utility.yul\":10455:10821   */\n      swap2\n      swap1\n      pop\n      jump\t// out\n        /* \"#utility.yul\":10827:11246   */\n    tag_53:\n        /* \"#utility.yul\":10993:10997   */\n      0x00\n        /* \"#utility.yul\":11031:11033   */\n      0x20\n        /* \"#utility.yul\":11020:11029   */\n      dup3\n        /* \"#utility.yul\":11016:11034   */\n      add\n        /* \"#utility.yul\":11008:11034   */\n      swap1\n      pop\n        /* \"#utility.yul\":11080:11089   */\n      dup2\n        /* \"#utility.yul\":11074:11078   */\n      dup2\n        /* \"#utility.yul\":11070:11090   */\n      sub\n        /* \"#utility.yul\":11066:11067   */\n      0x00\n        /* \"#utility.yul\":11055:11064   */\n      dup4\n        /* \"#utility.yul\":11051:11068   */\n      add\n        /* \"#utility.yul\":11044:11091   */\n      mstore\n        /* \"#utility.yul\":11108:11239   */\n      tag_216\n        /* \"#utility.yul\":11234:11238   */\n      dup2\n        /* \"#utility.yul\":11108:11239   */\n      tag_93\n      jump\t// in\n    tag_216:\n        /* \"#utility.yul\":11100:11239   */\n      swap1\n      pop\n        /* \"#utility.yul\":10827:11246   */\n      swap2\n      swap1\n      pop\n      jump\t// out\n    stop\n\n    sub_0: assembly {\n            /* \"contracts/try_catch.sol\":63:562  contract Main{... */\n          mstore(0x40, 0x80)\n            /* \"contracts/try_catch.sol\":108:413  constructor(address _owner){... */\n          callvalue\n          dup1\n          iszero\n          tag_1\n          jumpi\n          0x00\n          dup1\n          revert\n        tag_1:\n          pop\n          mload(0x40)\n          sub(codesize, bytecodeSize)\n          dup1\n          bytecodeSize\n          dup4\n          codecopy\n          dup2\n          dup2\n          add\n          0x40\n          mstore\n          dup2\n          add\n          swap1\n          tag_2\n          swap2\n          swap1\n          tag_3\n          jump\t// in\n        tag_2:\n            /* \"contracts/try_catch.sol\":168:169  0 */\n          0x00\n            /* \"contracts/try_catch.sol\":150:170  _owner != address(0) */\n          0xffffffffffffffffffffffffffffffffffffffff\n          and\n            /* \"contracts/try_catch.sol\":150:156  _owner */\n          dup2\n            /* \"contracts/try_catch.sol\":150:170  _owner != address(0) */\n          0xffffffffffffffffffffffffffffffffffffffff\n          and\n          sub\n            /* \"contracts/try_catch.sol\":142:190  require(_owner != address(0), \"Invalid Address\") */\n          tag_6\n          jumpi\n          mload(0x40)\n          0x08c379a000000000000000000000000000000000000000000000000000000000\n          dup2\n          mstore\n          0x04\n          add\n          tag_7\n          swap1\n          tag_8\n          jump\t// in\n        tag_7:\n          mload(0x40)\n          dup1\n          swap2\n          sub\n          swap1\n          revert\n        tag_6:\n            /* \"contracts/try_catch.sol\":268:310  0x0000000000000000000000000000000000000001 */\n          0x01\n            /* \"contracts/try_catch.sol\":258:310  _owner != 0x0000000000000000000000000000000000000001 */\n          0xffffffffffffffffffffffffffffffffffffffff\n          and\n            /* \"contracts/try_catch.sol\":258:264  _owner */\n          dup2\n            /* \"contracts/try_catch.sol\":258:310  _owner != 0x0000000000000000000000000000000000000001 */\n          0xffffffffffffffffffffffffffffffffffffffff\n          and\n          sub\n            /* \"contracts/try_catch.sol\":251:311  assert(_owner != 0x0000000000000000000000000000000000000001) */\n          tag_9\n          jumpi\n          tag_10\n          tag_11\n          jump\t// in\n        tag_10:\n        tag_9:\n            /* \"contracts/try_catch.sol\":327:333  _owner */\n          dup1\n            /* \"contracts/try_catch.sol\":319:324  owner */\n          0x00\n          dup1\n            /* \"contracts/try_catch.sol\":319:333  owner = _owner */\n          0x0100\n          exp\n          dup2\n          sload\n          dup2\n          0xffffffffffffffffffffffffffffffffffffffff\n          mul\n          not\n          and\n          swap1\n          dup4\n          0xffffffffffffffffffffffffffffffffffffffff\n          and\n          mul\n          or\n          swap1\n          sstore\n          pop\n            /* \"contracts/try_catch.sol\":108:413  constructor(address _owner){... */\n          pop\n            /* \"contracts/try_catch.sol\":63:562  contract Main{... */\n          jump(tag_12)\n            /* \"#utility.yul\":88:205   */\n        tag_14:\n            /* \"#utility.yul\":197:198   */\n          0x00\n            /* \"#utility.yul\":194:195   */\n          dup1\n            /* \"#utility.yul\":187:199   */\n          revert\n            /* \"#utility.yul\":334:460   */\n        tag_16:\n            /* \"#utility.yul\":371:378   */\n          0x00\n            /* \"#utility.yul\":411:453   */\n          0xffffffffffffffffffffffffffffffffffffffff\n            /* \"#utility.yul\":404:409   */\n          dup3\n            /* \"#utility.yul\":400:454   */\n          and\n            /* \"#utility.yul\":389:454   */\n          swap1\n          pop\n            /* \"#utility.yul\":334:460   */\n          swap2\n          swap1\n          pop\n          jump\t// out\n            /* \"#utility.yul\":466:562   */\n        tag_17:\n            /* \"#utility.yul\":503:510   */\n          0x00\n            /* \"#utility.yul\":532:556   */\n          tag_29\n            /* \"#utility.yul\":550:555   */\n          dup3\n            /* \"#utility.yul\":532:556   */\n          tag_16\n          jump\t// in\n        tag_29:\n            /* \"#utility.yul\":521:556   */\n          swap1\n          pop\n            /* \"#utility.yul\":466:562   */\n          swap2\n          swap1\n          pop\n          jump\t// out\n            /* \"#utility.yul\":568:690   */\n        tag_18:\n            /* \"#utility.yul\":641:665   */\n          tag_31\n            /* \"#utility.yul\":659:664   */\n          dup2\n            /* \"#utility.yul\":641:665   */\n          tag_17\n          jump\t// in\n        tag_31:\n            /* \"#utility.yul\":634:639   */\n          dup2\n            /* \"#utility.yul\":631:666   */\n          eq\n            /* \"#utility.yul\":621:684   */\n          tag_32\n          jumpi\n            /* \"#utility.yul\":680:681   */\n          0x00\n            /* \"#utility.yul\":677:678   */\n          dup1\n            /* \"#utility.yul\":670:682   */\n          revert\n            /* \"#utility.yul\":621:684   */\n        tag_32:\n            /* \"#utility.yul\":568:690   */\n          pop\n          jump\t// out\n            /* \"#utility.yul\":696:839   */\n        tag_19:\n            /* \"#utility.yul\":753:758   */\n          0x00\n            /* \"#utility.yul\":784:790   */\n          dup2\n            /* \"#utility.yul\":778:791   */\n          mload\n            /* \"#utility.yul\":769:791   */\n          swap1\n          pop\n            /* \"#utility.yul\":800:833   */\n          tag_34\n            /* \"#utility.yul\":827:832   */\n          dup2\n            /* \"#utility.yul\":800:833   */\n          tag_18\n          jump\t// in\n        tag_34:\n            /* \"#utility.yul\":696:839   */\n          swap3\n          swap2\n          pop\n          pop\n          jump\t// out\n            /* \"#utility.yul\":845:1196   */\n        tag_3:\n            /* \"#utility.yul\":915:921   */\n          0x00\n            /* \"#utility.yul\":964:966   */\n          0x20\n            /* \"#utility.yul\":952:961   */\n          dup3\n            /* \"#utility.yul\":943:950   */\n          dup5\n            /* \"#utility.yul\":939:962   */\n          sub\n            /* \"#utility.yul\":935:967   */\n          slt\n            /* \"#utility.yul\":932:1051   */\n          iszero\n          tag_36\n          jumpi\n            /* \"#utility.yul\":970:1049   */\n          tag_37\n          tag_14\n          jump\t// in\n        tag_37:\n            /* \"#utility.yul\":932:1051   */\n        tag_36:\n            /* \"#utility.yul\":1090:1091   */\n          0x00\n            /* \"#utility.yul\":1115:1179   */\n          tag_38\n            /* \"#utility.yul\":1171:1178   */\n          dup5\n            /* \"#utility.yul\":1162:1168   */\n          dup3\n            /* \"#utility.yul\":1151:1160   */\n          dup6\n            /* \"#utility.yul\":1147:1169   */\n          add\n            /* \"#utility.yul\":1115:1179   */\n          tag_19\n          jump\t// in\n        tag_38:\n            /* \"#utility.yul\":1105:1179   */\n          swap2\n          pop\n            /* \"#utility.yul\":1061:1189   */\n          pop\n            /* \"#utility.yul\":845:1196   */\n          swap3\n          swap2\n          pop\n          pop\n          jump\t// out\n            /* \"#utility.yul\":1202:1371   */\n        tag_20:\n            /* \"#utility.yul\":1286:1297   */\n          0x00\n            /* \"#utility.yul\":1320:1326   */\n          dup3\n            /* \"#utility.yul\":1315:1318   */\n          dup3\n            /* \"#utility.yul\":1308:1327   */\n          mstore\n            /* \"#utility.yul\":1360:1364   */\n          0x20\n            /* \"#utility.yul\":1355:1358   */\n          dup3\n            /* \"#utility.yul\":1351:1365   */\n          add\n            /* \"#utility.yul\":1336:1365   */\n          swap1\n          pop\n            /* \"#utility.yul\":1202:1371   */\n          swap3\n          swap2\n          pop\n          pop\n          jump\t// out\n            /* \"#utility.yul\":1377:1542   */\n        tag_21:\n            /* \"#utility.yul\":1517:1534   */\n          0x496e76616c696420416464726573730000000000000000000000000000000000\n            /* \"#utility.yul\":1513:1514   */\n          0x00\n            /* \"#utility.yul\":1505:1511   */\n          dup3\n            /* \"#utility.yul\":1501:1515   */\n          add\n            /* \"#utility.yul\":1494:1535   */\n          mstore\n            /* \"#utility.yul\":1377:1542   */\n          pop\n          jump\t// out\n            /* \"#utility.yul\":1548:1914   */\n        tag_22:\n            /* \"#utility.yul\":1690:1693   */\n          0x00\n            /* \"#utility.yul\":1711:1778   */\n          tag_42\n            /* \"#utility.yul\":1775:1777   */\n          0x0f\n            /* \"#utility.yul\":1770:1773   */\n          dup4\n            /* \"#utility.yul\":1711:1778   */\n          tag_20\n          jump\t// in\n        tag_42:\n            /* \"#utility.yul\":1704:1778   */\n          swap2\n          pop\n            /* \"#utility.yul\":1787:1880   */\n          tag_43\n            /* \"#utility.yul\":1876:1879   */\n          dup3\n            /* \"#utility.yul\":1787:1880   */\n          tag_21\n          jump\t// in\n        tag_43:\n            /* \"#utility.yul\":1905:1907   */\n          0x20\n            /* \"#utility.yul\":1900:1903   */\n          dup3\n            /* \"#utility.yul\":1896:1908   */\n          add\n            /* \"#utility.yul\":1889:1908   */\n          swap1\n          pop\n            /* \"#utility.yul\":1548:1914   */\n          swap2\n          swap1\n          pop\n          jump\t// out\n            /* \"#utility.yul\":1920:2339   */\n        tag_8:\n            /* \"#utility.yul\":2086:2090   */\n          0x00\n            /* \"#utility.yul\":2124:2126   */\n          0x20\n            /* \"#utility.yul\":2113:2122   */\n          dup3\n            /* \"#utility.yul\":2109:2127   */\n          add\n            /* \"#utility.yul\":2101:2127   */\n          swap1\n          pop\n            /* \"#utility.yul\":2173:2182   */\n          dup2\n            /* \"#utility.yul\":2167:2171   */\n          dup2\n            /* \"#utility.yul\":2163:2183   */\n          sub\n            /* \"#utility.yul\":2159:2160   */\n          0x00\n            /* \"#utility.yul\":2148:2157   */\n          dup4\n            /* \"#utility.yul\":2144:2161   */\n          add\n            /* \"#utility.yul\":2137:2184   */\n          mstore\n            /* \"#utility.yul\":2201:2332   */\n          tag_45\n            /* \"#utility.yul\":2327:2331   */\n          dup2\n            /* \"#utility.yul\":2201:2332   */\n          tag_22\n          jump\t// in\n        tag_45:\n            /* \"#utility.yul\":2193:2332   */\n          swap1\n          pop\n            /* \"#utility.yul\":1920:2339   */\n          swap2\n          swap1\n          pop\n          jump\t// out\n            /* \"#utility.yul\":2345:2525   */\n        tag_11:\n            /* \"#utility.yul\":2393:2470   */\n          0x4e487b7100000000000000000000000000000000000000000000000000000000\n            /* \"#utility.yul\":2390:2391   */\n          0x00\n            /* \"#utility.yul\":2383:2471   */\n          mstore\n            /* \"#utility.yul\":2490:2494   */\n          0x01\n            /* \"#utility.yul\":2487:2488   */\n          0x04\n            /* \"#utility.yul\":2480:2495   */\n          mstore\n            /* \"#utility.yul\":2514:2518   */\n          0x24\n            /* \"#utility.yul\":2511:2512   */\n          0x00\n            /* \"#utility.yul\":2504:2519   */\n          revert\n            /* \"contracts/try_catch.sol\":63:562  contract Main{... */\n        tag_12:\n          dataSize(sub_0)\n          dup1\n          dataOffset(sub_0)\n          0x00\n          codecopy\n          0x00\n          return\n        stop\n\n        sub_0: assembly {\n                /* \"contracts/try_catch.sol\":63:562  contract Main{... */\n              mstore(0x40, 0x80)\n              callvalue\n              dup1\n              iszero\n              tag_1\n              jumpi\n              0x00\n              dup1\n              revert\n            tag_1:\n              pop\n              jumpi(tag_2, lt(calldatasize, 0x04))\n              shr(0xe0, calldataload(0x00))\n              dup1\n              0x8da5cb5b\n              eq\n              tag_3\n              jumpi\n              dup1\n              0xa9bf5633\n              eq\n              tag_4\n              jumpi\n            tag_2:\n              0x00\n              dup1\n              revert\n                /* \"contracts/try_catch.sol\":81:101  address public owner */\n            tag_3:\n              tag_5\n              tag_6\n              jump\t// in\n            tag_5:\n              mload(0x40)\n              tag_7\n              swap2\n              swap1\n              tag_8\n              jump\t// in\n            tag_7:\n              mload(0x40)\n              dup1\n              swap2\n              sub\n              swap1\n              return\n                /* \"contracts/try_catch.sol\":419:559  function myFunc(uint x) public pure returns(string memory){... */\n            tag_4:\n              tag_9\n              0x04\n              dup1\n              calldatasize\n              sub\n              dup2\n              add\n              swap1\n              tag_10\n              swap2\n              swap1\n              tag_11\n              jump\t// in\n            tag_10:\n              tag_12\n              jump\t// in\n            tag_9:\n              mload(0x40)\n              tag_13\n              swap2\n              swap1\n              tag_14\n              jump\t// in\n            tag_13:\n              mload(0x40)\n              dup1\n              swap2\n              sub\n              swap1\n              return\n                /* \"contracts/try_catch.sol\":81:101  address public owner */\n            tag_6:\n              0x00\n              dup1\n              sload\n              swap1\n              0x0100\n              exp\n              swap1\n              div\n              0xffffffffffffffffffffffffffffffffffffffff\n              and\n              dup2\n              jump\t// out\n                /* \"contracts/try_catch.sol\":419:559  function myFunc(uint x) public pure returns(string memory){... */\n            tag_12:\n                /* \"contracts/try_catch.sol\":463:476  string memory */\n              0x60\n                /* \"contracts/try_catch.sol\":498:499  0 */\n              0x00\n                /* \"contracts/try_catch.sol\":493:494  x */\n              dup3\n                /* \"contracts/try_catch.sol\":493:499  x != 0 */\n              sub\n                /* \"contracts/try_catch.sol\":484:519  require (x != 0, \"REquire Failed!\") */\n              tag_16\n              jumpi\n              mload(0x40)\n              0x08c379a000000000000000000000000000000000000000000000000000000000\n              dup2\n              mstore\n              0x04\n              add\n              tag_17\n              swap1\n              tag_18\n              jump\t// in\n            tag_17:\n              mload(0x40)\n              dup1\n              swap2\n              sub\n              swap1\n              revert\n            tag_16:\n                /* \"contracts/try_catch.sol\":526:552  return \"myFunc was called\" */\n              mload(0x40)\n              dup1\n              0x40\n              add\n              0x40\n              mstore\n              dup1\n              0x11\n              dup2\n              mstore\n              0x20\n              add\n              0x6d7946756e63207761732063616c6c6564000000000000000000000000000000\n              dup2\n              mstore\n              pop\n              swap1\n              pop\n                /* \"contracts/try_catch.sol\":419:559  function myFunc(uint x) public pure returns(string memory){... */\n              swap2\n              swap1\n              pop\n              jump\t// out\n                /* \"#utility.yul\":7:133   */\n            tag_19:\n                /* \"#utility.yul\":44:51   */\n              0x00\n                /* \"#utility.yul\":84:126   */\n              0xffffffffffffffffffffffffffffffffffffffff\n                /* \"#utility.yul\":77:82   */\n              dup3\n                /* \"#utility.yul\":73:127   */\n              and\n                /* \"#utility.yul\":62:127   */\n              swap1\n              pop\n                /* \"#utility.yul\":7:133   */\n              swap2\n              swap1\n              pop\n              jump\t// out\n                /* \"#utility.yul\":139:235   */\n            tag_20:\n                /* \"#utility.yul\":176:183   */\n              0x00\n                /* \"#utility.yul\":205:229   */\n              tag_38\n                /* \"#utility.yul\":223:228   */\n              dup3\n                /* \"#utility.yul\":205:229   */\n              tag_19\n              jump\t// in\n            tag_38:\n                /* \"#utility.yul\":194:229   */\n              swap1\n              pop\n                /* \"#utility.yul\":139:235   */\n              swap2\n              swap1\n              pop\n              jump\t// out\n                /* \"#utility.yul\":241:359   */\n            tag_21:\n                /* \"#utility.yul\":328:352   */\n              tag_40\n                /* \"#utility.yul\":346:351   */\n              dup2\n                /* \"#utility.yul\":328:352   */\n              tag_20\n              jump\t// in\n            tag_40:\n                /* \"#utility.yul\":323:326   */\n              dup3\n                /* \"#utility.yul\":316:353   */\n              mstore\n                /* \"#utility.yul\":241:359   */\n              pop\n              pop\n              jump\t// out\n                /* \"#utility.yul\":365:587   */\n            tag_8:\n                /* \"#utility.yul\":458:462   */\n              0x00\n                /* \"#utility.yul\":496:498   */\n              0x20\n                /* \"#utility.yul\":485:494   */\n              dup3\n                /* \"#utility.yul\":481:499   */\n              add\n                /* \"#utility.yul\":473:499   */\n              swap1\n              pop\n                /* \"#utility.yul\":509:580   */\n              tag_42\n                /* \"#utility.yul\":577:578   */\n              0x00\n                /* \"#utility.yul\":566:575   */\n              dup4\n                /* \"#utility.yul\":562:579   */\n              add\n                /* \"#utility.yul\":553:559   */\n              dup5\n                /* \"#utility.yul\":509:580   */\n              tag_21\n              jump\t// in\n            tag_42:\n                /* \"#utility.yul\":365:587   */\n              swap3\n              swap2\n              pop\n              pop\n              jump\t// out\n                /* \"#utility.yul\":674:791   */\n            tag_23:\n                /* \"#utility.yul\":783:784   */\n              0x00\n                /* \"#utility.yul\":780:781   */\n              dup1\n                /* \"#utility.yul\":773:785   */\n              revert\n                /* \"#utility.yul\":920:997   */\n            tag_25:\n                /* \"#utility.yul\":957:964   */\n              0x00\n                /* \"#utility.yul\":986:991   */\n              dup2\n                /* \"#utility.yul\":975:991   */\n              swap1\n              pop\n                /* \"#utility.yul\":920:997   */\n              swap2\n              swap1\n              pop\n              jump\t// out\n                /* \"#utility.yul\":1003:1125   */\n            tag_26:\n                /* \"#utility.yul\":1076:1100   */\n              tag_48\n                /* \"#utility.yul\":1094:1099   */\n              dup2\n                /* \"#utility.yul\":1076:1100   */\n              tag_25\n              jump\t// in\n            tag_48:\n                /* \"#utility.yul\":1069:1074   */\n              dup2\n                /* \"#utility.yul\":1066:1101   */\n              eq\n                /* \"#utility.yul\":1056:1119   */\n              tag_49\n              jumpi\n                /* \"#utility.yul\":1115:1116   */\n              0x00\n                /* \"#utility.yul\":1112:1113   */\n              dup1\n                /* \"#utility.yul\":1105:1117   */\n              revert\n                /* \"#utility.yul\":1056:1119   */\n            tag_49:\n                /* \"#utility.yul\":1003:1125   */\n              pop\n              jump\t// out\n                /* \"#utility.yul\":1131:1270   */\n            tag_27:\n                /* \"#utility.yul\":1177:1182   */\n              0x00\n                /* \"#utility.yul\":1215:1221   */\n              dup2\n                /* \"#utility.yul\":1202:1222   */\n              calldataload\n                /* \"#utility.yul\":1193:1222   */\n              swap1\n              pop\n                /* \"#utility.yul\":1231:1264   */\n              tag_51\n                /* \"#utility.yul\":1258:1263   */\n              dup2\n                /* \"#utility.yul\":1231:1264   */\n              tag_26\n              jump\t// in\n            tag_51:\n                /* \"#utility.yul\":1131:1270   */\n              swap3\n              swap2\n              pop\n              pop\n              jump\t// out\n                /* \"#utility.yul\":1276:1605   */\n            tag_11:\n                /* \"#utility.yul\":1335:1341   */\n              0x00\n                /* \"#utility.yul\":1384:1386   */\n              0x20\n                /* \"#utility.yul\":1372:1381   */\n              dup3\n                /* \"#utility.yul\":1363:1370   */\n              dup5\n                /* \"#utility.yul\":1359:1382   */\n              sub\n                /* \"#utility.yul\":1355:1387   */\n              slt\n                /* \"#utility.yul\":1352:1471   */\n              iszero\n              tag_53\n              jumpi\n                /* \"#utility.yul\":1390:1469   */\n              tag_54\n              tag_23\n              jump\t// in\n            tag_54:\n                /* \"#utility.yul\":1352:1471   */\n            tag_53:\n                /* \"#utility.yul\":1510:1511   */\n              0x00\n                /* \"#utility.yul\":1535:1588   */\n              tag_55\n                /* \"#utility.yul\":1580:1587   */\n              dup5\n                /* \"#utility.yul\":1571:1577   */\n              dup3\n                /* \"#utility.yul\":1560:1569   */\n              dup6\n                /* \"#utility.yul\":1556:1578   */\n              add\n                /* \"#utility.yul\":1535:1588   */\n              tag_27\n              jump\t// in\n            tag_55:\n                /* \"#utility.yul\":1525:1588   */\n              swap2\n              pop\n                /* \"#utility.yul\":1481:1598   */\n              pop\n                /* \"#utility.yul\":1276:1605   */\n              swap3\n              swap2\n              pop\n              pop\n              jump\t// out\n                /* \"#utility.yul\":1611:1710   */\n            tag_28:\n                /* \"#utility.yul\":1663:1669   */\n              0x00\n                /* \"#utility.yul\":1697:1702   */\n              dup2\n                /* \"#utility.yul\":1691:1703   */\n              mload\n                /* \"#utility.yul\":1681:1703   */\n              swap1\n              pop\n                /* \"#utility.yul\":1611:1710   */\n              swap2\n              swap1\n              pop\n              jump\t// out\n                /* \"#utility.yul\":1716:1885   */\n            tag_29:\n                /* \"#utility.yul\":1800:1811   */\n              0x00\n                /* \"#utility.yul\":1834:1840   */\n              dup3\n                /* \"#utility.yul\":1829:1832   */\n              dup3\n                /* \"#utility.yul\":1822:1841   */\n              mstore\n                /* \"#utility.yul\":1874:1878   */\n              0x20\n                /* \"#utility.yul\":1869:1872   */\n              dup3\n                /* \"#utility.yul\":1865:1879   */\n              add\n                /* \"#utility.yul\":1850:1879   */\n              swap1\n              pop\n                /* \"#utility.yul\":1716:1885   */\n              swap3\n              swap2\n              pop\n              pop\n              jump\t// out\n                /* \"#utility.yul\":1891:2137   */\n            tag_30:\n                /* \"#utility.yul\":1972:1973   */\n              0x00\n                /* \"#utility.yul\":1982:2095   */\n            tag_59:\n                /* \"#utility.yul\":1996:2002   */\n              dup4\n                /* \"#utility.yul\":1993:1994   */\n              dup2\n                /* \"#utility.yul\":1990:2003   */\n              lt\n                /* \"#utility.yul\":1982:2095   */\n              iszero\n              tag_61\n              jumpi\n                /* \"#utility.yul\":2081:2082   */\n              dup1\n                /* \"#utility.yul\":2076:2079   */\n              dup3\n                /* \"#utility.yul\":2072:2083   */\n              add\n                /* \"#utility.yul\":2066:2084   */\n              mload\n                /* \"#utility.yul\":2062:2063   */\n              dup2\n                /* \"#utility.yul\":2057:2060   */\n              dup5\n                /* \"#utility.yul\":2053:2064   */\n              add\n                /* \"#utility.yul\":2046:2085   */\n              mstore\n                /* \"#utility.yul\":2018:2020   */\n              0x20\n                /* \"#utility.yul\":2015:2016   */\n              dup2\n                /* \"#utility.yul\":2011:2021   */\n              add\n                /* \"#utility.yul\":2006:2021   */\n              swap1\n              pop\n                /* \"#utility.yul\":1982:2095   */\n              jump(tag_59)\n            tag_61:\n                /* \"#utility.yul\":2129:2130   */\n              0x00\n                /* \"#utility.yul\":2120:2126   */\n              dup5\n                /* \"#utility.yul\":2115:2118   */\n              dup5\n                /* \"#utility.yul\":2111:2127   */\n              add\n                /* \"#utility.yul\":2104:2131   */\n              mstore\n                /* \"#utility.yul\":1953:2137   */\n              pop\n                /* \"#utility.yul\":1891:2137   */\n              pop\n              pop\n              pop\n              jump\t// out\n                /* \"#utility.yul\":2143:2245   */\n            tag_31:\n                /* \"#utility.yul\":2184:2190   */\n              0x00\n                /* \"#utility.yul\":2235:2237   */\n              0x1f\n                /* \"#utility.yul\":2231:2238   */\n              not\n                /* \"#utility.yul\":2226:2228   */\n              0x1f\n                /* \"#utility.yul\":2219:2224   */\n              dup4\n                /* \"#utility.yul\":2215:2229   */\n              add\n                /* \"#utility.yul\":2211:2239   */\n              and\n                /* \"#utility.yul\":2201:2239   */\n              swap1\n              pop\n                /* \"#utility.yul\":2143:2245   */\n              swap2\n              swap1\n              pop\n              jump\t// out\n                /* \"#utility.yul\":2251:2628   */\n            tag_32:\n                /* \"#utility.yul\":2339:2342   */\n              0x00\n                /* \"#utility.yul\":2367:2406   */\n              tag_64\n                /* \"#utility.yul\":2400:2405   */\n              dup3\n                /* \"#utility.yul\":2367:2406   */\n              tag_28\n              jump\t// in\n            tag_64:\n                /* \"#utility.yul\":2422:2493   */\n              tag_65\n                /* \"#utility.yul\":2486:2492   */\n              dup2\n                /* \"#utility.yul\":2481:2484   */\n              dup6\n                /* \"#utility.yul\":2422:2493   */\n              tag_29\n              jump\t// in\n            tag_65:\n                /* \"#utility.yul\":2415:2493   */\n              swap4\n              pop\n                /* \"#utility.yul\":2502:2567   */\n              tag_66\n                /* \"#utility.yul\":2560:2566   */\n              dup2\n                /* \"#utility.yul\":2555:2558   */\n              dup6\n                /* \"#utility.yul\":2548:2552   */\n              0x20\n                /* \"#utility.yul\":2541:2546   */\n              dup7\n                /* \"#utility.yul\":2537:2553   */\n              add\n                /* \"#utility.yul\":2502:2567   */\n              tag_30\n              jump\t// in\n            tag_66:\n                /* \"#utility.yul\":2592:2621   */\n              tag_67\n                /* \"#utility.yul\":2614:2620   */\n              dup2\n                /* \"#utility.yul\":2592:2621   */\n              tag_31\n              jump\t// in\n            tag_67:\n                /* \"#utility.yul\":2587:2590   */\n              dup5\n                /* \"#utility.yul\":2583:2622   */\n              add\n                /* \"#utility.yul\":2576:2622   */\n              swap2\n              pop\n                /* \"#utility.yul\":2343:2628   */\n              pop\n                /* \"#utility.yul\":2251:2628   */\n              swap3\n              swap2\n              pop\n              pop\n              jump\t// out\n                /* \"#utility.yul\":2634:2947   */\n            tag_14:\n                /* \"#utility.yul\":2747:2751   */\n              0x00\n                /* \"#utility.yul\":2785:2787   */\n              0x20\n                /* \"#utility.yul\":2774:2783   */\n              dup3\n                /* \"#utility.yul\":2770:2788   */\n              add\n                /* \"#utility.yul\":2762:2788   */\n              swap1\n              pop\n                /* \"#utility.yul\":2834:2843   */\n              dup2\n                /* \"#utility.yul\":2828:2832   */\n              dup2\n                /* \"#utility.yul\":2824:2844   */\n              sub\n                /* \"#utility.yul\":2820:2821   */\n              0x00\n                /* \"#utility.yul\":2809:2818   */\n              dup4\n                /* \"#utility.yul\":2805:2822   */\n              add\n                /* \"#utility.yul\":2798:2845   */\n              mstore\n                /* \"#utility.yul\":2862:2940   */\n              tag_69\n                /* \"#utility.yul\":2935:2939   */\n              dup2\n                /* \"#utility.yul\":2926:2932   */\n              dup5\n                /* \"#utility.yul\":2862:2940   */\n              tag_32\n              jump\t// in\n            tag_69:\n                /* \"#utility.yul\":2854:2940   */\n              swap1\n              pop\n                /* \"#utility.yul\":2634:2947   */\n              swap3\n              swap2\n              pop\n              pop\n              jump\t// out\n                /* \"#utility.yul\":2953:3118   */\n            tag_33:\n                /* \"#utility.yul\":3093:3110   */\n              0x52457175697265204661696c6564210000000000000000000000000000000000\n                /* \"#utility.yul\":3089:3090   */\n              0x00\n                /* \"#utility.yul\":3081:3087   */\n              dup3\n                /* \"#utility.yul\":3077:3091   */\n              add\n                /* \"#utility.yul\":3070:3111   */\n              mstore\n                /* \"#utility.yul\":2953:3118   */\n              pop\n              jump\t// out\n                /* \"#utility.yul\":3124:3490   */\n            tag_34:\n                /* \"#utility.yul\":3266:3269   */\n              0x00\n                /* \"#utility.yul\":3287:3354   */\n              tag_72\n                /* \"#utility.yul\":3351:3353   */\n              0x0f\n                /* \"#utility.yul\":3346:3349   */\n              dup4\n                /* \"#utility.yul\":3287:3354   */\n              tag_29\n              jump\t// in\n            tag_72:\n                /* \"#utility.yul\":3280:3354   */\n              swap2\n              pop\n                /* \"#utility.yul\":3363:3456   */\n              tag_73\n                /* \"#utility.yul\":3452:3455   */\n              dup3\n                /* \"#utility.yul\":3363:3456   */\n              tag_33\n              jump\t// in\n            tag_73:\n                /* \"#utility.yul\":3481:3483   */\n              0x20\n                /* \"#utility.yul\":3476:3479   */\n              dup3\n                /* \"#utility.yul\":3472:3484   */\n              add\n                /* \"#utility.yul\":3465:3484   */\n              swap1\n              pop\n                /* \"#utility.yul\":3124:3490   */\n              swap2\n              swap1\n              pop\n              jump\t// out\n                /* \"#utility.yul\":3496:3915   */\n            tag_18:\n                /* \"#utility.yul\":3662:3666   */\n              0x00\n                /* \"#utility.yul\":3700:3702   */\n              0x20\n                /* \"#utility.yul\":3689:3698   */\n              dup3\n                /* \"#utility.yul\":3685:3703   */\n              add\n                /* \"#utility.yul\":3677:3703   */\n              swap1\n              pop\n                /* \"#utility.yul\":3749:3758   */\n              dup2\n                /* \"#utility.yul\":3743:3747   */\n              dup2\n                /* \"#utility.yul\":3739:3759   */\n              sub\n                /* \"#utility.yul\":3735:3736   */\n              0x00\n                /* \"#utility.yul\":3724:3733   */\n              dup4\n                /* \"#utility.yul\":3720:3737   */\n              add\n                /* \"#utility.yul\":3713:3760   */\n              mstore\n                /* \"#utility.yul\":3777:3908   */\n              tag_75\n                /* \"#utility.yul\":3903:3907   */\n              dup2\n                /* \"#utility.yul\":3777:3908   */\n              tag_34\n              jump\t// in\n            tag_75:\n                /* \"#utility.yul\":3769:3908   */\n              swap1\n              pop\n                /* \"#utility.yul\":3496:3915   */\n              swap2\n              swap1\n              pop\n              jump\t// out\n\n            auxdata: 0xa26469706673582212209cf9a4bc8d5653eea22619e46e976f9c9b040aa96f60455ddc2e93e6d474a0b964736f6c63430008120033\n        }\n    }\n\n    auxdata: 0xa264697066735822122014ab5a57833d3106162c5a091240c1096b45a747ada7cf3d38c57ce8f720dd9964736f6c63430008120033\n}\n\nsub_1: assembly {\n        /* \"contracts/try_catch.sol\":63:562  contract Main{... */\n      mstore(0x40, 0x80)\n        /* \"contracts/try_catch.sol\":108:413  constructor(address _owner){... */\n      callvalue\n      dup1\n      iszero\n      tag_1\n      jumpi\n      0x00\n      dup1\n      revert\n    tag_1:\n      pop\n      mload(0x40)\n      sub(codesize, bytecodeSize)\n      dup1\n      bytecodeSize\n      dup4\n      codecopy\n      dup2\n      dup2\n      add\n      0x40\n      mstore\n      dup2\n      add\n      swap1\n      tag_2\n      swap2\n      swap1\n      tag_3\n      jump\t// in\n    tag_2:\n        /* \"contracts/try_catch.sol\":168:169  0 */\n      0x00\n        /* \"contracts/try_catch.sol\":150:170  _owner != address(0) */\n      0xffffffffffffffffffffffffffffffffffffffff\n      and\n        /* \"contracts/try_catch.sol\":150:156  _owner */\n      dup2\n        /* \"contracts/try_catch.sol\":150:170  _owner != address(0) */\n      0xffffffffffffffffffffffffffffffffffffffff\n      and\n      sub\n        /* \"contracts/try_catch.sol\":142:190  require(_owner != address(0), \"Invalid Address\") */\n      tag_6\n      jumpi\n      mload(0x40)\n      0x08c379a000000000000000000000000000000000000000000000000000000000\n      dup2\n      mstore\n      0x04\n      add\n      tag_7\n      swap1\n      tag_8\n      jump\t// in\n    tag_7:\n      mload(0x40)\n      dup1\n      swap2\n      sub\n      swap1\n      revert\n    tag_6:\n        /* \"contracts/try_catch.sol\":268:310  0x0000000000000000000000000000000000000001 */\n      0x01\n        /* \"contracts/try_catch.sol\":258:310  _owner != 0x0000000000000000000000000000000000000001 */\n      0xffffffffffffffffffffffffffffffffffffffff\n      and\n        /* \"contracts/try_catch.sol\":258:264  _owner */\n      dup2\n        /* \"contracts/try_catch.sol\":258:310  _owner != 0x0000000000000000000000000000000000000001 */\n      0xffffffffffffffffffffffffffffffffffffffff\n      and\n      sub\n        /* \"contracts/try_catch.sol\":251:311  assert(_owner != 0x0000000000000000000000000000000000000001) */\n      tag_9\n      jumpi\n      tag_10\n      tag_11\n      jump\t// in\n    tag_10:\n    tag_9:\n        /* \"contracts/try_catch.sol\":327:333  _owner */\n      dup1\n        /* \"contracts/try_catch.sol\":319:324  owner */\n      0x00\n      dup1\n        /* \"contracts/try_catch.sol\":319:333  owner = _owner */\n      0x0100\n      exp\n      dup2\n      sload\n      dup2\n      0xffffffffffffffffffffffffffffffffffffffff\n      mul\n      not\n      and\n      swap1\n      dup4\n      0xffffffffffffffffffffffffffffffffffffffff\n      and\n      mul\n      or\n      swap1\n      sstore\n      pop\n        /* \"contracts/try_catch.sol\":108:413  constructor(address _owner){... */\n      pop\n        /* \"contracts/try_catch.sol\":63:562  contract Main{... */\n      jump(tag_12)\n        /* \"#utility.yul\":88:205   */\n    tag_14:\n        /* \"#utility.yul\":197:198   */\n      0x00\n        /* \"#utility.yul\":194:195   */\n      dup1\n        /* \"#utility.yul\":187:199   */\n      revert\n        /* \"#utility.yul\":334:460   */\n    tag_16:\n        /* \"#utility.yul\":371:378   */\n      0x00\n        /* \"#utility.yul\":411:453   */\n      0xffffffffffffffffffffffffffffffffffffffff\n        /* \"#utility.yul\":404:409   */\n      dup3\n        /* \"#utility.yul\":400:454   */\n      and\n        /* \"#utility.yul\":389:454   */\n      swap1\n      pop\n        /* \"#utility.yul\":334:460   */\n      swap2\n      swap1\n      pop\n      jump\t// out\n        /* \"#utility.yul\":466:562   */\n    tag_17:\n        /* \"#utility.yul\":503:510   */\n      0x00\n        /* \"#utility.yul\":532:556   */\n      tag_29\n        /* \"#utility.yul\":550:555   */\n      dup3\n        /* \"#utility.yul\":532:556   */\n      tag_16\n      jump\t// in\n    tag_29:\n        /* \"#utility.yul\":521:556   */\n      swap1\n      pop\n        /* \"#utility.yul\":466:562   */\n      swap2\n      swap1\n      pop\n      jump\t// out\n        /* \"#utility.yul\":568:690   */\n    tag_18:\n        /* \"#utility.yul\":641:665   */\n      tag_31\n        /* \"#utility.yul\":659:664   */\n      dup2\n        /* \"#utility.yul\":641:665   */\n      tag_17\n      jump\t// in\n    tag_31:\n        /* \"#utility.yul\":634:639   */\n      dup2\n        /* \"#utility.yul\":631:666   */\n      eq\n        /* \"#utility.yul\":621:684   */\n      tag_32\n      jumpi\n        /* \"#utility.yul\":680:681   */\n      0x00\n        /* \"#utility.yul\":677:678   */\n      dup1\n        /* \"#utility.yul\":670:682   */\n      revert\n        /* \"#utility.yul\":621:684   */\n    tag_32:\n        /* \"#utility.yul\":568:690   */\n      pop\n      jump\t// out\n        /* \"#utility.yul\":696:839   */\n    tag_19:\n        /* \"#utility.yul\":753:758   */\n      0x00\n        /* \"#utility.yul\":784:790   */\n      dup2\n        /* \"#utility.yul\":778:791   */\n      mload\n        /* \"#utility.yul\":769:791   */\n      swap1\n      pop\n        /* \"#utility.yul\":800:833   */\n      tag_34\n        /* \"#utility.yul\":827:832   */\n      dup2\n        /* \"#utility.yul\":800:833   */\n      tag_18\n      jump\t// in\n    tag_34:\n        /* \"#utility.yul\":696:839   */\n      swap3\n      swap2\n      pop\n      pop\n      jump\t// out\n        /* \"#utility.yul\":845:1196   */\n    tag_3:\n        /* \"#utility.yul\":915:921   */\n      0x00\n        /* \"#utility.yul\":964:966   */\n      0x20\n        /* \"#utility.yul\":952:961   */\n      dup3\n        /* \"#utility.yul\":943:950   */\n      dup5\n        /* \"#utility.yul\":939:962   */\n      sub\n        /* \"#utility.yul\":935:967   */\n      slt\n        /* \"#utility.yul\":932:1051   */\n      iszero\n      tag_36\n      jumpi\n        /* \"#utility.yul\":970:1049   */\n      tag_37\n      tag_14\n      jump\t// in\n    tag_37:\n        /* \"#utility.yul\":932:1051   */\n    tag_36:\n        /* \"#utility.yul\":1090:1091   */\n      0x00\n        /* \"#utility.yul\":1115:1179   */\n      tag_38\n        /* \"#utility.yul\":1171:1178   */\n      dup5\n        /* \"#utility.yul\":1162:1168   */\n      dup3\n        /* \"#utility.yul\":1151:1160   */\n      dup6\n        /* \"#utility.yul\":1147:1169   */\n      add\n        /* \"#utility.yul\":1115:1179   */\n      tag_19\n      jump\t// in\n    tag_38:\n        /* \"#utility.yul\":1105:1179   */\n      swap2\n      pop\n        /* \"#utility.yul\":1061:1189   */\n      pop\n        /* \"#utility.yul\":845:1196   */\n      swap3\n      swap2\n      pop\n      pop\n      jump\t// out\n        /* \"#utility.yul\":1202:1371   */\n    tag_20:\n        /* \"#utility.yul\":1286:1297   */\n      0x00\n        /* \"#utility.yul\":1320:1326   */\n      dup3\n        /* \"#utility.yul\":1315:1318   */\n      dup3\n        /* \"#utility.yul\":1308:1327   */\n      mstore\n        /* \"#utility.yul\":1360:1364   */\n      0x20\n        /* \"#utility.yul\":1355:1358   */\n      dup3\n        /* \"#utility.yul\":1351:1365   */\n      add\n        /* \"#utility.yul\":1336:1365   */\n      swap1\n      pop\n        /* \"#utility.yul\":1202:1371   */\n      swap3\n      swap2\n      pop\n      pop\n      jump\t// out\n        /* \"#utility.yul\":1377:1542   */\n    tag_21:\n        /* \"#utility.yul\":1517:1534   */\n      0x496e76616c696420416464726573730000000000000000000000000000000000\n        /* \"#utility.yul\":1513:1514   */\n      0x00\n        /* \"#utility.yul\":1505:1511   */\n      dup3\n        /* \"#utility.yul\":1501:1515   */\n      add\n        /* \"#utility.yul\":1494:1535   */\n      mstore\n        /* \"#utility.yul\":1377:1542   */\n      pop\n      jump\t// out\n        /* \"#utility.yul\":1548:1914   */\n    tag_22:\n        /* \"#utility.yul\":1690:1693   */\n      0x00\n        /* \"#utility.yul\":1711:1778   */\n      tag_42\n        /* \"#utility.yul\":1775:1777   */\n      0x0f\n        /* \"#utility.yul\":1770:1773   */\n      dup4\n        /* \"#utility.yul\":1711:1778   */\n      tag_20\n      jump\t// in\n    tag_42:\n        /* \"#utility.yul\":1704:1778   */\n      swap2\n      pop\n        /* \"#utility.yul\":1787:1880   */\n      tag_43\n        /* \"#utility.yul\":1876:1879   */\n      dup3\n        /* \"#utility.yul\":1787:1880   */\n      tag_21\n      jump\t// in\n    tag_43:\n        /* \"#utility.yul\":1905:1907   */\n      0x20\n        /* \"#utility.yul\":1900:1903   */\n      dup3\n        /* \"#utility.yul\":1896:1908   */\n      add\n        /* \"#utility.yul\":1889:1908   */\n      swap1\n      pop\n        /* \"#utility.yul\":1548:1914   */\n      swap2\n      swap1\n      pop\n      jump\t// out\n        /* \"#utility.yul\":1920:2339   */\n    tag_8:\n        /* \"#utility.yul\":2086:2090   */\n      0x00\n        /* \"#utility.yul\":2124:2126   */\n      0x20\n        /* \"#utility.yul\":2113:2122   */\n      dup3\n        /* \"#utility.yul\":2109:2127   */\n      add\n        /* \"#utility.yul\":2101:2127   */\n      swap1\n      pop\n        /* \"#utility.yul\":2173:2182   */\n      dup2\n        /* \"#utility.yul\":2167:2171   */\n      dup2\n        /* \"#utility.yul\":2163:2183   */\n      sub\n        /* \"#utility.yul\":2159:2160   */\n      0x00\n        /* \"#utility.yul\":2148:2157   */\n      dup4\n        /* \"#utility.yul\":2144:2161   */\n      add\n        /* \"#utility.yul\":2137:2184   */\n      mstore\n        /* \"#utility.yul\":2201:2332   */\n      tag_45\n        /* \"#utility.yul\":2327:2331   */\n      dup2\n        /* \"#utility.yul\":2201:2332   */\n      tag_22\n      jump\t// in\n    tag_45:\n        /* \"#utility.yul\":2193:2332   */\n      swap1\n      pop\n        /* \"#utility.yul\":1920:2339   */\n      swap2\n      swap1\n      pop\n      jump\t// out\n        /* \"#utility.yul\":2345:2525   */\n    tag_11:\n        /* \"#utility.yul\":2393:2470   */\n      0x4e487b7100000000000000000000000000000000000000000000000000000000\n        /* \"#utility.yul\":2390:2391   */\n      0x00\n        /* \"#utility.yul\":2383:2471   */\n      mstore\n        /* \"#utility.yul\":2490:2494   */\n      0x01\n        /* \"#utility.yul\":2487:2488   */\n      0x04\n        /* \"#utility.yul\":2480:2495   */\n      mstore\n        /* \"#utility.yul\":2514:2518   */\n      0x24\n        /* \"#utility.yul\":2511:2512   */\n      0x00\n        /* \"#utility.yul\":2504:2519   */\n      revert\n        /* \"contracts/try_catch.sol\":63:562  contract Main{... */\n    tag_12:\n      dataSize(sub_0)\n      dup1\n      dataOffset(sub_0)\n      0x00\n      codecopy\n      0x00\n      return\n    stop\n\n    sub_0: assembly {\n            /* \"contracts/try_catch.sol\":63:562  contract Main{... */\n          mstore(0x40, 0x80)\n          callvalue\n          dup1\n          iszero\n          tag_1\n          jumpi\n          0x00\n          dup1\n          revert\n        tag_1:\n          pop\n          jumpi(tag_2, lt(calldatasize, 0x04))\n          shr(0xe0, calldataload(0x00))\n          dup1\n          0x8da5cb5b\n          eq\n          tag_3\n          jumpi\n          dup1\n          0xa9bf5633\n          eq\n          tag_4\n          jumpi\n        tag_2:\n          0x00\n          dup1\n          revert\n            /* \"contracts/try_catch.sol\":81:101  address public owner */\n        tag_3:\n          tag_5\n          tag_6\n          jump\t// in\n        tag_5:\n          mload(0x40)\n          tag_7\n          swap2\n          swap1\n          tag_8\n          jump\t// in\n        tag_7:\n          mload(0x40)\n          dup1\n          swap2\n          sub\n          swap1\n          return\n            /* \"contracts/try_catch.sol\":419:559  function myFunc(uint x) public pure returns(string memory){... */\n        tag_4:\n          tag_9\n          0x04\n          dup1\n          calldatasize\n          sub\n          dup2\n          add\n          swap1\n          tag_10\n          swap2\n          swap1\n          tag_11\n          jump\t// in\n        tag_10:\n          tag_12\n          jump\t// in\n        tag_9:\n          mload(0x40)\n          tag_13\n          swap2\n          swap1\n          tag_14\n          jump\t// in\n        tag_13:\n          mload(0x40)\n          dup1\n          swap2\n          sub\n          swap1\n          return\n            /* \"contracts/try_catch.sol\":81:101  address public owner */\n        tag_6:\n          0x00\n          dup1\n          sload\n          swap1\n          0x0100\n          exp\n          swap1\n          div\n          0xffffffffffffffffffffffffffffffffffffffff\n          and\n          dup2\n          jump\t// out\n            /* \"contracts/try_catch.sol\":419:559  function myFunc(uint x) public pure returns(string memory){... */\n        tag_12:\n            /* \"contracts/try_catch.sol\":463:476  string memory */\n          0x60\n            /* \"contracts/try_catch.sol\":498:499  0 */\n          0x00\n            /* \"contracts/try_catch.sol\":493:494  x */\n          dup3\n            /* \"contracts/try_catch.sol\":493:499  x != 0 */\n          sub\n            /* \"contracts/try_catch.sol\":484:519  require (x != 0, \"REquire Failed!\") */\n          tag_16\n          jumpi\n          mload(0x40)\n          0x08c379a000000000000000000000000000000000000000000000000000000000\n          dup2\n          mstore\n          0x04\n          add\n          tag_17\n          swap1\n          tag_18\n          jump\t// in\n        tag_17:\n          mload(0x40)\n          dup1\n          swap2\n          sub\n          swap1\n          revert\n        tag_16:\n            /* \"contracts/try_catch.sol\":526:552  return \"myFunc was called\" */\n          mload(0x40)\n          dup1\n          0x40\n          add\n          0x40\n          mstore\n          dup1\n          0x11\n          dup2\n          mstore\n          0x20\n          add\n          0x6d7946756e63207761732063616c6c6564000000000000000000000000000000\n          dup2\n          mstore\n          pop\n          swap1\n          pop\n            /* \"contracts/try_catch.sol\":419:559  function myFunc(uint x) public pure returns(string memory){... */\n          swap2\n          swap1\n          pop\n          jump\t// out\n            /* \"#utility.yul\":7:133   */\n        tag_19:\n            /* \"#utility.yul\":44:51   */\n          0x00\n            /* \"#utility.yul\":84:126   */\n          0xffffffffffffffffffffffffffffffffffffffff\n            /* \"#utility.yul\":77:82   */\n          dup3\n            /* \"#utility.yul\":73:127   */\n          and\n            /* \"#utility.yul\":62:127   */\n          swap1\n          pop\n            /* \"#utility.yul\":7:133   */\n          swap2\n          swap1\n          pop\n          jump\t// out\n            /* \"#utility.yul\":139:235   */\n        tag_20:\n            /* \"#utility.yul\":176:183   */\n          0x00\n            /* \"#utility.yul\":205:229   */\n          tag_38\n            /* \"#utility.yul\":223:228   */\n          dup3\n            /* \"#utility.yul\":205:229   */\n          tag_19\n          jump\t// in\n        tag_38:\n            /* \"#utility.yul\":194:229   */\n          swap1\n          pop\n            /* \"#utility.yul\":139:235   */\n          swap2\n          swap1\n          pop\n          jump\t// out\n            /* \"#utility.yul\":241:359   */\n        tag_21:\n            /* \"#utility.yul\":328:352   */\n          tag_40\n            /* \"#utility.yul\":346:351   */\n          dup2\n            /* \"#utility.yul\":328:352   */\n          tag_20\n          jump\t// in\n        tag_40:\n            /* \"#utility.yul\":323:326   */\n          dup3\n            /* \"#utility.yul\":316:353   */\n          mstore\n            /* \"#utility.yul\":241:359   */\n          pop\n          pop\n          jump\t// out\n            /* \"#utility.yul\":365:587   */\n        tag_8:\n            /* \"#utility.yul\":458:462   */\n          0x00\n            /* \"#utility.yul\":496:498   */\n          0x20\n            /* \"#utility.yul\":485:494   */\n          dup3\n            /* \"#utility.yul\":481:499   */\n          add\n            /* \"#utility.yul\":473:499   */\n          swap1\n          pop\n            /* \"#utility.yul\":509:580   */\n          tag_42\n            /* \"#utility.yul\":577:578   */\n          0x00\n            /* \"#utility.yul\":566:575   */\n          dup4\n            /* \"#utility.yul\":562:579   */\n          add\n            /* \"#utility.yul\":553:559   */\n          dup5\n            /* \"#utility.yul\":509:580   */\n          tag_21\n          jump\t// in\n        tag_42:\n            /* \"#utility.yul\":365:587   */\n          swap3\n          swap2\n          pop\n          pop\n          jump\t// out\n            /* \"#utility.yul\":674:791   */\n        tag_23:\n            /* \"#utility.yul\":783:784   */\n          0x00\n            /* \"#utility.yul\":780:781   */\n          dup1\n            /* \"#utility.yul\":773:785   */\n          revert\n            /* \"#utility.yul\":920:997   */\n        tag_25:\n            /* \"#utility.yul\":957:964   */\n          0x00\n            /* \"#utility.yul\":986:991   */\n          dup2\n            /* \"#utility.yul\":975:991   */\n          swap1\n          pop\n            /* \"#utility.yul\":920:997   */\n          swap2\n          swap1\n          pop\n          jump\t// out\n            /* \"#utility.yul\":1003:1125   */\n        tag_26:\n            /* \"#utility.yul\":1076:1100   */\n          tag_48\n            /* \"#utility.yul\":1094:1099   */\n          dup2\n            /* \"#utility.yul\":1076:1100   */\n          tag_25\n          jump\t// in\n        tag_48:\n            /* \"#utility.yul\":1069:1074   */\n          dup2\n            /* \"#utility.yul\":1066:1101   */\n          eq\n            /* \"#utility.yul\":1056:1119   */\n          tag_49\n          jumpi\n            /* \"#utility.yul\":1115:1116   */\n          0x00\n            /* \"#utility.yul\":1112:1113   */\n          dup1\n            /* \"#utility.yul\":1105:1117   */\n          revert\n            /* \"#utility.yul\":1056:1119   */\n        tag_49:\n            /* \"#utility.yul\":1003:1125   */\n          pop\n          jump\t// out\n            /* \"#utility.yul\":1131:1270   */\n        tag_27:\n            /* \"#utility.yul\":1177:1182   */\n          0x00\n            /* \"#utility.yul\":1215:1221   */\n          dup2\n            /* \"#utility.yul\":1202:1222   */\n          calldataload\n            /* \"#utility.yul\":1193:1222   */\n          swap1\n          pop\n            /* \"#utility.yul\":1231:1264   */\n          tag_51\n            /* \"#utility.yul\":1258:1263   */\n          dup2\n            /* \"#utility.yul\":1231:1264   */\n          tag_26\n          jump\t// in\n        tag_51:\n            /* \"#utility.yul\":1131:1270   */\n          swap3\n          swap2\n          pop\n          pop\n          jump\t// out\n            /* \"#utility.yul\":1276:1605   */\n        tag_11:\n            /* \"#utility.yul\":1335:1341   */\n          0x00\n            /* \"#utility.yul\":1384:1386   */\n          0x20\n            /* \"#utility.yul\":1372:1381   */\n          dup3\n            /* \"#utility.yul\":1363:1370   */\n          dup5\n            /* \"#utility.yul\":1359:1382   */\n          sub\n            /* \"#utility.yul\":1355:1387   */\n          slt\n            /* \"#utility.yul\":1352:1471   */\n          iszero\n          tag_53\n          jumpi\n            /* \"#utility.yul\":1390:1469   */\n          tag_54\n          tag_23\n          jump\t// in\n        tag_54:\n            /* \"#utility.yul\":1352:1471   */\n        tag_53:\n            /* \"#utility.yul\":1510:1511   */\n          0x00\n            /* \"#utility.yul\":1535:1588   */\n          tag_55\n            /* \"#utility.yul\":1580:1587   */\n          dup5\n            /* \"#utility.yul\":1571:1577   */\n          dup3\n            /* \"#utility.yul\":1560:1569   */\n          dup6\n            /* \"#utility.yul\":1556:1578   */\n          add\n            /* \"#utility.yul\":1535:1588   */\n          tag_27\n          jump\t// in\n        tag_55:\n            /* \"#utility.yul\":1525:1588   */\n          swap2\n          pop\n            /* \"#utility.yul\":1481:1598   */\n          pop\n            /* \"#utility.yul\":1276:1605   */\n          swap3\n          swap2\n          pop\n          pop\n          jump\t// out\n            /* \"#utility.yul\":1611:1710   */\n        tag_28:\n            /* \"#utility.yul\":1663:1669   */\n          0x00\n            /* \"#utility.yul\":1697:1702   */\n          dup2\n            /* \"#utility.yul\":1691:1703   */\n          mload\n            /* \"#utility.yul\":1681:1703   */\n          swap1\n          pop\n            /* \"#utility.yul\":1611:1710   */\n          swap2\n          swap1\n          pop\n          jump\t// out\n            /* \"#utility.yul\":1716:1885   */\n        tag_29:\n            /* \"#utility.yul\":1800:1811   */\n          0x00\n            /* \"#utility.yul\":1834:1840   */\n          dup3\n            /* \"#utility.yul\":1829:1832   */\n          dup3\n            /* \"#utility.yul\":1822:1841   */\n          mstore\n            /* \"#utility.yul\":1874:1878   */\n          0x20\n            /* \"#utility.yul\":1869:1872   */\n          dup3\n            /* \"#utility.yul\":1865:1879   */\n          add\n            /* \"#utility.yul\":1850:1879   */\n          swap1\n          pop\n            /* \"#utility.yul\":1716:1885   */\n          swap3\n          swap2\n          pop\n          pop\n          jump\t// out\n            /* \"#utility.yul\":1891:2137   */\n        tag_30:\n            /* \"#utility.yul\":1972:1973   */\n          0x00\n            /* \"#utility.yul\":1982:2095   */\n        tag_59:\n            /* \"#utility.yul\":1996:2002   */\n          dup4\n            /* \"#utility.yul\":1993:1994   */\n          dup2\n            /* \"#utility.yul\":1990:2003   */\n          lt\n            /* \"#utility.yul\":1982:2095   */\n          iszero\n          tag_61\n          jumpi\n            /* \"#utility.yul\":2081:2082   */\n          dup1\n            /* \"#utility.yul\":2076:2079   */\n          dup3\n            /* \"#utility.yul\":2072:2083   */\n          add\n            /* \"#utility.yul\":2066:2084   */\n          mload\n            /* \"#utility.yul\":2062:2063   */\n          dup2\n            /* \"#utility.yul\":2057:2060   */\n          dup5\n            /* \"#utility.yul\":2053:2064   */\n          add\n            /* \"#utility.yul\":2046:2085   */\n          mstore\n            /* \"#utility.yul\":2018:2020   */\n          0x20\n            /* \"#utility.yul\":2015:2016   */\n          dup2\n            /* \"#utility.yul\":2011:2021   */\n          add\n            /* \"#utility.yul\":2006:2021   */\n          swap1\n          pop\n            /* \"#utility.yul\":1982:2095   */\n          jump(tag_59)\n        tag_61:\n            /* \"#utility.yul\":2129:2130   */\n          0x00\n            /* \"#utility.yul\":2120:2126   */\n          dup5\n            /* \"#utility.yul\":2115:2118   */\n          dup5\n            /* \"#utility.yul\":2111:2127   */\n          add\n            /* \"#utility.yul\":2104:2131   */\n          mstore\n            /* \"#utility.yul\":1953:2137   */\n          pop\n            /* \"#utility.yul\":1891:2137   */\n          pop\n          pop\n          pop\n          jump\t// out\n            /* \"#utility.yul\":2143:2245   */\n        tag_31:\n            /* \"#utility.yul\":2184:2190   */\n          0x00\n            /* \"#utility.yul\":2235:2237   */\n          0x1f\n            /* \"#utility.yul\":2231:2238   */\n          not\n            /* \"#utility.yul\":2226:2228   */\n          0x1f\n            /* \"#utility.yul\":2219:2224   */\n          dup4\n            /* \"#utility.yul\":2215:2229   */\n          add\n            /* \"#utility.yul\":2211:2239   */\n          and\n            /* \"#utility.yul\":2201:2239   */\n          swap1\n          pop\n            /* \"#utility.yul\":2143:2245   */\n          swap2\n          swap1\n          pop\n          jump\t// out\n            /* \"#utility.yul\":2251:2628   */\n        tag_32:\n            /* \"#utility.yul\":2339:2342   */\n          0x00\n            /* \"#utility.yul\":2367:2406   */\n          tag_64\n            /* \"#utility.yul\":2400:2405   */\n          dup3\n            /* \"#utility.yul\":2367:2406   */\n          tag_28\n          jump\t// in\n        tag_64:\n            /* \"#utility.yul\":2422:2493   */\n          tag_65\n            /* \"#utility.yul\":2486:2492   */\n          dup2\n            /* \"#utility.yul\":2481:2484   */\n          dup6\n            /* \"#utility.yul\":2422:2493   */\n          tag_29\n          jump\t// in\n        tag_65:\n            /* \"#utility.yul\":2415:2493   */\n          swap4\n          pop\n            /* \"#utility.yul\":2502:2567   */\n          tag_66\n            /* \"#utility.yul\":2560:2566   */\n          dup2\n            /* \"#utility.yul\":2555:2558   */\n          dup6\n            /* \"#utility.yul\":2548:2552   */\n          0x20\n            /* \"#utility.yul\":2541:2546   */\n          dup7\n            /* \"#utility.yul\":2537:2553   */\n          add\n            /* \"#utility.yul\":2502:2567   */\n          tag_30\n          jump\t// in\n        tag_66:\n            /* \"#utility.yul\":2592:2621   */\n          tag_67\n            /* \"#utility.yul\":2614:2620   */\n          dup2\n            /* \"#utility.yul\":2592:2621   */\n          tag_31\n          jump\t// in\n        tag_67:\n            /* \"#utility.yul\":2587:2590   */\n          dup5\n            /* \"#utility.yul\":2583:2622   */\n          add\n            /* \"#utility.yul\":2576:2622   */\n          swap2\n          pop\n            /* \"#utility.yul\":2343:2628   */\n          pop\n            /* \"#utility.yul\":2251:2628   */\n          swap3\n          swap2\n          pop\n          pop\n          jump\t// out\n            /* \"#utility.yul\":2634:2947   */\n        tag_14:\n            /* \"#utility.yul\":2747:2751   */\n          0x00\n            /* \"#utility.yul\":2785:2787   */\n          0x20\n            /* \"#utility.yul\":2774:2783   */\n          dup3\n            /* \"#utility.yul\":2770:2788   */\n          add\n            /* \"#utility.yul\":2762:2788   */\n          swap1\n          pop\n            /* \"#utility.yul\":2834:2843   */\n          dup2\n            /* \"#utility.yul\":2828:2832   */\n          dup2\n            /* \"#utility.yul\":2824:2844   */\n          sub\n            /* \"#utility.yul\":2820:2821   */\n          0x00\n            /* \"#utility.yul\":2809:2818   */\n          dup4\n            /* \"#utility.yul\":2805:2822   */\n          add\n            /* \"#utility.yul\":2798:2845   */\n          mstore\n            /* \"#utility.yul\":2862:2940   */\n          tag_69\n            /* \"#utility.yul\":2935:2939   */\n          dup2\n            /* \"#utility.yul\":2926:2932   */\n          dup5\n            /* \"#utility.yul\":2862:2940   */\n          tag_32\n          jump\t// in\n        tag_69:\n            /* \"#utility.yul\":2854:2940   */\n          swap1\n          pop\n            /* \"#utility.yul\":2634:2947   */\n          swap3\n          swap2\n          pop\n          pop\n          jump\t// out\n            /* \"#utility.yul\":2953:3118   */\n        tag_33:\n            /* \"#utility.yul\":3093:3110   */\n          0x52457175697265204661696c6564210000000000000000000000000000000000\n            /* \"#utility.yul\":3089:3090   */\n          0x00\n            /* \"#utility.yul\":3081:3087   */\n          dup3\n            /* \"#utility.yul\":3077:3091   */\n          add\n            /* \"#utility.yul\":3070:3111   */\n          mstore\n            /* \"#utility.yul\":2953:3118   */\n          pop\n          jump\t// out\n            /* \"#utility.yul\":3124:3490   */\n        tag_34:\n            /* \"#utility.yul\":3266:3269   */\n          0x00\n            /* \"#utility.yul\":3287:3354   */\n          tag_72\n            /* \"#utility.yul\":3351:3353   */\n          0x0f\n            /* \"#utility.yul\":3346:3349   */\n          dup4\n            /* \"#utility.yul\":3287:3354   */\n          tag_29\n          jump\t// in\n        tag_72:\n            /* \"#utility.yul\":3280:3354   */\n          swap2\n          pop\n            /* \"#utility.yul\":3363:3456   */\n          tag_73\n            /* \"#utility.yul\":3452:3455   */\n          dup3\n            /* \"#utility.yul\":3363:3456   */\n          tag_33\n          jump\t// in\n        tag_73:\n            /* \"#utility.yul\":3481:3483   */\n          0x20\n            /* \"#utility.yul\":3476:3479   */\n          dup3\n            /* \"#utility.yul\":3472:3484   */\n          add\n            /* \"#utility.yul\":3465:3484   */\n          swap1\n          pop\n            /* \"#utility.yul\":3124:3490   */\n          swap2\n          swap1\n          pop\n          jump\t// out\n            /* \"#utility.yul\":3496:3915   */\n        tag_18:\n            /* \"#utility.yul\":3662:3666   */\n          0x00\n            /* \"#utility.yul\":3700:3702   */\n          0x20\n            /* \"#utility.yul\":3689:3698   */\n          dup3\n            /* \"#utility.yul\":3685:3703   */\n          add\n            /* \"#utility.yul\":3677:3703   */\n          swap1\n          pop\n            /* \"#utility.yul\":3749:3758   */\n          dup2\n            /* \"#utility.yul\":3743:3747   */\n          dup2\n            /* \"#utility.yul\":3739:3759   */\n          sub\n            /* \"#utility.yul\":3735:3736   */\n          0x00\n            /* \"#utility.yul\":3724:3733   */\n          dup4\n            /* \"#utility.yul\":3720:3737   */\n          add\n            /* \"#utility.yul\":3713:3760   */\n          mstore\n            /* \"#utility.yul\":3777:3908   */\n          tag_75\n            /* \"#utility.yul\":3903:3907   */\n          dup2\n            /* \"#utility.yul\":3777:3908   */\n          tag_34\n          jump\t// in\n        tag_75:\n            /* \"#utility.yul\":3769:3908   */\n          swap1\n          pop\n            /* \"#utility.yul\":3496:3915   */\n          swap2\n          swap1\n          pop\n          jump\t// out\n\n        auxdata: 0xa26469706673582212209cf9a4bc8d5653eea22619e46e976f9c9b040aa96f60455ddc2e93e6d474a0b964736f6c63430008120033\n    }\n}\n",
				"bytecode": {
					"linkReferences": {},
					"object": "608060405234801561001057600080fd5b503360405161001e90610089565b61002891906100d7565b604051809103906000f080158015610044573d6000803e3d6000fd5b506000806101000a81548173ffffffffffffffffffffffffffffffffffffffff021916908373ffffffffffffffffffffffffffffffffffffffff1602179055506100f2565b6105b6806110bd83390190565b600073ffffffffffffffffffffffffffffffffffffffff82169050919050565b60006100c182610096565b9050919050565b6100d1816100b6565b82525050565b60006020820190506100ec60008301846100c8565b92915050565b610fbc806101016000396000f3fe60806040523480156200001157600080fd5b5060043610620000465760003560e01c806377bdab83146200004b578063933ac084146200006b578063dffeadd0146200008b575b600080fd5b620000696004803603810190620000639190620003ca565b620000ad565b005b62000089600480360381019062000083919062000437565b62000202565b005b620000956200031f565b604051620000a49190620004d4565b60405180910390f35b80604051620000bc9062000343565b620000c8919062000502565b604051809103906000f08015620000dc5760015b620001c657620000eb6200052c565b806308c379a0036200014f575062000102620005c7565b806200010f575062000151565b7fcf34ef537ac33ee1ac626ca1587a0a7e8e51561e5514f8cb36afa1c5102b3bab81604051620001409190620006eb565b60405180910390a150620001c0565b505b3d80600081146200017f576040519150601f19603f3d011682016040523d82523d6000602084013e62000184565b606091505b507f532fd6ea96cfb78bb46e09279a26828b8b493de1a2b8b1ee1face527978a15a581604051620001b691906200076c565b60405180910390a1505b620001ff565b7fcf34ef537ac33ee1ac626ca1587a0a7e8e51561e5514f8cb36afa1c5102b3bab604051620001f590620007e0565b60405180910390a1505b50565b60008054906101000a900473ffffffffffffffffffffffffffffffffffffffff1673ffffffffffffffffffffffffffffffffffffffff1663a9bf5633826040518263ffffffff1660e01b81526004016200025d919062000813565b600060405180830381865afa9250505080156200029f57506040513d6000823e3d601f19601f820116820180604052508101906200029c91906200090d565b60015b620002e1577fcf34ef537ac33ee1ac626ca1587a0a7e8e51561e5514f8cb36afa1c5102b3bab604051620002d390620009ae565b60405180910390a16200031c565b7fcf34ef537ac33ee1ac626ca1587a0a7e8e51561e5514f8cb36afa1c5102b3bab81604051620003129190620006eb565b60405180910390a1505b50565b60008054906101000a900473ffffffffffffffffffffffffffffffffffffffff1681565b6105b680620009d183390190565b6000604051905090565b600080fd5b600080fd5b600073ffffffffffffffffffffffffffffffffffffffff82169050919050565b6000620003928262000365565b9050919050565b620003a48162000385565b8114620003b057600080fd5b50565b600081359050620003c48162000399565b92915050565b600060208284031215620003e357620003e26200035b565b5b6000620003f384828501620003b3565b91505092915050565b6000819050919050565b6200041181620003fc565b81146200041d57600080fd5b50565b600081359050620004318162000406565b92915050565b60006020828403121562000450576200044f6200035b565b5b6000620004608482850162000420565b91505092915050565b6000819050919050565b6000620004946200048e620004888462000365565b62000469565b62000365565b9050919050565b6000620004a88262000473565b9050919050565b6000620004bc826200049b565b9050919050565b620004ce81620004af565b82525050565b6000602082019050620004eb6000830184620004c3565b92915050565b620004fc8162000385565b82525050565b6000602082019050620005196000830184620004f1565b92915050565b60008160e01c9050919050565b600060033d11156200054e5760046000803e6200054b6000516200051f565b90505b90565b6000601f19601f8301169050919050565b7f4e487b7100000000000000000000000000000000000000000000000000000000600052604160045260246000fd5b6200059c8262000551565b810181811067ffffffffffffffff82111715620005be57620005bd62000562565b5b80604052505050565b600060443d106200065f57620005dc62000351565b60043d036004823e80513d602482011167ffffffffffffffff82111715620006065750506200065f565b808201805167ffffffffffffffff8111156200062657505050506200065f565b80602083010160043d038501811115620006455750505050506200065f565b620006568260200185018662000591565b82955050505050505b90565b600081519050919050565b600082825260208201905092915050565b60005b838110156200069e57808201518184015260208101905062000681565b60008484015250505050565b6000620006b78262000662565b620006c381856200066d565b9350620006d58185602086016200067e565b620006e08162000551565b840191505092915050565b60006020820190508181036000830152620007078184620006aa565b905092915050565b600081519050919050565b600082825260208201905092915050565b600062000738826200070f565b6200074481856200071a565b9350620007568185602086016200067e565b620007618162000551565b840191505092915050565b600060208201905081810360008301526200078881846200072b565b905092915050565b7f4d61696e20437265617465640000000000000000000000000000000000000000600082015250565b6000620007c8600c836200066d565b9150620007d58262000790565b602082019050919050565b60006020820190508181036000830152620007fb81620007b9565b9050919050565b6200080d81620003fc565b82525050565b60006020820190506200082a600083018462000802565b92915050565b600080fd5b600080fd5b60006200084662000351565b905062000854828262000591565b919050565b600067ffffffffffffffff82111562000877576200087662000562565b5b620008828262000551565b9050602081019050919050565b6000620008a6620008a08462000859565b6200083a565b905082815260208101848484011115620008c557620008c462000835565b5b620008d28482856200067e565b509392505050565b600082601f830112620008f257620008f162000830565b5b8151620009048482602086016200088f565b91505092915050565b6000602082840312156200092657620009256200035b565b5b600082015167ffffffffffffffff81111562000947576200094662000360565b5b6200095584828501620008da565b91505092915050565b7f45787465726e616c2063616c6c206661696c6564000000000000000000000000600082015250565b6000620009966014836200066d565b9150620009a3826200095e565b602082019050919050565b60006020820190508181036000830152620009c98162000987565b905091905056fe608060405234801561001057600080fd5b506040516105b63803806105b683398181016040528101906100329190610187565b600073ffffffffffffffffffffffffffffffffffffffff168173ffffffffffffffffffffffffffffffffffffffff16036100a1576040517f08c379a000000000000000000000000000000000000000000000000000000000815260040161009890610211565b60405180910390fd5b600173ffffffffffffffffffffffffffffffffffffffff168173ffffffffffffffffffffffffffffffffffffffff16036100de576100dd610231565b5b806000806101000a81548173ffffffffffffffffffffffffffffffffffffffff021916908373ffffffffffffffffffffffffffffffffffffffff16021790555050610260565b600080fd5b600073ffffffffffffffffffffffffffffffffffffffff82169050919050565b600061015482610129565b9050919050565b61016481610149565b811461016f57600080fd5b50565b6000815190506101818161015b565b92915050565b60006020828403121561019d5761019c610124565b5b60006101ab84828501610172565b91505092915050565b600082825260208201905092915050565b7f496e76616c696420416464726573730000000000000000000000000000000000600082015250565b60006101fb600f836101b4565b9150610206826101c5565b602082019050919050565b6000602082019050818103600083015261022a816101ee565b9050919050565b7f4e487b7100000000000000000000000000000000000000000000000000000000600052600160045260246000fd5b6103478061026f6000396000f3fe608060405234801561001057600080fd5b50600436106100365760003560e01c80638da5cb5b1461003b578063a9bf563314610059575b600080fd5b610043610089565b6040516100509190610170565b60405180910390f35b610073600480360381019061006e91906101c6565b6100ad565b6040516100809190610283565b60405180910390f35b60008054906101000a900473ffffffffffffffffffffffffffffffffffffffff1681565b6060600082036100f2576040517f08c379a00000000000000000000000000000000000000000000000000000000081526004016100e9906102f1565b60405180910390fd5b6040518060400160405280601181526020017f6d7946756e63207761732063616c6c65640000000000000000000000000000008152509050919050565b600073ffffffffffffffffffffffffffffffffffffffff82169050919050565b600061015a8261012f565b9050919050565b61016a8161014f565b82525050565b60006020820190506101856000830184610161565b92915050565b600080fd5b6000819050919050565b6101a381610190565b81146101ae57600080fd5b50565b6000813590506101c08161019a565b92915050565b6000602082840312156101dc576101db61018b565b5b60006101ea848285016101b1565b91505092915050565b600081519050919050565b600082825260208201905092915050565b60005b8381101561022d578082015181840152602081019050610212565b60008484015250505050565b6000601f19601f8301169050919050565b6000610255826101f3565b61025f81856101fe565b935061026f81856020860161020f565b61027881610239565b840191505092915050565b6000602082019050818103600083015261029d818461024a565b905092915050565b7f52457175697265204661696c6564210000000000000000000000000000000000600082015250565b60006102db600f836101fe565b91506102e6826102a5565b602082019050919050565b6000602082019050818103600083015261030a816102ce565b905091905056fea26469706673582212209cf9a4bc8d5653eea22619e46e976f9c9b040aa96f60455ddc2e93e6d474a0b964736f6c63430008120033a264697066735822122014ab5a57833d3106162c5a091240c1096b45a747ada7cf3d38c57ce8f720dd9964736f6c63430008120033608060405234801561001057600080fd5b506040516105b63803806105b683398181016040528101906100329190610187565b600073ffffffffffffffffffffffffffffffffffffffff168173ffffffffffffffffffffffffffffffffffffffff16036100a1576040517f08c379a000000000000000000000000000000000000000000000000000000000815260040161009890610211565b60405180910390fd5b600173ffffffffffffffffffffffffffffffffffffffff168173ffffffffffffffffffffffffffffffffffffffff16036100de576100dd610231565b5b806000806101000a81548173ffffffffffffffffffffffffffffffffffffffff021916908373ffffffffffffffffffffffffffffffffffffffff16021790555050610260565b600080fd5b600073ffffffffffffffffffffffffffffffffffffffff82169050919050565b600061015482610129565b9050919050565b61016481610149565b811461016f57600080fd5b50565b6000815190506101818161015b565b92915050565b60006020828403121561019d5761019c610124565b5b60006101ab84828501610172565b91505092915050565b600082825260208201905092915050565b7f496e76616c696420416464726573730000000000000000000000000000000000600082015250565b60006101fb600f836101b4565b9150610206826101c5565b602082019050919050565b6000602082019050818103600083015261022a816101ee565b9050919050565b7f4e487b7100000000000000000000000000000000000000000000000000000000600052600160045260246000fd5b6103478061026f6000396000f3fe608060405234801561001057600080fd5b50600436106100365760003560e01c80638da5cb5b1461003b578063a9bf563314610059575b600080fd5b610043610089565b6040516100509190610170565b60405180910390f35b610073600480360381019061006e91906101c6565b6100ad565b6040516100809190610283565b60405180910390f35b60008054906101000a900473ffffffffffffffffffffffffffffffffffffffff1681565b6060600082036100f2576040517f08c379a00000000000000000000000000000000000000000000000000000000081526004016100e9906102f1565b60405180910390fd5b6040518060400160405280601181526020017f6d7946756e63207761732063616c6c65640000000000000000000000000000008152509050919050565b600073ffffffffffffffffffffffffffffffffffffffff82169050919050565b600061015a8261012f565b9050919050565b61016a8161014f565b82525050565b60006020820190506101856000830184610161565b92915050565b600080fd5b6000819050919050565b6101a381610190565b81146101ae57600080fd5b50565b6000813590506101c08161019a565b92915050565b6000602082840312156101dc576101db61018b565b5b60006101ea848285016101b1565b91505092915050565b600081519050919050565b600082825260208201905092915050565b60005b8381101561022d578082015181840152602081019050610212565b60008484015250505050565b6000601f19601f8301169050919050565b6000610255826101f3565b61025f81856101fe565b935061026f81856020860161020f565b61027881610239565b840191505092915050565b6000602082019050818103600083015261029d818461024a565b905092915050565b7f52457175697265204661696c6564210000000000000000000000000000000000600082015250565b60006102db600f836101fe565b91506102e6826102a5565b602082019050919050565b6000602082019050818103600083015261030a816102ce565b905091905056fea26469706673582212209cf9a4bc8d5653eea22619e46e976f9c9b040aa96f60455ddc2e93e6d474a0b964736f6c63430008120033",
					"opcodes": "PUSH1 0x80 PUSH1 0x40 MSTORE CALLVALUE DUP1 ISZERO PUSH2 0x10 JUMPI PUSH1 0x0 DUP1 REVERT JUMPDEST POP CALLER PUSH1 0x40 MLOAD PUSH2 0x1E SWAP1 PUSH2 0x89 JUMP JUMPDEST PUSH2 0x28 SWAP2 SWAP1 PUSH2 0xD7 JUMP JUMPDEST PUSH1 0x40 MLOAD DUP1 SWAP2 SUB SWAP1 PUSH1 0x0 CREATE DUP1 ISZERO DUP1 ISZERO PUSH2 0x44 JUMPI RETURNDATASIZE PUSH1 0x0 DUP1 RETURNDATACOPY RETURNDATASIZE PUSH1 0x0 REVERT JUMPDEST POP PUSH1 0x0 DUP1 PUSH2 0x100 EXP DUP2 SLOAD DUP2 PUSH20 0xFFFFFFFFFFFFFFFFFFFFFFFFFFFFFFFFFFFFFFFF MUL NOT AND SWAP1 DUP4 PUSH20 0xFFFFFFFFFFFFFFFFFFFFFFFFFFFFFFFFFFFFFFFF AND MUL OR SWAP1 SSTORE POP PUSH2 0xF2 JUMP JUMPDEST PUSH2 0x5B6 DUP1 PUSH2 0x10BD DUP4 CODECOPY ADD SWAP1 JUMP JUMPDEST PUSH1 0x0 PUSH20 0xFFFFFFFFFFFFFFFFFFFFFFFFFFFFFFFFFFFFFFFF DUP3 AND SWAP1 POP SWAP2 SWAP1 POP JUMP JUMPDEST PUSH1 0x0 PUSH2 0xC1 DUP3 PUSH2 0x96 JUMP JUMPDEST SWAP1 POP SWAP2 SWAP1 POP JUMP JUMPDEST PUSH2 0xD1 DUP2 PUSH2 0xB6 JUMP JUMPDEST DUP3 MSTORE POP POP JUMP JUMPDEST PUSH1 0x0 PUSH1 0x20 DUP3 ADD SWAP1 POP PUSH2 0xEC PUSH1 0x0 DUP4 ADD DUP5 PUSH2 0xC8 JUMP JUMPDEST SWAP3 SWAP2 POP POP JUMP JUMPDEST PUSH2 0xFBC DUP1 PUSH2 0x101 PUSH1 0x0 CODECOPY PUSH1 0x0 RETURN INVALID PUSH1 0x80 PUSH1 0x40 MSTORE CALLVALUE DUP1 ISZERO PUSH3 0x11 JUMPI PUSH1 0x0 DUP1 REVERT JUMPDEST POP PUSH1 0x4 CALLDATASIZE LT PUSH3 0x46 JUMPI PUSH1 0x0 CALLDATALOAD PUSH1 0xE0 SHR DUP1 PUSH4 0x77BDAB83 EQ PUSH3 0x4B JUMPI DUP1 PUSH4 0x933AC084 EQ PUSH3 0x6B JUMPI DUP1 PUSH4 0xDFFEADD0 EQ PUSH3 0x8B JUMPI JUMPDEST PUSH1 0x0 DUP1 REVERT JUMPDEST PUSH3 0x69 PUSH1 0x4 DUP1 CALLDATASIZE SUB DUP2 ADD SWAP1 PUSH3 0x63 SWAP2 SWAP1 PUSH3 0x3CA JUMP JUMPDEST PUSH3 0xAD JUMP JUMPDEST STOP JUMPDEST PUSH3 0x89 PUSH1 0x4 DUP1 CALLDATASIZE SUB DUP2 ADD SWAP1 PUSH3 0x83 SWAP2 SWAP1 PUSH3 0x437 JUMP JUMPDEST PUSH3 0x202 JUMP JUMPDEST STOP JUMPDEST PUSH3 0x95 PUSH3 0x31F JUMP JUMPDEST PUSH1 0x40 MLOAD PUSH3 0xA4 SWAP2 SWAP1 PUSH3 0x4D4 JUMP JUMPDEST PUSH1 0x40 MLOAD DUP1 SWAP2 SUB SWAP1 RETURN JUMPDEST DUP1 PUSH1 0x40 MLOAD PUSH3 0xBC SWAP1 PUSH3 0x343 JUMP JUMPDEST PUSH3 0xC8 SWAP2 SWAP1 PUSH3 0x502 JUMP JUMPDEST PUSH1 0x40 MLOAD DUP1 SWAP2 SUB SWAP1 PUSH1 0x0 CREATE DUP1 ISZERO PUSH3 0xDC JUMPI PUSH1 0x1 JUMPDEST PUSH3 0x1C6 JUMPI PUSH3 0xEB PUSH3 0x52C JUMP JUMPDEST DUP1 PUSH4 0x8C379A0 SUB PUSH3 0x14F JUMPI POP PUSH3 0x102 PUSH3 0x5C7 JUMP JUMPDEST DUP1 PUSH3 0x10F JUMPI POP PUSH3 0x151 JUMP JUMPDEST PUSH32 0xCF34EF537AC33EE1AC626CA1587A0A7E8E51561E5514F8CB36AFA1C5102B3BAB DUP2 PUSH1 0x40 MLOAD PUSH3 0x140 SWAP2 SWAP1 PUSH3 0x6EB JUMP JUMPDEST PUSH1 0x40 MLOAD DUP1 SWAP2 SUB SWAP1 LOG1 POP PUSH3 0x1C0 JUMP JUMPDEST POP JUMPDEST RETURNDATASIZE DUP1 PUSH1 0x0 DUP2 EQ PUSH3 0x17F JUMPI PUSH1 0x40 MLOAD SWAP2 POP PUSH1 0x1F NOT PUSH1 0x3F RETURNDATASIZE ADD AND DUP3 ADD PUSH1 0x40 MSTORE RETURNDATASIZE DUP3 MSTORE RETURNDATASIZE PUSH1 0x0 PUSH1 0x20 DUP5 ADD RETURNDATACOPY PUSH3 0x184 JUMP JUMPDEST PUSH1 0x60 SWAP2 POP JUMPDEST POP PUSH32 0x532FD6EA96CFB78BB46E09279A26828B8B493DE1A2B8B1EE1FACE527978A15A5 DUP2 PUSH1 0x40 MLOAD PUSH3 0x1B6 SWAP2 SWAP1 PUSH3 0x76C JUMP JUMPDEST PUSH1 0x40 MLOAD DUP1 SWAP2 SUB SWAP1 LOG1 POP JUMPDEST PUSH3 0x1FF JUMP JUMPDEST PUSH32 0xCF34EF537AC33EE1AC626CA1587A0A7E8E51561E5514F8CB36AFA1C5102B3BAB PUSH1 0x40 MLOAD PUSH3 0x1F5 SWAP1 PUSH3 0x7E0 JUMP JUMPDEST PUSH1 0x40 MLOAD DUP1 SWAP2 SUB SWAP1 LOG1 POP JUMPDEST POP JUMP JUMPDEST PUSH1 0x0 DUP1 SLOAD SWAP1 PUSH2 0x100 EXP SWAP1 DIV PUSH20 0xFFFFFFFFFFFFFFFFFFFFFFFFFFFFFFFFFFFFFFFF AND PUSH20 0xFFFFFFFFFFFFFFFFFFFFFFFFFFFFFFFFFFFFFFFF AND PUSH4 0xA9BF5633 DUP3 PUSH1 0x40 MLOAD DUP3 PUSH4 0xFFFFFFFF AND PUSH1 0xE0 SHL DUP2 MSTORE PUSH1 0x4 ADD PUSH3 0x25D SWAP2 SWAP1 PUSH3 0x813 JUMP JUMPDEST PUSH1 0x0 PUSH1 0x40 MLOAD DUP1 DUP4 SUB DUP2 DUP7 GAS STATICCALL SWAP3 POP POP POP DUP1 ISZERO PUSH3 0x29F JUMPI POP PUSH1 0x40 MLOAD RETURNDATASIZE PUSH1 0x0 DUP3 RETURNDATACOPY RETURNDATASIZE PUSH1 0x1F NOT PUSH1 0x1F DUP3 ADD AND DUP3 ADD DUP1 PUSH1 0x40 MSTORE POP DUP2 ADD SWAP1 PUSH3 0x29C SWAP2 SWAP1 PUSH3 0x90D JUMP JUMPDEST PUSH1 0x1 JUMPDEST PUSH3 0x2E1 JUMPI PUSH32 0xCF34EF537AC33EE1AC626CA1587A0A7E8E51561E5514F8CB36AFA1C5102B3BAB PUSH1 0x40 MLOAD PUSH3 0x2D3 SWAP1 PUSH3 0x9AE JUMP JUMPDEST PUSH1 0x40 MLOAD DUP1 SWAP2 SUB SWAP1 LOG1 PUSH3 0x31C JUMP JUMPDEST PUSH32 0xCF34EF537AC33EE1AC626CA1587A0A7E8E51561E5514F8CB36AFA1C5102B3BAB DUP2 PUSH1 0x40 MLOAD PUSH3 0x312 SWAP2 SWAP1 PUSH3 0x6EB JUMP JUMPDEST PUSH1 0x40 MLOAD DUP1 SWAP2 SUB SWAP1 LOG1 POP JUMPDEST POP JUMP JUMPDEST PUSH1 0x0 DUP1 SLOAD SWAP1 PUSH2 0x100 EXP SWAP1 DIV PUSH20 0xFFFFFFFFFFFFFFFFFFFFFFFFFFFFFFFFFFFFFFFF AND DUP2 JUMP JUMPDEST PUSH2 0x5B6 DUP1 PUSH3 0x9D1 DUP4 CODECOPY ADD SWAP1 JUMP JUMPDEST PUSH1 0x0 PUSH1 0x40 MLOAD SWAP1 POP SWAP1 JUMP JUMPDEST PUSH1 0x0 DUP1 REVERT JUMPDEST PUSH1 0x0 DUP1 REVERT JUMPDEST PUSH1 0x0 PUSH20 0xFFFFFFFFFFFFFFFFFFFFFFFFFFFFFFFFFFFFFFFF DUP3 AND SWAP1 POP SWAP2 SWAP1 POP JUMP JUMPDEST PUSH1 0x0 PUSH3 0x392 DUP3 PUSH3 0x365 JUMP JUMPDEST SWAP1 POP SWAP2 SWAP1 POP JUMP JUMPDEST PUSH3 0x3A4 DUP2 PUSH3 0x385 JUMP JUMPDEST DUP2 EQ PUSH3 0x3B0 JUMPI PUSH1 0x0 DUP1 REVERT JUMPDEST POP JUMP JUMPDEST PUSH1 0x0 DUP2 CALLDATALOAD SWAP1 POP PUSH3 0x3C4 DUP2 PUSH3 0x399 JUMP JUMPDEST SWAP3 SWAP2 POP POP JUMP JUMPDEST PUSH1 0x0 PUSH1 0x20 DUP3 DUP5 SUB SLT ISZERO PUSH3 0x3E3 JUMPI PUSH3 0x3E2 PUSH3 0x35B JUMP JUMPDEST JUMPDEST PUSH1 0x0 PUSH3 0x3F3 DUP5 DUP3 DUP6 ADD PUSH3 0x3B3 JUMP JUMPDEST SWAP2 POP POP SWAP3 SWAP2 POP POP JUMP JUMPDEST PUSH1 0x0 DUP2 SWAP1 POP SWAP2 SWAP1 POP JUMP JUMPDEST PUSH3 0x411 DUP2 PUSH3 0x3FC JUMP JUMPDEST DUP2 EQ PUSH3 0x41D JUMPI PUSH1 0x0 DUP1 REVERT JUMPDEST POP JUMP JUMPDEST PUSH1 0x0 DUP2 CALLDATALOAD SWAP1 POP PUSH3 0x431 DUP2 PUSH3 0x406 JUMP JUMPDEST SWAP3 SWAP2 POP POP JUMP JUMPDEST PUSH1 0x0 PUSH1 0x20 DUP3 DUP5 SUB SLT ISZERO PUSH3 0x450 JUMPI PUSH3 0x44F PUSH3 0x35B JUMP JUMPDEST JUMPDEST PUSH1 0x0 PUSH3 0x460 DUP5 DUP3 DUP6 ADD PUSH3 0x420 JUMP JUMPDEST SWAP2 POP POP SWAP3 SWAP2 POP POP JUMP JUMPDEST PUSH1 0x0 DUP2 SWAP1 POP SWAP2 SWAP1 POP JUMP JUMPDEST PUSH1 0x0 PUSH3 0x494 PUSH3 0x48E PUSH3 0x488 DUP5 PUSH3 0x365 JUMP JUMPDEST PUSH3 0x469 JUMP JUMPDEST PUSH3 0x365 JUMP JUMPDEST SWAP1 POP SWAP2 SWAP1 POP JUMP JUMPDEST PUSH1 0x0 PUSH3 0x4A8 DUP3 PUSH3 0x473 JUMP JUMPDEST SWAP1 POP SWAP2 SWAP1 POP JUMP JUMPDEST PUSH1 0x0 PUSH3 0x4BC DUP3 PUSH3 0x49B JUMP JUMPDEST SWAP1 POP SWAP2 SWAP1 POP JUMP JUMPDEST PUSH3 0x4CE DUP2 PUSH3 0x4AF JUMP JUMPDEST DUP3 MSTORE POP POP JUMP JUMPDEST PUSH1 0x0 PUSH1 0x20 DUP3 ADD SWAP1 POP PUSH3 0x4EB PUSH1 0x0 DUP4 ADD DUP5 PUSH3 0x4C3 JUMP JUMPDEST SWAP3 SWAP2 POP POP JUMP JUMPDEST PUSH3 0x4FC DUP2 PUSH3 0x385 JUMP JUMPDEST DUP3 MSTORE POP POP JUMP JUMPDEST PUSH1 0x0 PUSH1 0x20 DUP3 ADD SWAP1 POP PUSH3 0x519 PUSH1 0x0 DUP4 ADD DUP5 PUSH3 0x4F1 JUMP JUMPDEST SWAP3 SWAP2 POP POP JUMP JUMPDEST PUSH1 0x0 DUP2 PUSH1 0xE0 SHR SWAP1 POP SWAP2 SWAP1 POP JUMP JUMPDEST PUSH1 0x0 PUSH1 0x3 RETURNDATASIZE GT ISZERO PUSH3 0x54E JUMPI PUSH1 0x4 PUSH1 0x0 DUP1 RETURNDATACOPY PUSH3 0x54B PUSH1 0x0 MLOAD PUSH3 0x51F JUMP JUMPDEST SWAP1 POP JUMPDEST SWAP1 JUMP JUMPDEST PUSH1 0x0 PUSH1 0x1F NOT PUSH1 0x1F DUP4 ADD AND SWAP1 POP SWAP2 SWAP1 POP JUMP JUMPDEST PUSH32 0x4E487B7100000000000000000000000000000000000000000000000000000000 PUSH1 0x0 MSTORE PUSH1 0x41 PUSH1 0x4 MSTORE PUSH1 0x24 PUSH1 0x0 REVERT JUMPDEST PUSH3 0x59C DUP3 PUSH3 0x551 JUMP JUMPDEST DUP2 ADD DUP2 DUP2 LT PUSH8 0xFFFFFFFFFFFFFFFF DUP3 GT OR ISZERO PUSH3 0x5BE JUMPI PUSH3 0x5BD PUSH3 0x562 JUMP JUMPDEST JUMPDEST DUP1 PUSH1 0x40 MSTORE POP POP POP JUMP JUMPDEST PUSH1 0x0 PUSH1 0x44 RETURNDATASIZE LT PUSH3 0x65F JUMPI PUSH3 0x5DC PUSH3 0x351 JUMP JUMPDEST PUSH1 0x4 RETURNDATASIZE SUB PUSH1 0x4 DUP3 RETURNDATACOPY DUP1 MLOAD RETURNDATASIZE PUSH1 0x24 DUP3 ADD GT PUSH8 0xFFFFFFFFFFFFFFFF DUP3 GT OR ISZERO PUSH3 0x606 JUMPI POP POP PUSH3 0x65F JUMP JUMPDEST DUP1 DUP3 ADD DUP1 MLOAD PUSH8 0xFFFFFFFFFFFFFFFF DUP2 GT ISZERO PUSH3 0x626 JUMPI POP POP POP POP PUSH3 0x65F JUMP JUMPDEST DUP1 PUSH1 0x20 DUP4 ADD ADD PUSH1 0x4 RETURNDATASIZE SUB DUP6 ADD DUP2 GT ISZERO PUSH3 0x645 JUMPI POP POP POP POP POP PUSH3 0x65F JUMP JUMPDEST PUSH3 0x656 DUP3 PUSH1 0x20 ADD DUP6 ADD DUP7 PUSH3 0x591 JUMP JUMPDEST DUP3 SWAP6 POP POP POP POP POP POP JUMPDEST SWAP1 JUMP JUMPDEST PUSH1 0x0 DUP2 MLOAD SWAP1 POP SWAP2 SWAP1 POP JUMP JUMPDEST PUSH1 0x0 DUP3 DUP3 MSTORE PUSH1 0x20 DUP3 ADD SWAP1 POP SWAP3 SWAP2 POP POP JUMP JUMPDEST PUSH1 0x0 JUMPDEST DUP4 DUP2 LT ISZERO PUSH3 0x69E JUMPI DUP1 DUP3 ADD MLOAD DUP2 DUP5 ADD MSTORE PUSH1 0x20 DUP2 ADD SWAP1 POP PUSH3 0x681 JUMP JUMPDEST PUSH1 0x0 DUP5 DUP5 ADD MSTORE POP POP POP POP JUMP JUMPDEST PUSH1 0x0 PUSH3 0x6B7 DUP3 PUSH3 0x662 JUMP JUMPDEST PUSH3 0x6C3 DUP2 DUP6 PUSH3 0x66D JUMP JUMPDEST SWAP4 POP PUSH3 0x6D5 DUP2 DUP6 PUSH1 0x20 DUP7 ADD PUSH3 0x67E JUMP JUMPDEST PUSH3 0x6E0 DUP2 PUSH3 0x551 JUMP JUMPDEST DUP5 ADD SWAP2 POP POP SWAP3 SWAP2 POP POP JUMP JUMPDEST PUSH1 0x0 PUSH1 0x20 DUP3 ADD SWAP1 POP DUP2 DUP2 SUB PUSH1 0x0 DUP4 ADD MSTORE PUSH3 0x707 DUP2 DUP5 PUSH3 0x6AA JUMP JUMPDEST SWAP1 POP SWAP3 SWAP2 POP POP JUMP JUMPDEST PUSH1 0x0 DUP2 MLOAD SWAP1 POP SWAP2 SWAP1 POP JUMP JUMPDEST PUSH1 0x0 DUP3 DUP3 MSTORE PUSH1 0x20 DUP3 ADD SWAP1 POP SWAP3 SWAP2 POP POP JUMP JUMPDEST PUSH1 0x0 PUSH3 0x738 DUP3 PUSH3 0x70F JUMP JUMPDEST PUSH3 0x744 DUP2 DUP6 PUSH3 0x71A JUMP JUMPDEST SWAP4 POP PUSH3 0x756 DUP2 DUP6 PUSH1 0x20 DUP7 ADD PUSH3 0x67E JUMP JUMPDEST PUSH3 0x761 DUP2 PUSH3 0x551 JUMP JUMPDEST DUP5 ADD SWAP2 POP POP SWAP3 SWAP2 POP POP JUMP JUMPDEST PUSH1 0x0 PUSH1 0x20 DUP3 ADD SWAP1 POP DUP2 DUP2 SUB PUSH1 0x0 DUP4 ADD MSTORE PUSH3 0x788 DUP2 DUP5 PUSH3 0x72B JUMP JUMPDEST SWAP1 POP SWAP3 SWAP2 POP POP JUMP JUMPDEST PUSH32 0x4D61696E20437265617465640000000000000000000000000000000000000000 PUSH1 0x0 DUP3 ADD MSTORE POP JUMP JUMPDEST PUSH1 0x0 PUSH3 0x7C8 PUSH1 0xC DUP4 PUSH3 0x66D JUMP JUMPDEST SWAP2 POP PUSH3 0x7D5 DUP3 PUSH3 0x790 JUMP JUMPDEST PUSH1 0x20 DUP3 ADD SWAP1 POP SWAP2 SWAP1 POP JUMP JUMPDEST PUSH1 0x0 PUSH1 0x20 DUP3 ADD SWAP1 POP DUP2 DUP2 SUB PUSH1 0x0 DUP4 ADD MSTORE PUSH3 0x7FB DUP2 PUSH3 0x7B9 JUMP JUMPDEST SWAP1 POP SWAP2 SWAP1 POP JUMP JUMPDEST PUSH3 0x80D DUP2 PUSH3 0x3FC JUMP JUMPDEST DUP3 MSTORE POP POP JUMP JUMPDEST PUSH1 0x0 PUSH1 0x20 DUP3 ADD SWAP1 POP PUSH3 0x82A PUSH1 0x0 DUP4 ADD DUP5 PUSH3 0x802 JUMP JUMPDEST SWAP3 SWAP2 POP POP JUMP JUMPDEST PUSH1 0x0 DUP1 REVERT JUMPDEST PUSH1 0x0 DUP1 REVERT JUMPDEST PUSH1 0x0 PUSH3 0x846 PUSH3 0x351 JUMP JUMPDEST SWAP1 POP PUSH3 0x854 DUP3 DUP3 PUSH3 0x591 JUMP JUMPDEST SWAP2 SWAP1 POP JUMP JUMPDEST PUSH1 0x0 PUSH8 0xFFFFFFFFFFFFFFFF DUP3 GT ISZERO PUSH3 0x877 JUMPI PUSH3 0x876 PUSH3 0x562 JUMP JUMPDEST JUMPDEST PUSH3 0x882 DUP3 PUSH3 0x551 JUMP JUMPDEST SWAP1 POP PUSH1 0x20 DUP2 ADD SWAP1 POP SWAP2 SWAP1 POP JUMP JUMPDEST PUSH1 0x0 PUSH3 0x8A6 PUSH3 0x8A0 DUP5 PUSH3 0x859 JUMP JUMPDEST PUSH3 0x83A JUMP JUMPDEST SWAP1 POP DUP3 DUP2 MSTORE PUSH1 0x20 DUP2 ADD DUP5 DUP5 DUP5 ADD GT ISZERO PUSH3 0x8C5 JUMPI PUSH3 0x8C4 PUSH3 0x835 JUMP JUMPDEST JUMPDEST PUSH3 0x8D2 DUP5 DUP3 DUP6 PUSH3 0x67E JUMP JUMPDEST POP SWAP4 SWAP3 POP POP POP JUMP JUMPDEST PUSH1 0x0 DUP3 PUSH1 0x1F DUP4 ADD SLT PUSH3 0x8F2 JUMPI PUSH3 0x8F1 PUSH3 0x830 JUMP JUMPDEST JUMPDEST DUP2 MLOAD PUSH3 0x904 DUP5 DUP3 PUSH1 0x20 DUP7 ADD PUSH3 0x88F JUMP JUMPDEST SWAP2 POP POP SWAP3 SWAP2 POP POP JUMP JUMPDEST PUSH1 0x0 PUSH1 0x20 DUP3 DUP5 SUB SLT ISZERO PUSH3 0x926 JUMPI PUSH3 0x925 PUSH3 0x35B JUMP JUMPDEST JUMPDEST PUSH1 0x0 DUP3 ADD MLOAD PUSH8 0xFFFFFFFFFFFFFFFF DUP2 GT ISZERO PUSH3 0x947 JUMPI PUSH3 0x946 PUSH3 0x360 JUMP JUMPDEST JUMPDEST PUSH3 0x955 DUP5 DUP3 DUP6 ADD PUSH3 0x8DA JUMP JUMPDEST SWAP2 POP POP SWAP3 SWAP2 POP POP JUMP JUMPDEST PUSH32 0x45787465726E616C2063616C6C206661696C6564000000000000000000000000 PUSH1 0x0 DUP3 ADD MSTORE POP JUMP JUMPDEST PUSH1 0x0 PUSH3 0x996 PUSH1 0x14 DUP4 PUSH3 0x66D JUMP JUMPDEST SWAP2 POP PUSH3 0x9A3 DUP3 PUSH3 0x95E JUMP JUMPDEST PUSH1 0x20 DUP3 ADD SWAP1 POP SWAP2 SWAP1 POP JUMP JUMPDEST PUSH1 0x0 PUSH1 0x20 DUP3 ADD SWAP1 POP DUP2 DUP2 SUB PUSH1 0x0 DUP4 ADD MSTORE PUSH3 0x9C9 DUP2 PUSH3 0x987 JUMP JUMPDEST SWAP1 POP SWAP2 SWAP1 POP JUMP INVALID PUSH1 0x80 PUSH1 0x40 MSTORE CALLVALUE DUP1 ISZERO PUSH2 0x10 JUMPI PUSH1 0x0 DUP1 REVERT JUMPDEST POP PUSH1 0x40 MLOAD PUSH2 0x5B6 CODESIZE SUB DUP1 PUSH2 0x5B6 DUP4 CODECOPY DUP2 DUP2 ADD PUSH1 0x40 MSTORE DUP2 ADD SWAP1 PUSH2 0x32 SWAP2 SWAP1 PUSH2 0x187 JUMP JUMPDEST PUSH1 0x0 PUSH20 0xFFFFFFFFFFFFFFFFFFFFFFFFFFFFFFFFFFFFFFFF AND DUP2 PUSH20 0xFFFFFFFFFFFFFFFFFFFFFFFFFFFFFFFFFFFFFFFF AND SUB PUSH2 0xA1 JUMPI PUSH1 0x40 MLOAD PUSH32 0x8C379A000000000000000000000000000000000000000000000000000000000 DUP2 MSTORE PUSH1 0x4 ADD PUSH2 0x98 SWAP1 PUSH2 0x211 JUMP JUMPDEST PUSH1 0x40 MLOAD DUP1 SWAP2 SUB SWAP1 REVERT JUMPDEST PUSH1 0x1 PUSH20 0xFFFFFFFFFFFFFFFFFFFFFFFFFFFFFFFFFFFFFFFF AND DUP2 PUSH20 0xFFFFFFFFFFFFFFFFFFFFFFFFFFFFFFFFFFFFFFFF AND SUB PUSH2 0xDE JUMPI PUSH2 0xDD PUSH2 0x231 JUMP JUMPDEST JUMPDEST DUP1 PUSH1 0x0 DUP1 PUSH2 0x100 EXP DUP2 SLOAD DUP2 PUSH20 0xFFFFFFFFFFFFFFFFFFFFFFFFFFFFFFFFFFFFFFFF MUL NOT AND SWAP1 DUP4 PUSH20 0xFFFFFFFFFFFFFFFFFFFFFFFFFFFFFFFFFFFFFFFF AND MUL OR SWAP1 SSTORE POP POP PUSH2 0x260 JUMP JUMPDEST PUSH1 0x0 DUP1 REVERT JUMPDEST PUSH1 0x0 PUSH20 0xFFFFFFFFFFFFFFFFFFFFFFFFFFFFFFFFFFFFFFFF DUP3 AND SWAP1 POP SWAP2 SWAP1 POP JUMP JUMPDEST PUSH1 0x0 PUSH2 0x154 DUP3 PUSH2 0x129 JUMP JUMPDEST SWAP1 POP SWAP2 SWAP1 POP JUMP JUMPDEST PUSH2 0x164 DUP2 PUSH2 0x149 JUMP JUMPDEST DUP2 EQ PUSH2 0x16F JUMPI PUSH1 0x0 DUP1 REVERT JUMPDEST POP JUMP JUMPDEST PUSH1 0x0 DUP2 MLOAD SWAP1 POP PUSH2 0x181 DUP2 PUSH2 0x15B JUMP JUMPDEST SWAP3 SWAP2 POP POP JUMP JUMPDEST PUSH1 0x0 PUSH1 0x20 DUP3 DUP5 SUB SLT ISZERO PUSH2 0x19D JUMPI PUSH2 0x19C PUSH2 0x124 JUMP JUMPDEST JUMPDEST PUSH1 0x0 PUSH2 0x1AB DUP5 DUP3 DUP6 ADD PUSH2 0x172 JUMP JUMPDEST SWAP2 POP POP SWAP3 SWAP2 POP POP JUMP JUMPDEST PUSH1 0x0 DUP3 DUP3 MSTORE PUSH1 0x20 DUP3 ADD SWAP1 POP SWAP3 SWAP2 POP POP JUMP JUMPDEST PUSH32 0x496E76616C696420416464726573730000000000000000000000000000000000 PUSH1 0x0 DUP3 ADD MSTORE POP JUMP JUMPDEST PUSH1 0x0 PUSH2 0x1FB PUSH1 0xF DUP4 PUSH2 0x1B4 JUMP JUMPDEST SWAP2 POP PUSH2 0x206 DUP3 PUSH2 0x1C5 JUMP JUMPDEST PUSH1 0x20 DUP3 ADD SWAP1 POP SWAP2 SWAP1 POP JUMP JUMPDEST PUSH1 0x0 PUSH1 0x20 DUP3 ADD SWAP1 POP DUP2 DUP2 SUB PUSH1 0x0 DUP4 ADD MSTORE PUSH2 0x22A DUP2 PUSH2 0x1EE JUMP JUMPDEST SWAP1 POP SWAP2 SWAP1 POP JUMP JUMPDEST PUSH32 0x4E487B7100000000000000000000000000000000000000000000000000000000 PUSH1 0x0 MSTORE PUSH1 0x1 PUSH1 0x4 MSTORE PUSH1 0x24 PUSH1 0x0 REVERT JUMPDEST PUSH2 0x347 DUP1 PUSH2 0x26F PUSH1 0x0 CODECOPY PUSH1 0x0 RETURN INVALID PUSH1 0x80 PUSH1 0x40 MSTORE CALLVALUE DUP1 ISZERO PUSH2 0x10 JUMPI PUSH1 0x0 DUP1 REVERT JUMPDEST POP PUSH1 0x4 CALLDATASIZE LT PUSH2 0x36 JUMPI PUSH1 0x0 CALLDATALOAD PUSH1 0xE0 SHR DUP1 PUSH4 0x8DA5CB5B EQ PUSH2 0x3B JUMPI DUP1 PUSH4 0xA9BF5633 EQ PUSH2 0x59 JUMPI JUMPDEST PUSH1 0x0 DUP1 REVERT JUMPDEST PUSH2 0x43 PUSH2 0x89 JUMP JUMPDEST PUSH1 0x40 MLOAD PUSH2 0x50 SWAP2 SWAP1 PUSH2 0x170 JUMP JUMPDEST PUSH1 0x40 MLOAD DUP1 SWAP2 SUB SWAP1 RETURN JUMPDEST PUSH2 0x73 PUSH1 0x4 DUP1 CALLDATASIZE SUB DUP2 ADD SWAP1 PUSH2 0x6E SWAP2 SWAP1 PUSH2 0x1C6 JUMP JUMPDEST PUSH2 0xAD JUMP JUMPDEST PUSH1 0x40 MLOAD PUSH2 0x80 SWAP2 SWAP1 PUSH2 0x283 JUMP JUMPDEST PUSH1 0x40 MLOAD DUP1 SWAP2 SUB SWAP1 RETURN JUMPDEST PUSH1 0x0 DUP1 SLOAD SWAP1 PUSH2 0x100 EXP SWAP1 DIV PUSH20 0xFFFFFFFFFFFFFFFFFFFFFFFFFFFFFFFFFFFFFFFF AND DUP2 JUMP JUMPDEST PUSH1 0x60 PUSH1 0x0 DUP3 SUB PUSH2 0xF2 JUMPI PUSH1 0x40 MLOAD PUSH32 0x8C379A000000000000000000000000000000000000000000000000000000000 DUP2 MSTORE PUSH1 0x4 ADD PUSH2 0xE9 SWAP1 PUSH2 0x2F1 JUMP JUMPDEST PUSH1 0x40 MLOAD DUP1 SWAP2 SUB SWAP1 REVERT JUMPDEST PUSH1 0x40 MLOAD DUP1 PUSH1 0x40 ADD PUSH1 0x40 MSTORE DUP1 PUSH1 0x11 DUP2 MSTORE PUSH1 0x20 ADD PUSH32 0x6D7946756E63207761732063616C6C6564000000000000000000000000000000 DUP2 MSTORE POP SWAP1 POP SWAP2 SWAP1 POP JUMP JUMPDEST PUSH1 0x0 PUSH20 0xFFFFFFFFFFFFFFFFFFFFFFFFFFFFFFFFFFFFFFFF DUP3 AND SWAP1 POP SWAP2 SWAP1 POP JUMP JUMPDEST PUSH1 0x0 PUSH2 0x15A DUP3 PUSH2 0x12F JUMP JUMPDEST SWAP1 POP SWAP2 SWAP1 POP JUMP JUMPDEST PUSH2 0x16A DUP2 PUSH2 0x14F JUMP JUMPDEST DUP3 MSTORE POP POP JUMP JUMPDEST PUSH1 0x0 PUSH1 0x20 DUP3 ADD SWAP1 POP PUSH2 0x185 PUSH1 0x0 DUP4 ADD DUP5 PUSH2 0x161 JUMP JUMPDEST SWAP3 SWAP2 POP POP JUMP JUMPDEST PUSH1 0x0 DUP1 REVERT JUMPDEST PUSH1 0x0 DUP2 SWAP1 POP SWAP2 SWAP1 POP JUMP JUMPDEST PUSH2 0x1A3 DUP2 PUSH2 0x190 JUMP JUMPDEST DUP2 EQ PUSH2 0x1AE JUMPI PUSH1 0x0 DUP1 REVERT JUMPDEST POP JUMP JUMPDEST PUSH1 0x0 DUP2 CALLDATALOAD SWAP1 POP PUSH2 0x1C0 DUP2 PUSH2 0x19A JUMP JUMPDEST SWAP3 SWAP2 POP POP JUMP JUMPDEST PUSH1 0x0 PUSH1 0x20 DUP3 DUP5 SUB SLT ISZERO PUSH2 0x1DC JUMPI PUSH2 0x1DB PUSH2 0x18B JUMP JUMPDEST JUMPDEST PUSH1 0x0 PUSH2 0x1EA DUP5 DUP3 DUP6 ADD PUSH2 0x1B1 JUMP JUMPDEST SWAP2 POP POP SWAP3 SWAP2 POP POP JUMP JUMPDEST PUSH1 0x0 DUP2 MLOAD SWAP1 POP SWAP2 SWAP1 POP JUMP JUMPDEST PUSH1 0x0 DUP3 DUP3 MSTORE PUSH1 0x20 DUP3 ADD SWAP1 POP SWAP3 SWAP2 POP POP JUMP JUMPDEST PUSH1 0x0 JUMPDEST DUP4 DUP2 LT ISZERO PUSH2 0x22D JUMPI DUP1 DUP3 ADD MLOAD DUP2 DUP5 ADD MSTORE PUSH1 0x20 DUP2 ADD SWAP1 POP PUSH2 0x212 JUMP JUMPDEST PUSH1 0x0 DUP5 DUP5 ADD MSTORE POP POP POP POP JUMP JUMPDEST PUSH1 0x0 PUSH1 0x1F NOT PUSH1 0x1F DUP4 ADD AND SWAP1 POP SWAP2 SWAP1 POP JUMP JUMPDEST PUSH1 0x0 PUSH2 0x255 DUP3 PUSH2 0x1F3 JUMP JUMPDEST PUSH2 0x25F DUP2 DUP6 PUSH2 0x1FE JUMP JUMPDEST SWAP4 POP PUSH2 0x26F DUP2 DUP6 PUSH1 0x20 DUP7 ADD PUSH2 0x20F JUMP JUMPDEST PUSH2 0x278 DUP2 PUSH2 0x239 JUMP JUMPDEST DUP5 ADD SWAP2 POP POP SWAP3 SWAP2 POP POP JUMP JUMPDEST PUSH1 0x0 PUSH1 0x20 DUP3 ADD SWAP1 POP DUP2 DUP2 SUB PUSH1 0x0 DUP4 ADD MSTORE PUSH2 0x29D DUP2 DUP5 PUSH2 0x24A JUMP JUMPDEST SWAP1 POP SWAP3 SWAP2 POP POP JUMP JUMPDEST PUSH32 0x52457175697265204661696C6564210000000000000000000000000000000000 PUSH1 0x0 DUP3 ADD MSTORE POP JUMP JUMPDEST PUSH1 0x0 PUSH2 0x2DB PUSH1 0xF DUP4 PUSH2 0x1FE JUMP JUMPDEST SWAP2 POP PUSH2 0x2E6 DUP3 PUSH2 0x2A5 JUMP JUMPDEST PUSH1 0x20 DUP3 ADD SWAP1 POP SWAP2 SWAP1 POP JUMP JUMPDEST PUSH1 0x0 PUSH1 0x20 DUP3 ADD SWAP1 POP DUP2 DUP2 SUB PUSH1 0x0 DUP4 ADD MSTORE PUSH2 0x30A DUP2 PUSH2 0x2CE JUMP JUMPDEST SWAP1 POP SWAP2 SWAP1 POP JUMP INVALID LOG2 PUSH5 0x6970667358 0x22 SLT KECCAK256 SWAP13 0xF9 LOG4 0xBC DUP14 JUMP MSTORE8 0xEE LOG2 0x26 NOT 0xE4 PUSH15 0x976F9C9B040AA96F60455DDC2E93E6 0xD4 PUSH21 0xA0B964736F6C63430008120033A264697066735822 SLT KECCAK256 EQ 0xAB GAS JUMPI DUP4 RETURNDATASIZE BALANCE MOD AND 0x2C GAS MULMOD SLT BLOCKHASH 0xC1 MULMOD PUSH12 0x45A747ADA7CF3D38C57CE8F7 KECCAK256 0xDD SWAP10 PUSH5 0x736F6C6343 STOP ADDMOD SLT STOP CALLER PUSH1 0x80 PUSH1 0x40 MSTORE CALLVALUE DUP1 ISZERO PUSH2 0x10 JUMPI PUSH1 0x0 DUP1 REVERT JUMPDEST POP PUSH1 0x40 MLOAD PUSH2 0x5B6 CODESIZE SUB DUP1 PUSH2 0x5B6 DUP4 CODECOPY DUP2 DUP2 ADD PUSH1 0x40 MSTORE DUP2 ADD SWAP1 PUSH2 0x32 SWAP2 SWAP1 PUSH2 0x187 JUMP JUMPDEST PUSH1 0x0 PUSH20 0xFFFFFFFFFFFFFFFFFFFFFFFFFFFFFFFFFFFFFFFF AND DUP2 PUSH20 0xFFFFFFFFFFFFFFFFFFFFFFFFFFFFFFFFFFFFFFFF AND SUB PUSH2 0xA1 JUMPI PUSH1 0x40 MLOAD PUSH32 0x8C379A000000000000000000000000000000000000000000000000000000000 DUP2 MSTORE PUSH1 0x4 ADD PUSH2 0x98 SWAP1 PUSH2 0x211 JUMP JUMPDEST PUSH1 0x40 MLOAD DUP1 SWAP2 SUB SWAP1 REVERT JUMPDEST PUSH1 0x1 PUSH20 0xFFFFFFFFFFFFFFFFFFFFFFFFFFFFFFFFFFFFFFFF AND DUP2 PUSH20 0xFFFFFFFFFFFFFFFFFFFFFFFFFFFFFFFFFFFFFFFF AND SUB PUSH2 0xDE JUMPI PUSH2 0xDD PUSH2 0x231 JUMP JUMPDEST JUMPDEST DUP1 PUSH1 0x0 DUP1 PUSH2 0x100 EXP DUP2 SLOAD DUP2 PUSH20 0xFFFFFFFFFFFFFFFFFFFFFFFFFFFFFFFFFFFFFFFF MUL NOT AND SWAP1 DUP4 PUSH20 0xFFFFFFFFFFFFFFFFFFFFFFFFFFFFFFFFFFFFFFFF AND MUL OR SWAP1 SSTORE POP POP PUSH2 0x260 JUMP JUMPDEST PUSH1 0x0 DUP1 REVERT JUMPDEST PUSH1 0x0 PUSH20 0xFFFFFFFFFFFFFFFFFFFFFFFFFFFFFFFFFFFFFFFF DUP3 AND SWAP1 POP SWAP2 SWAP1 POP JUMP JUMPDEST PUSH1 0x0 PUSH2 0x154 DUP3 PUSH2 0x129 JUMP JUMPDEST SWAP1 POP SWAP2 SWAP1 POP JUMP JUMPDEST PUSH2 0x164 DUP2 PUSH2 0x149 JUMP JUMPDEST DUP2 EQ PUSH2 0x16F JUMPI PUSH1 0x0 DUP1 REVERT JUMPDEST POP JUMP JUMPDEST PUSH1 0x0 DUP2 MLOAD SWAP1 POP PUSH2 0x181 DUP2 PUSH2 0x15B JUMP JUMPDEST SWAP3 SWAP2 POP POP JUMP JUMPDEST PUSH1 0x0 PUSH1 0x20 DUP3 DUP5 SUB SLT ISZERO PUSH2 0x19D JUMPI PUSH2 0x19C PUSH2 0x124 JUMP JUMPDEST JUMPDEST PUSH1 0x0 PUSH2 0x1AB DUP5 DUP3 DUP6 ADD PUSH2 0x172 JUMP JUMPDEST SWAP2 POP POP SWAP3 SWAP2 POP POP JUMP JUMPDEST PUSH1 0x0 DUP3 DUP3 MSTORE PUSH1 0x20 DUP3 ADD SWAP1 POP SWAP3 SWAP2 POP POP JUMP JUMPDEST PUSH32 0x496E76616C696420416464726573730000000000000000000000000000000000 PUSH1 0x0 DUP3 ADD MSTORE POP JUMP JUMPDEST PUSH1 0x0 PUSH2 0x1FB PUSH1 0xF DUP4 PUSH2 0x1B4 JUMP JUMPDEST SWAP2 POP PUSH2 0x206 DUP3 PUSH2 0x1C5 JUMP JUMPDEST PUSH1 0x20 DUP3 ADD SWAP1 POP SWAP2 SWAP1 POP JUMP JUMPDEST PUSH1 0x0 PUSH1 0x20 DUP3 ADD SWAP1 POP DUP2 DUP2 SUB PUSH1 0x0 DUP4 ADD MSTORE PUSH2 0x22A DUP2 PUSH2 0x1EE JUMP JUMPDEST SWAP1 POP SWAP2 SWAP1 POP JUMP JUMPDEST PUSH32 0x4E487B7100000000000000000000000000000000000000000000000000000000 PUSH1 0x0 MSTORE PUSH1 0x1 PUSH1 0x4 MSTORE PUSH1 0x24 PUSH1 0x0 REVERT JUMPDEST PUSH2 0x347 DUP1 PUSH2 0x26F PUSH1 0x0 CODECOPY PUSH1 0x0 RETURN INVALID PUSH1 0x80 PUSH1 0x40 MSTORE CALLVALUE DUP1 ISZERO PUSH2 0x10 JUMPI PUSH1 0x0 DUP1 REVERT JUMPDEST POP PUSH1 0x4 CALLDATASIZE LT PUSH2 0x36 JUMPI PUSH1 0x0 CALLDATALOAD PUSH1 0xE0 SHR DUP1 PUSH4 0x8DA5CB5B EQ PUSH2 0x3B JUMPI DUP1 PUSH4 0xA9BF5633 EQ PUSH2 0x59 JUMPI JUMPDEST PUSH1 0x0 DUP1 REVERT JUMPDEST PUSH2 0x43 PUSH2 0x89 JUMP JUMPDEST PUSH1 0x40 MLOAD PUSH2 0x50 SWAP2 SWAP1 PUSH2 0x170 JUMP JUMPDEST PUSH1 0x40 MLOAD DUP1 SWAP2 SUB SWAP1 RETURN JUMPDEST PUSH2 0x73 PUSH1 0x4 DUP1 CALLDATASIZE SUB DUP2 ADD SWAP1 PUSH2 0x6E SWAP2 SWAP1 PUSH2 0x1C6 JUMP JUMPDEST PUSH2 0xAD JUMP JUMPDEST PUSH1 0x40 MLOAD PUSH2 0x80 SWAP2 SWAP1 PUSH2 0x283 JUMP JUMPDEST PUSH1 0x40 MLOAD DUP1 SWAP2 SUB SWAP1 RETURN JUMPDEST PUSH1 0x0 DUP1 SLOAD SWAP1 PUSH2 0x100 EXP SWAP1 DIV PUSH20 0xFFFFFFFFFFFFFFFFFFFFFFFFFFFFFFFFFFFFFFFF AND DUP2 JUMP JUMPDEST PUSH1 0x60 PUSH1 0x0 DUP3 SUB PUSH2 0xF2 JUMPI PUSH1 0x40 MLOAD PUSH32 0x8C379A000000000000000000000000000000000000000000000000000000000 DUP2 MSTORE PUSH1 0x4 ADD PUSH2 0xE9 SWAP1 PUSH2 0x2F1 JUMP JUMPDEST PUSH1 0x40 MLOAD DUP1 SWAP2 SUB SWAP1 REVERT JUMPDEST PUSH1 0x40 MLOAD DUP1 PUSH1 0x40 ADD PUSH1 0x40 MSTORE DUP1 PUSH1 0x11 DUP2 MSTORE PUSH1 0x20 ADD PUSH32 0x6D7946756E63207761732063616C6C6564000000000000000000000000000000 DUP2 MSTORE POP SWAP1 POP SWAP2 SWAP1 POP JUMP JUMPDEST PUSH1 0x0 PUSH20 0xFFFFFFFFFFFFFFFFFFFFFFFFFFFFFFFFFFFFFFFF DUP3 AND SWAP1 POP SWAP2 SWAP1 POP JUMP JUMPDEST PUSH1 0x0 PUSH2 0x15A DUP3 PUSH2 0x12F JUMP JUMPDEST SWAP1 POP SWAP2 SWAP1 POP JUMP JUMPDEST PUSH2 0x16A DUP2 PUSH2 0x14F JUMP JUMPDEST DUP3 MSTORE POP POP JUMP JUMPDEST PUSH1 0x0 PUSH1 0x20 DUP3 ADD SWAP1 POP PUSH2 0x185 PUSH1 0x0 DUP4 ADD DUP5 PUSH2 0x161 JUMP JUMPDEST SWAP3 SWAP2 POP POP JUMP JUMPDEST PUSH1 0x0 DUP1 REVERT JUMPDEST PUSH1 0x0 DUP2 SWAP1 POP SWAP2 SWAP1 POP JUMP JUMPDEST PUSH2 0x1A3 DUP2 PUSH2 0x190 JUMP JUMPDEST DUP2 EQ PUSH2 0x1AE JUMPI PUSH1 0x0 DUP1 REVERT JUMPDEST POP JUMP JUMPDEST PUSH1 0x0 DUP2 CALLDATALOAD SWAP1 POP PUSH2 0x1C0 DUP2 PUSH2 0x19A JUMP JUMPDEST SWAP3 SWAP2 POP POP JUMP JUMPDEST PUSH1 0x0 PUSH1 0x20 DUP3 DUP5 SUB SLT ISZERO PUSH2 0x1DC JUMPI PUSH2 0x1DB PUSH2 0x18B JUMP JUMPDEST JUMPDEST PUSH1 0x0 PUSH2 0x1EA DUP5 DUP3 DUP6 ADD PUSH2 0x1B1 JUMP JUMPDEST SWAP2 POP POP SWAP3 SWAP2 POP POP JUMP JUMPDEST PUSH1 0x0 DUP2 MLOAD SWAP1 POP SWAP2 SWAP1 POP JUMP JUMPDEST PUSH1 0x0 DUP3 DUP3 MSTORE PUSH1 0x20 DUP3 ADD SWAP1 POP SWAP3 SWAP2 POP POP JUMP JUMPDEST PUSH1 0x0 JUMPDEST DUP4 DUP2 LT ISZERO PUSH2 0x22D JUMPI DUP1 DUP3 ADD MLOAD DUP2 DUP5 ADD MSTORE PUSH1 0x20 DUP2 ADD SWAP1 POP PUSH2 0x212 JUMP JUMPDEST PUSH1 0x0 DUP5 DUP5 ADD MSTORE POP POP POP POP JUMP JUMPDEST PUSH1 0x0 PUSH1 0x1F NOT PUSH1 0x1F DUP4 ADD AND SWAP1 POP SWAP2 SWAP1 POP JUMP JUMPDEST PUSH1 0x0 PUSH2 0x255 DUP3 PUSH2 0x1F3 JUMP JUMPDEST PUSH2 0x25F DUP2 DUP6 PUSH2 0x1FE JUMP JUMPDEST SWAP4 POP PUSH2 0x26F DUP2 DUP6 PUSH1 0x20 DUP7 ADD PUSH2 0x20F JUMP JUMPDEST PUSH2 0x278 DUP2 PUSH2 0x239 JUMP JUMPDEST DUP5 ADD SWAP2 POP POP SWAP3 SWAP2 POP POP JUMP JUMPDEST PUSH1 0x0 PUSH1 0x20 DUP3 ADD SWAP1 POP DUP2 DUP2 SUB PUSH1 0x0 DUP4 ADD MSTORE PUSH2 0x29D DUP2 DUP5 PUSH2 0x24A JUMP JUMPDEST SWAP1 POP SWAP3 SWAP2 POP POP JUMP JUMPDEST PUSH32 0x52457175697265204661696C6564210000000000000000000000000000000000 PUSH1 0x0 DUP3 ADD MSTORE POP JUMP JUMPDEST PUSH1 0x0 PUSH2 0x2DB PUSH1 0xF DUP4 PUSH2 0x1FE JUMP JUMPDEST SWAP2 POP PUSH2 0x2E6 DUP3 PUSH2 0x2A5 JUMP JUMPDEST PUSH1 0x20 DUP3 ADD SWAP1 POP SWAP2 SWAP1 POP JUMP JUMPDEST PUSH1 0x0 PUSH1 0x20 DUP3 ADD SWAP1 POP DUP2 DUP2 SUB PUSH1 0x0 DUP4 ADD MSTORE PUSH2 0x30A DUP2 PUSH2 0x2CE JUMP JUMPDEST SWAP1 POP SWAP2 SWAP1 POP JUMP INVALID LOG2 PUSH5 0x6970667358 0x22 SLT KECCAK256 SWAP13 0xF9 LOG4 0xBC DUP14 JUMP MSTORE8 0xEE LOG2 0x26 NOT 0xE4 PUSH15 0x976F9C9B040AA96F60455DDC2E93E6 0xD4 PUSH21 0xA0B964736F6C634300081200330000000000000000 "
				},
				"gasEstimates": {
					"creation": {
						"codeDepositCost": "805600",
						"executionCost": "infinite",
						"totalCost": "infinite"
					},
					"external": {
						"main()": "infinite",
						"tryCatchExternalCall(uint256)": "infinite",
						"tryCatchNewContract(address)": "infinite"
					}
				},
				"methodIdentifiers": {
					"main()": "dffeadd0",
					"tryCatchExternalCall(uint256)": "933ac084",
					"tryCatchNewContract(address)": "77bdab83"
				}
			},
			"storageLayout": {
				"storage": [
					{
						"astId": 58,
						"contract": "contracts/try_catch.sol:child",
						"label": "main",
						"offset": 0,
						"slot": "0",
						"type": "t_contract(Main)47"
					}
				],
				"types": {
					"t_contract(Main)47": {
						"encoding": "inplace",
						"label": "contract Main",
						"numberOfBytes": "20"
					}
				}
			},
			"userdoc": {
				"kind": "user",
				"methods": {},
				"version": 1
			}
		}
	}
}