{
	"contracts/HOW_library_creation_use.sol": {
		"TestArray": {
			"abi": [
				{
					"inputs": [
						{
							"internalType": "uint256",
							"name": "",
							"type": "uint256"
						}
					],
					"name": "arr",
					"outputs": [
						{
							"internalType": "uint256",
							"name": "",
							"type": "uint256"
						}
					],
					"stateMutability": "view",
					"type": "function"
				},
				{
					"inputs": [],
					"name": "testArrayRemove",
					"outputs": [],
					"stateMutability": "nonpayable",
					"type": "function"
				}
			],
			"devdoc": {
				"kind": "dev",
				"methods": {},
				"version": 1
			},
			"evm": {
				"assembly": "    /* \"contracts/HOW_library_creation_use.sol\":1031:1361  contract TestArray{... */\n  mstore(0x40, 0x80)\n  callvalue\n  dup1\n  iszero\n  tag_1\n  jumpi\n  0x00\n  dup1\n  revert\ntag_1:\n  pop\n  dataSize(sub_0)\n  dup1\n  dataOffset(sub_0)\n  0x00\n  codecopy\n  0x00\n  return\nstop\n\nsub_0: assembly {\n        /* \"contracts/HOW_library_creation_use.sol\":1031:1361  contract TestArray{... */\n      mstore(0x40, 0x80)\n      callvalue\n      dup1\n      iszero\n      tag_1\n      jumpi\n      0x00\n      dup1\n      revert\n    tag_1:\n      pop\n      jumpi(tag_2, lt(calldatasize, 0x04))\n      shr(0xe0, calldataload(0x00))\n      dup1\n      0x25afcbfb\n      eq\n      tag_3\n      jumpi\n      dup1\n      0x71e5ee5f\n      eq\n      tag_4\n      jumpi\n    tag_2:\n      0x00\n      dup1\n      revert\n        /* \"contracts/HOW_library_creation_use.sol\":1151:1358  function testArrayRemove() public{... */\n    tag_3:\n      tag_5\n      tag_6\n      jump\t// in\n    tag_5:\n      stop\n        /* \"contracts/HOW_library_creation_use.sol\":1129:1146  uint[] public arr */\n    tag_4:\n      tag_7\n      0x04\n      dup1\n      calldatasize\n      sub\n      dup2\n      add\n      swap1\n      tag_8\n      swap2\n      swap1\n      tag_9\n      jump\t// in\n    tag_8:\n      tag_10\n      jump\t// in\n    tag_7:\n      mload(0x40)\n      tag_11\n      swap2\n      swap1\n      tag_12\n      jump\t// in\n    tag_11:\n      mload(0x40)\n      dup1\n      swap2\n      sub\n      swap1\n      return\n        /* \"contracts/HOW_library_creation_use.sol\":1151:1358  function testArrayRemove() public{... */\n    tag_6:\n        /* \"contracts/HOW_library_creation_use.sol\":1196:1202  uint i */\n      0x00\n        /* \"contracts/HOW_library_creation_use.sol\":1191:1247  for (uint i = 0; i < 3; i++){... */\n    tag_14:\n        /* \"contracts/HOW_library_creation_use.sol\":1212:1213  3 */\n      0x03\n        /* \"contracts/HOW_library_creation_use.sol\":1208:1209  i */\n      dup2\n        /* \"contracts/HOW_library_creation_use.sol\":1208:1213  i < 3 */\n      lt\n        /* \"contracts/HOW_library_creation_use.sol\":1191:1247  for (uint i = 0; i < 3; i++){... */\n      iszero\n      tag_15\n      jumpi\n        /* \"contracts/HOW_library_creation_use.sol\":1228:1231  arr */\n      0x00\n        /* \"contracts/HOW_library_creation_use.sol\":1237:1238  i */\n      dup2\n        /* \"contracts/HOW_library_creation_use.sol\":1228:1239  arr.push(i) */\n      swap1\n      dup1\n      0x01\n      dup2\n      sload\n      add\n      dup1\n      dup3\n      sstore\n      dup1\n      swap2\n      pop\n      pop\n      0x01\n      swap1\n      sub\n      swap1\n      0x00\n      mstore\n      keccak256(0x00, 0x20)\n      add\n      0x00\n      swap1\n      swap2\n      swap1\n      swap2\n      swap1\n      swap2\n      pop\n      sstore\n        /* \"contracts/HOW_library_creation_use.sol\":1215:1218  i++ */\n      dup1\n      dup1\n      tag_18\n      swap1\n      tag_19\n      jump\t// in\n    tag_18:\n      swap2\n      pop\n      pop\n        /* \"contracts/HOW_library_creation_use.sol\":1191:1247  for (uint i = 0; i < 3; i++){... */\n      jump(tag_14)\n    tag_15:\n      pop\n        /* \"contracts/HOW_library_creation_use.sol\":1255:1258  arr */\n      0x00\n        /* \"contracts/HOW_library_creation_use.sol\":1255:1265  arr.remove */\n      linkerSymbol(\"8534a0d1864a1a48a6bfda563468ba01ba27bf8e1029314c0acd03d0a591621f\")\n      0x677ca2d8\n      swap1\n      swap2\n        /* \"contracts/HOW_library_creation_use.sol\":1266:1267  1 */\n      0x01\n        /* \"contracts/HOW_library_creation_use.sol\":1255:1268  arr.remove(1) */\n      mload(0x40)\n      dup4\n      0xffffffff\n      and\n      0xe0\n      shl\n      dup2\n      mstore\n      0x04\n      add\n      tag_20\n      swap3\n      swap2\n      swap1\n      tag_21\n      jump\t// in\n    tag_20:\n      0x00\n      mload(0x40)\n      dup1\n      dup4\n      sub\n      dup2\n      dup7\n      dup1\n      extcodesize\n      iszero\n      dup1\n      iszero\n      tag_22\n      jumpi\n      0x00\n      dup1\n      revert\n    tag_22:\n      pop\n      gas\n      delegatecall\n      iszero\n      dup1\n      iszero\n      tag_24\n      jumpi\n      returndatasize\n      0x00\n      dup1\n      returndatacopy\n      revert(0x00, returndatasize)\n    tag_24:\n      pop\n      pop\n      pop\n      pop\n        /* \"contracts/HOW_library_creation_use.sol\":1298:1299  2 */\n      0x02\n        /* \"contracts/HOW_library_creation_use.sol\":1284:1287  arr */\n      0x00\n        /* \"contracts/HOW_library_creation_use.sol\":1284:1294  arr.length */\n      dup1\n      sload\n      swap1\n      pop\n        /* \"contracts/HOW_library_creation_use.sol\":1284:1299  arr.length == 2 */\n      eq\n        /* \"contracts/HOW_library_creation_use.sol\":1277:1300  assert(arr.length == 2) */\n      tag_25\n      jumpi\n      tag_26\n      tag_27\n      jump\t// in\n    tag_26:\n    tag_25:\n        /* \"contracts/HOW_library_creation_use.sol\":1324:1325  0 */\n      0x00\n        /* \"contracts/HOW_library_creation_use.sol\":1314:1317  arr */\n      dup1\n        /* \"contracts/HOW_library_creation_use.sol\":1318:1319  0 */\n      0x00\n        /* \"contracts/HOW_library_creation_use.sol\":1314:1320  arr[0] */\n      dup2\n      sload\n      dup2\n      lt\n      tag_28\n      jumpi\n      tag_29\n      tag_30\n      jump\t// in\n    tag_29:\n    tag_28:\n      swap1\n      0x00\n      mstore\n      keccak256(0x00, 0x20)\n      add\n      sload\n        /* \"contracts/HOW_library_creation_use.sol\":1314:1325  arr[0] == 0 */\n      eq\n        /* \"contracts/HOW_library_creation_use.sol\":1307:1326  assert(arr[0] == 0) */\n      tag_32\n      jumpi\n      tag_33\n      tag_27\n      jump\t// in\n    tag_33:\n    tag_32:\n        /* \"contracts/HOW_library_creation_use.sol\":1350:1351  2 */\n      0x02\n        /* \"contracts/HOW_library_creation_use.sol\":1340:1343  arr */\n      0x00\n        /* \"contracts/HOW_library_creation_use.sol\":1344:1345  1 */\n      0x01\n        /* \"contracts/HOW_library_creation_use.sol\":1340:1346  arr[1] */\n      dup2\n      sload\n      dup2\n      lt\n      tag_34\n      jumpi\n      tag_35\n      tag_30\n      jump\t// in\n    tag_35:\n    tag_34:\n      swap1\n      0x00\n      mstore\n      keccak256(0x00, 0x20)\n      add\n      sload\n        /* \"contracts/HOW_library_creation_use.sol\":1340:1351  arr[1] == 2 */\n      eq\n        /* \"contracts/HOW_library_creation_use.sol\":1333:1352  assert(arr[1] == 2) */\n      tag_37\n      jumpi\n      tag_38\n      tag_27\n      jump\t// in\n    tag_38:\n    tag_37:\n        /* \"contracts/HOW_library_creation_use.sol\":1151:1358  function testArrayRemove() public{... */\n      jump\t// out\n        /* \"contracts/HOW_library_creation_use.sol\":1129:1146  uint[] public arr */\n    tag_10:\n      0x00\n      dup2\n      dup2\n      sload\n      dup2\n      lt\n      tag_39\n      jumpi\n      0x00\n      dup1\n      revert\n    tag_39:\n      swap1\n      0x00\n      mstore\n      keccak256(0x00, 0x20)\n      add\n      0x00\n      swap2\n      pop\n      swap1\n      pop\n      sload\n      dup2\n      jump\t// out\n        /* \"#utility.yul\":88:205   */\n    tag_42:\n        /* \"#utility.yul\":197:198   */\n      0x00\n        /* \"#utility.yul\":194:195   */\n      dup1\n        /* \"#utility.yul\":187:199   */\n      revert\n        /* \"#utility.yul\":334:411   */\n    tag_44:\n        /* \"#utility.yul\":371:378   */\n      0x00\n        /* \"#utility.yul\":400:405   */\n      dup2\n        /* \"#utility.yul\":389:405   */\n      swap1\n      pop\n        /* \"#utility.yul\":334:411   */\n      swap2\n      swap1\n      pop\n      jump\t// out\n        /* \"#utility.yul\":417:539   */\n    tag_45:\n        /* \"#utility.yul\":490:514   */\n      tag_60\n        /* \"#utility.yul\":508:513   */\n      dup2\n        /* \"#utility.yul\":490:514   */\n      tag_44\n      jump\t// in\n    tag_60:\n        /* \"#utility.yul\":483:488   */\n      dup2\n        /* \"#utility.yul\":480:515   */\n      eq\n        /* \"#utility.yul\":470:533   */\n      tag_61\n      jumpi\n        /* \"#utility.yul\":529:530   */\n      0x00\n        /* \"#utility.yul\":526:527   */\n      dup1\n        /* \"#utility.yul\":519:531   */\n      revert\n        /* \"#utility.yul\":470:533   */\n    tag_61:\n        /* \"#utility.yul\":417:539   */\n      pop\n      jump\t// out\n        /* \"#utility.yul\":545:684   */\n    tag_46:\n        /* \"#utility.yul\":591:596   */\n      0x00\n        /* \"#utility.yul\":629:635   */\n      dup2\n        /* \"#utility.yul\":616:636   */\n      calldataload\n        /* \"#utility.yul\":607:636   */\n      swap1\n      pop\n        /* \"#utility.yul\":645:678   */\n      tag_63\n        /* \"#utility.yul\":672:677   */\n      dup2\n        /* \"#utility.yul\":645:678   */\n      tag_45\n      jump\t// in\n    tag_63:\n        /* \"#utility.yul\":545:684   */\n      swap3\n      swap2\n      pop\n      pop\n      jump\t// out\n        /* \"#utility.yul\":690:1019   */\n    tag_9:\n        /* \"#utility.yul\":749:755   */\n      0x00\n        /* \"#utility.yul\":798:800   */\n      0x20\n        /* \"#utility.yul\":786:795   */\n      dup3\n        /* \"#utility.yul\":777:784   */\n      dup5\n        /* \"#utility.yul\":773:796   */\n      sub\n        /* \"#utility.yul\":769:801   */\n      slt\n        /* \"#utility.yul\":766:885   */\n      iszero\n      tag_65\n      jumpi\n        /* \"#utility.yul\":804:883   */\n      tag_66\n      tag_42\n      jump\t// in\n    tag_66:\n        /* \"#utility.yul\":766:885   */\n    tag_65:\n        /* \"#utility.yul\":924:925   */\n      0x00\n        /* \"#utility.yul\":949:1002   */\n      tag_67\n        /* \"#utility.yul\":994:1001   */\n      dup5\n        /* \"#utility.yul\":985:991   */\n      dup3\n        /* \"#utility.yul\":974:983   */\n      dup6\n        /* \"#utility.yul\":970:992   */\n      add\n        /* \"#utility.yul\":949:1002   */\n      tag_46\n      jump\t// in\n    tag_67:\n        /* \"#utility.yul\":939:1002   */\n      swap2\n      pop\n        /* \"#utility.yul\":895:1012   */\n      pop\n        /* \"#utility.yul\":690:1019   */\n      swap3\n      swap2\n      pop\n      pop\n      jump\t// out\n        /* \"#utility.yul\":1025:1143   */\n    tag_47:\n        /* \"#utility.yul\":1112:1136   */\n      tag_69\n        /* \"#utility.yul\":1130:1135   */\n      dup2\n        /* \"#utility.yul\":1112:1136   */\n      tag_44\n      jump\t// in\n    tag_69:\n        /* \"#utility.yul\":1107:1110   */\n      dup3\n        /* \"#utility.yul\":1100:1137   */\n      mstore\n        /* \"#utility.yul\":1025:1143   */\n      pop\n      pop\n      jump\t// out\n        /* \"#utility.yul\":1149:1371   */\n    tag_12:\n        /* \"#utility.yul\":1242:1246   */\n      0x00\n        /* \"#utility.yul\":1280:1282   */\n      0x20\n        /* \"#utility.yul\":1269:1278   */\n      dup3\n        /* \"#utility.yul\":1265:1283   */\n      add\n        /* \"#utility.yul\":1257:1283   */\n      swap1\n      pop\n        /* \"#utility.yul\":1293:1364   */\n      tag_71\n        /* \"#utility.yul\":1361:1362   */\n      0x00\n        /* \"#utility.yul\":1350:1359   */\n      dup4\n        /* \"#utility.yul\":1346:1363   */\n      add\n        /* \"#utility.yul\":1337:1343   */\n      dup5\n        /* \"#utility.yul\":1293:1364   */\n      tag_47\n      jump\t// in\n    tag_71:\n        /* \"#utility.yul\":1149:1371   */\n      swap3\n      swap2\n      pop\n      pop\n      jump\t// out\n        /* \"#utility.yul\":1377:1557   */\n    tag_48:\n        /* \"#utility.yul\":1425:1502   */\n      0x4e487b7100000000000000000000000000000000000000000000000000000000\n        /* \"#utility.yul\":1422:1423   */\n      0x00\n        /* \"#utility.yul\":1415:1503   */\n      mstore\n        /* \"#utility.yul\":1522:1526   */\n      0x11\n        /* \"#utility.yul\":1519:1520   */\n      0x04\n        /* \"#utility.yul\":1512:1527   */\n      mstore\n        /* \"#utility.yul\":1546:1550   */\n      0x24\n        /* \"#utility.yul\":1543:1544   */\n      0x00\n        /* \"#utility.yul\":1536:1551   */\n      revert\n        /* \"#utility.yul\":1563:1796   */\n    tag_19:\n        /* \"#utility.yul\":1602:1605   */\n      0x00\n        /* \"#utility.yul\":1625:1649   */\n      tag_74\n        /* \"#utility.yul\":1643:1648   */\n      dup3\n        /* \"#utility.yul\":1625:1649   */\n      tag_44\n      jump\t// in\n    tag_74:\n        /* \"#utility.yul\":1616:1649   */\n      swap2\n      pop\n        /* \"#utility.yul\":1671:1737   */\n      0xffffffffffffffffffffffffffffffffffffffffffffffffffffffffffffffff\n        /* \"#utility.yul\":1664:1669   */\n      dup3\n        /* \"#utility.yul\":1661:1738   */\n      sub\n        /* \"#utility.yul\":1658:1761   */\n      tag_75\n      jumpi\n        /* \"#utility.yul\":1741:1759   */\n      tag_76\n      tag_48\n      jump\t// in\n    tag_76:\n        /* \"#utility.yul\":1658:1761   */\n    tag_75:\n        /* \"#utility.yul\":1788:1789   */\n      0x01\n        /* \"#utility.yul\":1781:1786   */\n      dup3\n        /* \"#utility.yul\":1777:1790   */\n      add\n        /* \"#utility.yul\":1770:1790   */\n      swap1\n      pop\n        /* \"#utility.yul\":1563:1796   */\n      swap2\n      swap1\n      pop\n      jump\t// out\n        /* \"#utility.yul\":1802:1935   */\n    tag_49:\n        /* \"#utility.yul\":1923:1928   */\n      dup1\n        /* \"#utility.yul\":1918:1921   */\n      dup3\n        /* \"#utility.yul\":1911:1929   */\n      mstore\n        /* \"#utility.yul\":1802:1935   */\n      pop\n      pop\n      jump\t// out\n        /* \"#utility.yul\":1941:2026   */\n    tag_50:\n        /* \"#utility.yul\":1986:1993   */\n      0x00\n        /* \"#utility.yul\":2015:2020   */\n      dup2\n        /* \"#utility.yul\":2004:2020   */\n      swap1\n      pop\n        /* \"#utility.yul\":1941:2026   */\n      swap2\n      swap1\n      pop\n      jump\t// out\n        /* \"#utility.yul\":2032:2092   */\n    tag_51:\n        /* \"#utility.yul\":2060:2063   */\n      0x00\n        /* \"#utility.yul\":2081:2086   */\n      dup2\n        /* \"#utility.yul\":2074:2086   */\n      swap1\n      pop\n        /* \"#utility.yul\":2032:2092   */\n      swap2\n      swap1\n      pop\n      jump\t// out\n        /* \"#utility.yul\":2098:2256   */\n    tag_52:\n        /* \"#utility.yul\":2156:2165   */\n      0x00\n        /* \"#utility.yul\":2189:2250   */\n      tag_81\n        /* \"#utility.yul\":2207:2249   */\n      tag_82\n        /* \"#utility.yul\":2216:2248   */\n      tag_83\n        /* \"#utility.yul\":2242:2247   */\n      dup5\n        /* \"#utility.yul\":2216:2248   */\n      tag_50\n      jump\t// in\n    tag_83:\n        /* \"#utility.yul\":2207:2249   */\n      tag_51\n      jump\t// in\n    tag_82:\n        /* \"#utility.yul\":2189:2250   */\n      tag_44\n      jump\t// in\n    tag_81:\n        /* \"#utility.yul\":2176:2250   */\n      swap1\n      pop\n        /* \"#utility.yul\":2098:2256   */\n      swap2\n      swap1\n      pop\n      jump\t// out\n        /* \"#utility.yul\":2262:2417   */\n    tag_53:\n        /* \"#utility.yul\":2365:2410   */\n      tag_85\n        /* \"#utility.yul\":2404:2409   */\n      dup2\n        /* \"#utility.yul\":2365:2410   */\n      tag_52\n      jump\t// in\n    tag_85:\n        /* \"#utility.yul\":2360:2363   */\n      dup3\n        /* \"#utility.yul\":2353:2411   */\n      mstore\n        /* \"#utility.yul\":2262:2417   */\n      pop\n      pop\n      jump\t// out\n        /* \"#utility.yul\":2423:2847   */\n    tag_21:\n        /* \"#utility.yul\":2586:2590   */\n      0x00\n        /* \"#utility.yul\":2624:2626   */\n      0x40\n        /* \"#utility.yul\":2613:2622   */\n      dup3\n        /* \"#utility.yul\":2609:2627   */\n      add\n        /* \"#utility.yul\":2601:2627   */\n      swap1\n      pop\n        /* \"#utility.yul\":2637:2742   */\n      tag_87\n        /* \"#utility.yul\":2739:2740   */\n      0x00\n        /* \"#utility.yul\":2728:2737   */\n      dup4\n        /* \"#utility.yul\":2724:2741   */\n      add\n        /* \"#utility.yul\":2715:2721   */\n      dup6\n        /* \"#utility.yul\":2637:2742   */\n      tag_49\n      jump\t// in\n    tag_87:\n        /* \"#utility.yul\":2752:2840   */\n      tag_88\n        /* \"#utility.yul\":2836:2838   */\n      0x20\n        /* \"#utility.yul\":2825:2834   */\n      dup4\n        /* \"#utility.yul\":2821:2839   */\n      add\n        /* \"#utility.yul\":2812:2818   */\n      dup5\n        /* \"#utility.yul\":2752:2840   */\n      tag_53\n      jump\t// in\n    tag_88:\n        /* \"#utility.yul\":2423:2847   */\n      swap4\n      swap3\n      pop\n      pop\n      pop\n      jump\t// out\n        /* \"#utility.yul\":2853:3033   */\n    tag_27:\n        /* \"#utility.yul\":2901:2978   */\n      0x4e487b7100000000000000000000000000000000000000000000000000000000\n        /* \"#utility.yul\":2898:2899   */\n      0x00\n        /* \"#utility.yul\":2891:2979   */\n      mstore\n        /* \"#utility.yul\":2998:3002   */\n      0x01\n        /* \"#utility.yul\":2995:2996   */\n      0x04\n        /* \"#utility.yul\":2988:3003   */\n      mstore\n        /* \"#utility.yul\":3022:3026   */\n      0x24\n        /* \"#utility.yul\":3019:3020   */\n      0x00\n        /* \"#utility.yul\":3012:3027   */\n      revert\n        /* \"#utility.yul\":3039:3219   */\n    tag_30:\n        /* \"#utility.yul\":3087:3164   */\n      0x4e487b7100000000000000000000000000000000000000000000000000000000\n        /* \"#utility.yul\":3084:3085   */\n      0x00\n        /* \"#utility.yul\":3077:3165   */\n      mstore\n        /* \"#utility.yul\":3184:3188   */\n      0x32\n        /* \"#utility.yul\":3181:3182   */\n      0x04\n        /* \"#utility.yul\":3174:3189   */\n      mstore\n        /* \"#utility.yul\":3208:3212   */\n      0x24\n        /* \"#utility.yul\":3205:3206   */\n      0x00\n        /* \"#utility.yul\":3198:3213   */\n      revert\n\n    auxdata: 0xa2646970667358221220c3663040b4254a45dbe0bef7cd8c0ae19383ecee351715c0bf087a530ba1969364736f6c63430008120033\n}\n",
				"bytecode": {
					"linkReferences": {
						"contracts/HOW_library_creation_use.sol": {
							"Array": [
								{
									"length": 20,
									"start": 226
								}
							]
						}
					},
					"object": "608060405234801561001057600080fd5b506103d8806100206000396000f3fe608060405234801561001057600080fd5b50600436106100365760003560e01c806325afcbfb1461003b57806371e5ee5f14610045575b600080fd5b610043610075565b005b61005f600480360381019061005a9190610201565b6101a2565b60405161006c919061023d565b60405180910390f35b60005b60038110156100bd57600081908060018154018082558091505060019003906000526020600020016000909190919091505580806100b590610287565b915050610078565b50600073__$8534a0d1864a1a48a6bfda563468ba01ba$__63677ca2d8909160016040518363ffffffff1660e01b81526004016100fb92919061031b565b60006040518083038186803b15801561011357600080fd5b505af4158015610127573d6000803e3d6000fd5b5050505060026000805490501461014157610140610344565b5b60008060008154811061015757610156610373565b5b9060005260206000200154146101705761016f610344565b5b6002600060018154811061018757610186610373565b5b9060005260206000200154146101a05761019f610344565b5b565b600081815481106101b257600080fd5b906000526020600020016000915090505481565b600080fd5b6000819050919050565b6101de816101cb565b81146101e957600080fd5b50565b6000813590506101fb816101d5565b92915050565b600060208284031215610217576102166101c6565b5b6000610225848285016101ec565b91505092915050565b610237816101cb565b82525050565b6000602082019050610252600083018461022e565b92915050565b7f4e487b7100000000000000000000000000000000000000000000000000000000600052601160045260246000fd5b6000610292826101cb565b91507fffffffffffffffffffffffffffffffffffffffffffffffffffffffffffffffff82036102c4576102c3610258565b5b600182019050919050565b8082525050565b6000819050919050565b6000819050919050565b60006103056103006102fb846102d6565b6102e0565b6101cb565b9050919050565b610315816102ea565b82525050565b600060408201905061033060008301856102cf565b61033d602083018461030c565b9392505050565b7f4e487b7100000000000000000000000000000000000000000000000000000000600052600160045260246000fd5b7f4e487b7100000000000000000000000000000000000000000000000000000000600052603260045260246000fdfea2646970667358221220c3663040b4254a45dbe0bef7cd8c0ae19383ecee351715c0bf087a530ba1969364736f6c63430008120033",
					"opcodes": "PUSH1 0x80 PUSH1 0x40 MSTORE CALLVALUE DUP1 ISZERO PUSH2 0x10 JUMPI PUSH1 0x0 DUP1 REVERT JUMPDEST POP PUSH2 0x3D8 DUP1 PUSH2 0x20 PUSH1 0x0 CODECOPY PUSH1 0x0 RETURN INVALID PUSH1 0x80 PUSH1 0x40 MSTORE CALLVALUE DUP1 ISZERO PUSH2 0x10 JUMPI PUSH1 0x0 DUP1 REVERT JUMPDEST POP PUSH1 0x4 CALLDATASIZE LT PUSH2 0x36 JUMPI PUSH1 0x0 CALLDATALOAD PUSH1 0xE0 SHR DUP1 PUSH4 0x25AFCBFB EQ PUSH2 0x3B JUMPI DUP1 PUSH4 0x71E5EE5F EQ PUSH2 0x45 JUMPI JUMPDEST PUSH1 0x0 DUP1 REVERT JUMPDEST PUSH2 0x43 PUSH2 0x75 JUMP JUMPDEST STOP JUMPDEST PUSH2 0x5F PUSH1 0x4 DUP1 CALLDATASIZE SUB DUP2 ADD SWAP1 PUSH2 0x5A SWAP2 SWAP1 PUSH2 0x201 JUMP JUMPDEST PUSH2 0x1A2 JUMP JUMPDEST PUSH1 0x40 MLOAD PUSH2 0x6C SWAP2 SWAP1 PUSH2 0x23D JUMP JUMPDEST PUSH1 0x40 MLOAD DUP1 SWAP2 SUB SWAP1 RETURN JUMPDEST PUSH1 0x0 JUMPDEST PUSH1 0x3 DUP2 LT ISZERO PUSH2 0xBD JUMPI PUSH1 0x0 DUP2 SWAP1 DUP1 PUSH1 0x1 DUP2 SLOAD ADD DUP1 DUP3 SSTORE DUP1 SWAP2 POP POP PUSH1 0x1 SWAP1 SUB SWAP1 PUSH1 0x0 MSTORE PUSH1 0x20 PUSH1 0x0 KECCAK256 ADD PUSH1 0x0 SWAP1 SWAP2 SWAP1 SWAP2 SWAP1 SWAP2 POP SSTORE DUP1 DUP1 PUSH2 0xB5 SWAP1 PUSH2 0x287 JUMP JUMPDEST SWAP2 POP POP PUSH2 0x78 JUMP JUMPDEST POP PUSH1 0x0 PUSH20 0x0 PUSH4 0x677CA2D8 SWAP1 SWAP2 PUSH1 0x1 PUSH1 0x40 MLOAD DUP4 PUSH4 0xFFFFFFFF AND PUSH1 0xE0 SHL DUP2 MSTORE PUSH1 0x4 ADD PUSH2 0xFB SWAP3 SWAP2 SWAP1 PUSH2 0x31B JUMP JUMPDEST PUSH1 0x0 PUSH1 0x40 MLOAD DUP1 DUP4 SUB DUP2 DUP7 DUP1 EXTCODESIZE ISZERO DUP1 ISZERO PUSH2 0x113 JUMPI PUSH1 0x0 DUP1 REVERT JUMPDEST POP GAS DELEGATECALL ISZERO DUP1 ISZERO PUSH2 0x127 JUMPI RETURNDATASIZE PUSH1 0x0 DUP1 RETURNDATACOPY RETURNDATASIZE PUSH1 0x0 REVERT JUMPDEST POP POP POP POP PUSH1 0x2 PUSH1 0x0 DUP1 SLOAD SWAP1 POP EQ PUSH2 0x141 JUMPI PUSH2 0x140 PUSH2 0x344 JUMP JUMPDEST JUMPDEST PUSH1 0x0 DUP1 PUSH1 0x0 DUP2 SLOAD DUP2 LT PUSH2 0x157 JUMPI PUSH2 0x156 PUSH2 0x373 JUMP JUMPDEST JUMPDEST SWAP1 PUSH1 0x0 MSTORE PUSH1 0x20 PUSH1 0x0 KECCAK256 ADD SLOAD EQ PUSH2 0x170 JUMPI PUSH2 0x16F PUSH2 0x344 JUMP JUMPDEST JUMPDEST PUSH1 0x2 PUSH1 0x0 PUSH1 0x1 DUP2 SLOAD DUP2 LT PUSH2 0x187 JUMPI PUSH2 0x186 PUSH2 0x373 JUMP JUMPDEST JUMPDEST SWAP1 PUSH1 0x0 MSTORE PUSH1 0x20 PUSH1 0x0 KECCAK256 ADD SLOAD EQ PUSH2 0x1A0 JUMPI PUSH2 0x19F PUSH2 0x344 JUMP JUMPDEST JUMPDEST JUMP JUMPDEST PUSH1 0x0 DUP2 DUP2 SLOAD DUP2 LT PUSH2 0x1B2 JUMPI PUSH1 0x0 DUP1 REVERT JUMPDEST SWAP1 PUSH1 0x0 MSTORE PUSH1 0x20 PUSH1 0x0 KECCAK256 ADD PUSH1 0x0 SWAP2 POP SWAP1 POP SLOAD DUP2 JUMP JUMPDEST PUSH1 0x0 DUP1 REVERT JUMPDEST PUSH1 0x0 DUP2 SWAP1 POP SWAP2 SWAP1 POP JUMP JUMPDEST PUSH2 0x1DE DUP2 PUSH2 0x1CB JUMP JUMPDEST DUP2 EQ PUSH2 0x1E9 JUMPI PUSH1 0x0 DUP1 REVERT JUMPDEST POP JUMP JUMPDEST PUSH1 0x0 DUP2 CALLDATALOAD SWAP1 POP PUSH2 0x1FB DUP2 PUSH2 0x1D5 JUMP JUMPDEST SWAP3 SWAP2 POP POP JUMP JUMPDEST PUSH1 0x0 PUSH1 0x20 DUP3 DUP5 SUB SLT ISZERO PUSH2 0x217 JUMPI PUSH2 0x216 PUSH2 0x1C6 JUMP JUMPDEST JUMPDEST PUSH1 0x0 PUSH2 0x225 DUP5 DUP3 DUP6 ADD PUSH2 0x1EC JUMP JUMPDEST SWAP2 POP POP SWAP3 SWAP2 POP POP JUMP JUMPDEST PUSH2 0x237 DUP2 PUSH2 0x1CB JUMP JUMPDEST DUP3 MSTORE POP POP JUMP JUMPDEST PUSH1 0x0 PUSH1 0x20 DUP3 ADD SWAP1 POP PUSH2 0x252 PUSH1 0x0 DUP4 ADD DUP5 PUSH2 0x22E JUMP JUMPDEST SWAP3 SWAP2 POP POP JUMP JUMPDEST PUSH32 0x4E487B7100000000000000000000000000000000000000000000000000000000 PUSH1 0x0 MSTORE PUSH1 0x11 PUSH1 0x4 MSTORE PUSH1 0x24 PUSH1 0x0 REVERT JUMPDEST PUSH1 0x0 PUSH2 0x292 DUP3 PUSH2 0x1CB JUMP JUMPDEST SWAP2 POP PUSH32 0xFFFFFFFFFFFFFFFFFFFFFFFFFFFFFFFFFFFFFFFFFFFFFFFFFFFFFFFFFFFFFFFF DUP3 SUB PUSH2 0x2C4 JUMPI PUSH2 0x2C3 PUSH2 0x258 JUMP JUMPDEST JUMPDEST PUSH1 0x1 DUP3 ADD SWAP1 POP SWAP2 SWAP1 POP JUMP JUMPDEST DUP1 DUP3 MSTORE POP POP JUMP JUMPDEST PUSH1 0x0 DUP2 SWAP1 POP SWAP2 SWAP1 POP JUMP JUMPDEST PUSH1 0x0 DUP2 SWAP1 POP SWAP2 SWAP1 POP JUMP JUMPDEST PUSH1 0x0 PUSH2 0x305 PUSH2 0x300 PUSH2 0x2FB DUP5 PUSH2 0x2D6 JUMP JUMPDEST PUSH2 0x2E0 JUMP JUMPDEST PUSH2 0x1CB JUMP JUMPDEST SWAP1 POP SWAP2 SWAP1 POP JUMP JUMPDEST PUSH2 0x315 DUP2 PUSH2 0x2EA JUMP JUMPDEST DUP3 MSTORE POP POP JUMP JUMPDEST PUSH1 0x0 PUSH1 0x40 DUP3 ADD SWAP1 POP PUSH2 0x330 PUSH1 0x0 DUP4 ADD DUP6 PUSH2 0x2CF JUMP JUMPDEST PUSH2 0x33D PUSH1 0x20 DUP4 ADD DUP5 PUSH2 0x30C JUMP JUMPDEST SWAP4 SWAP3 POP POP POP JUMP JUMPDEST PUSH32 0x4E487B7100000000000000000000000000000000000000000000000000000000 PUSH1 0x0 MSTORE PUSH1 0x1 PUSH1 0x4 MSTORE PUSH1 0x24 PUSH1 0x0 REVERT JUMPDEST PUSH32 0x4E487B7100000000000000000000000000000000000000000000000000000000 PUSH1 0x0 MSTORE PUSH1 0x32 PUSH1 0x4 MSTORE PUSH1 0x24 PUSH1 0x0 REVERT INVALID LOG2 PUSH5 0x6970667358 0x22 SLT KECCAK256 0xC3 PUSH7 0x3040B4254A45DB 0xE0 0xBE 0xF7 0xCD DUP13 EXP 0xE1 SWAP4 DUP4 0xEC 0xEE CALLDATALOAD OR ISZERO 0xC0 0xBF ADDMOD PUSH27 0x530BA1969364736F6C634300081200330000000000000000000000 "
				},
				"gasEstimates": {
					"creation": {
						"codeDepositCost": "196800",
						"executionCost": "238",
						"totalCost": "197038"
					},
					"external": {
						"arr(uint256)": "infinite",
						"testArrayRemove()": "infinite"
					}
				},
				"methodIdentifiers": {
					"arr(uint256)": "71e5ee5f",
					"testArrayRemove()": "25afcbfb"
				}
			},
			"storageLayout": {
				"storage": [
					{
						"astId": 111,
						"contract": "contracts/HOW_library_creation_use.sol:TestArray",
						"label": "arr",
						"offset": 0,
						"slot": "0",
						"type": "t_array(t_uint256)dyn_storage"
					}
				],
				"types": {
					"t_array(t_uint256)dyn_storage": {
						"base": "t_uint256",
						"encoding": "dynamic_array",
						"label": "uint256[]",
						"numberOfBytes": "32"
					},
					"t_uint256": {
						"encoding": "inplace",
						"label": "uint256",
						"numberOfBytes": "32"
					}
				}
			},
			"userdoc": {
				"kind": "user",
				"methods": {},
				"version": 1
			}
		}
	}
}