{
	"data": {
		"bytecode": {
			"linkReferences": {},
			"object": "608060405234801561001057600080fd5b50610443806100206000396000f3fe608060405234801561001057600080fd5b50600436106100365760003560e01c80637c45017f1461003b578063e809e57c1461006b575b600080fd5b610055600480360381019061005091906101c0565b61009b565b604051610062919061027d565b60405180910390f35b610085600480360381019061008091906101c0565b610162565b60405161009291906102ba565b60405180910390f35b606060008210156100e1576040517f08c379a00000000000000000000000000000000000000000000000000000000081526004016100d890610321565b60405180910390fd5b60ff821115610125576040517f08c379a000000000000000000000000000000000000000000000000000000000815260040161011c9061038d565b60405180910390fd5b6040518060400160405280601181526020017f4e756d626572206973204e4f524d414c2e0000000000000000000000000000008152509050919050565b60008060028361017291906103dc565b0361017c57600080fd5b60019050919050565b600080fd5b6000819050919050565b61019d8161018a565b81146101a857600080fd5b50565b6000813590506101ba81610194565b92915050565b6000602082840312156101d6576101d5610185565b5b60006101e4848285016101ab565b91505092915050565b600081519050919050565b600082825260208201905092915050565b60005b8381101561022757808201518184015260208101905061020c565b60008484015250505050565b6000601f19601f8301169050919050565b600061024f826101ed565b61025981856101f8565b9350610269818560208601610209565b61027281610233565b840191505092915050565b600060208201905081810360008301526102978184610244565b905092915050565b60008115159050919050565b6102b48161029f565b82525050565b60006020820190506102cf60008301846102ab565b92915050565b7f496e76616c6964204e756d6265722042524f2100000000000000000000000000600082015250565b600061030b6013836101f8565b9150610316826102d5565b602082019050919050565b6000602082019050818103600083015261033a816102fe565b9050919050565b7f416761696e2c20496e76616c6964204e756d6265720000000000000000000000600082015250565b60006103776015836101f8565b915061038282610341565b602082019050919050565b600060208201905081810360008301526103a68161036a565b9050919050565b7f4e487b7100000000000000000000000000000000000000000000000000000000600052601260045260246000fd5b60006103e78261018a565b91506103f28361018a565b925082610402576104016103ad565b5b82820690509291505056fea26469706673582212201fd2eecab4ece2dfb85f7873ba4c3ab310fbd69a5eb0ee9935b2616fa6a742db64736f6c63430008120033",
			"opcodes": "PUSH1 0x80 PUSH1 0x40 MSTORE CALLVALUE DUP1 ISZERO PUSH2 0x10 JUMPI PUSH1 0x0 DUP1 REVERT JUMPDEST POP PUSH2 0x443 DUP1 PUSH2 0x20 PUSH1 0x0 CODECOPY PUSH1 0x0 RETURN INVALID PUSH1 0x80 PUSH1 0x40 MSTORE CALLVALUE DUP1 ISZERO PUSH2 0x10 JUMPI PUSH1 0x0 DUP1 REVERT JUMPDEST POP PUSH1 0x4 CALLDATASIZE LT PUSH2 0x36 JUMPI PUSH1 0x0 CALLDATALOAD PUSH1 0xE0 SHR DUP1 PUSH4 0x7C45017F EQ PUSH2 0x3B JUMPI DUP1 PUSH4 0xE809E57C EQ PUSH2 0x6B JUMPI JUMPDEST PUSH1 0x0 DUP1 REVERT JUMPDEST PUSH2 0x55 PUSH1 0x4 DUP1 CALLDATASIZE SUB DUP2 ADD SWAP1 PUSH2 0x50 SWAP2 SWAP1 PUSH2 0x1C0 JUMP JUMPDEST PUSH2 0x9B JUMP JUMPDEST PUSH1 0x40 MLOAD PUSH2 0x62 SWAP2 SWAP1 PUSH2 0x27D JUMP JUMPDEST PUSH1 0x40 MLOAD DUP1 SWAP2 SUB SWAP1 RETURN JUMPDEST PUSH2 0x85 PUSH1 0x4 DUP1 CALLDATASIZE SUB DUP2 ADD SWAP1 PUSH2 0x80 SWAP2 SWAP1 PUSH2 0x1C0 JUMP JUMPDEST PUSH2 0x162 JUMP JUMPDEST PUSH1 0x40 MLOAD PUSH2 0x92 SWAP2 SWAP1 PUSH2 0x2BA JUMP JUMPDEST PUSH1 0x40 MLOAD DUP1 SWAP2 SUB SWAP1 RETURN JUMPDEST PUSH1 0x60 PUSH1 0x0 DUP3 LT ISZERO PUSH2 0xE1 JUMPI PUSH1 0x40 MLOAD PUSH32 0x8C379A000000000000000000000000000000000000000000000000000000000 DUP2 MSTORE PUSH1 0x4 ADD PUSH2 0xD8 SWAP1 PUSH2 0x321 JUMP JUMPDEST PUSH1 0x40 MLOAD DUP1 SWAP2 SUB SWAP1 REVERT JUMPDEST PUSH1 0xFF DUP3 GT ISZERO PUSH2 0x125 JUMPI PUSH1 0x40 MLOAD PUSH32 0x8C379A000000000000000000000000000000000000000000000000000000000 DUP2 MSTORE PUSH1 0x4 ADD PUSH2 0x11C SWAP1 PUSH2 0x38D JUMP JUMPDEST PUSH1 0x40 MLOAD DUP1 SWAP2 SUB SWAP1 REVERT JUMPDEST PUSH1 0x40 MLOAD DUP1 PUSH1 0x40 ADD PUSH1 0x40 MSTORE DUP1 PUSH1 0x11 DUP2 MSTORE PUSH1 0x20 ADD PUSH32 0x4E756D626572206973204E4F524D414C2E000000000000000000000000000000 DUP2 MSTORE POP SWAP1 POP SWAP2 SWAP1 POP JUMP JUMPDEST PUSH1 0x0 DUP1 PUSH1 0x2 DUP4 PUSH2 0x172 SWAP2 SWAP1 PUSH2 0x3DC JUMP JUMPDEST SUB PUSH2 0x17C JUMPI PUSH1 0x0 DUP1 REVERT JUMPDEST PUSH1 0x1 SWAP1 POP SWAP2 SWAP1 POP JUMP JUMPDEST PUSH1 0x0 DUP1 REVERT JUMPDEST PUSH1 0x0 DUP2 SWAP1 POP SWAP2 SWAP1 POP JUMP JUMPDEST PUSH2 0x19D DUP2 PUSH2 0x18A JUMP JUMPDEST DUP2 EQ PUSH2 0x1A8 JUMPI PUSH1 0x0 DUP1 REVERT JUMPDEST POP JUMP JUMPDEST PUSH1 0x0 DUP2 CALLDATALOAD SWAP1 POP PUSH2 0x1BA DUP2 PUSH2 0x194 JUMP JUMPDEST SWAP3 SWAP2 POP POP JUMP JUMPDEST PUSH1 0x0 PUSH1 0x20 DUP3 DUP5 SUB SLT ISZERO PUSH2 0x1D6 JUMPI PUSH2 0x1D5 PUSH2 0x185 JUMP JUMPDEST JUMPDEST PUSH1 0x0 PUSH2 0x1E4 DUP5 DUP3 DUP6 ADD PUSH2 0x1AB JUMP JUMPDEST SWAP2 POP POP SWAP3 SWAP2 POP POP JUMP JUMPDEST PUSH1 0x0 DUP2 MLOAD SWAP1 POP SWAP2 SWAP1 POP JUMP JUMPDEST PUSH1 0x0 DUP3 DUP3 MSTORE PUSH1 0x20 DUP3 ADD SWAP1 POP SWAP3 SWAP2 POP POP JUMP JUMPDEST PUSH1 0x0 JUMPDEST DUP4 DUP2 LT ISZERO PUSH2 0x227 JUMPI DUP1 DUP3 ADD MLOAD DUP2 DUP5 ADD MSTORE PUSH1 0x20 DUP2 ADD SWAP1 POP PUSH2 0x20C JUMP JUMPDEST PUSH1 0x0 DUP5 DUP5 ADD MSTORE POP POP POP POP JUMP JUMPDEST PUSH1 0x0 PUSH1 0x1F NOT PUSH1 0x1F DUP4 ADD AND SWAP1 POP SWAP2 SWAP1 POP JUMP JUMPDEST PUSH1 0x0 PUSH2 0x24F DUP3 PUSH2 0x1ED JUMP JUMPDEST PUSH2 0x259 DUP2 DUP6 PUSH2 0x1F8 JUMP JUMPDEST SWAP4 POP PUSH2 0x269 DUP2 DUP6 PUSH1 0x20 DUP7 ADD PUSH2 0x209 JUMP JUMPDEST PUSH2 0x272 DUP2 PUSH2 0x233 JUMP JUMPDEST DUP5 ADD SWAP2 POP POP SWAP3 SWAP2 POP POP JUMP JUMPDEST PUSH1 0x0 PUSH1 0x20 DUP3 ADD SWAP1 POP DUP2 DUP2 SUB PUSH1 0x0 DUP4 ADD MSTORE PUSH2 0x297 DUP2 DUP5 PUSH2 0x244 JUMP JUMPDEST SWAP1 POP SWAP3 SWAP2 POP POP JUMP JUMPDEST PUSH1 0x0 DUP2 ISZERO ISZERO SWAP1 POP SWAP2 SWAP1 POP JUMP JUMPDEST PUSH2 0x2B4 DUP2 PUSH2 0x29F JUMP JUMPDEST DUP3 MSTORE POP POP JUMP JUMPDEST PUSH1 0x0 PUSH1 0x20 DUP3 ADD SWAP1 POP PUSH2 0x2CF PUSH1 0x0 DUP4 ADD DUP5 PUSH2 0x2AB JUMP JUMPDEST SWAP3 SWAP2 POP POP JUMP JUMPDEST PUSH32 0x496E76616C6964204E756D6265722042524F2100000000000000000000000000 PUSH1 0x0 DUP3 ADD MSTORE POP JUMP JUMPDEST PUSH1 0x0 PUSH2 0x30B PUSH1 0x13 DUP4 PUSH2 0x1F8 JUMP JUMPDEST SWAP2 POP PUSH2 0x316 DUP3 PUSH2 0x2D5 JUMP JUMPDEST PUSH1 0x20 DUP3 ADD SWAP1 POP SWAP2 SWAP1 POP JUMP JUMPDEST PUSH1 0x0 PUSH1 0x20 DUP3 ADD SWAP1 POP DUP2 DUP2 SUB PUSH1 0x0 DUP4 ADD MSTORE PUSH2 0x33A DUP2 PUSH2 0x2FE JUMP JUMPDEST SWAP1 POP SWAP2 SWAP1 POP JUMP JUMPDEST PUSH32 0x416761696E2C20496E76616C6964204E756D6265720000000000000000000000 PUSH1 0x0 DUP3 ADD MSTORE POP JUMP JUMPDEST PUSH1 0x0 PUSH2 0x377 PUSH1 0x15 DUP4 PUSH2 0x1F8 JUMP JUMPDEST SWAP2 POP PUSH2 0x382 DUP3 PUSH2 0x341 JUMP JUMPDEST PUSH1 0x20 DUP3 ADD SWAP1 POP SWAP2 SWAP1 POP JUMP JUMPDEST PUSH1 0x0 PUSH1 0x20 DUP3 ADD SWAP1 POP DUP2 DUP2 SUB PUSH1 0x0 DUP4 ADD MSTORE PUSH2 0x3A6 DUP2 PUSH2 0x36A JUMP JUMPDEST SWAP1 POP SWAP2 SWAP1 POP JUMP JUMPDEST PUSH32 0x4E487B7100000000000000000000000000000000000000000000000000000000 PUSH1 0x0 MSTORE PUSH1 0x12 PUSH1 0x4 MSTORE PUSH1 0x24 PUSH1 0x0 REVERT JUMPDEST PUSH1 0x0 PUSH2 0x3E7 DUP3 PUSH2 0x18A JUMP JUMPDEST SWAP2 POP PUSH2 0x3F2 DUP4 PUSH2 0x18A JUMP JUMPDEST SWAP3 POP DUP3 PUSH2 0x402 JUMPI PUSH2 0x401 PUSH2 0x3AD JUMP JUMPDEST JUMPDEST DUP3 DUP3 MOD SWAP1 POP SWAP3 SWAP2 POP POP JUMP INVALID LOG2 PUSH5 0x6970667358 0x22 SLT KECCAK256 0x1F 0xD2 0xEE 0xCA 0xB4 0xEC 0xE2 0xDF 0xB8 0x5F PUSH25 0x73BA4C3AB310FBD69A5EB0EE9935B2616FA6A742DB64736F6C PUSH4 0x43000812 STOP CALLER "
		},
		"gasEstimates": {
			"creation": {
				"codeDepositCost": "218200",
				"executionCost": "263",
				"totalCost": "218463"
			},
			"external": {
				"checkODD(uint256)": "infinite",
				"checkerNormal(uint256)": "infinite"
			}
		},
		"methodIdentifiers": {
			"checkODD(uint256)": "e809e57c",
			"checkerNormal(uint256)": "7c45017f"
		}
	},
	"abi": [
		{
			"inputs": [
				{
					"internalType": "uint256",
					"name": "_input",
					"type": "uint256"
				}
			],
			"name": "checkODD",
			"outputs": [
				{
					"internalType": "bool",
					"name": "",
					"type": "bool"
				}
			],
			"stateMutability": "view",
			"type": "function"
		},
		{
			"inputs": [
				{
					"internalType": "uint256",
					"name": "_input",
					"type": "uint256"
				}
			],
			"name": "checkerNormal",
			"outputs": [
				{
					"internalType": "string",
					"name": "",
					"type": "string"
				}
			],
			"stateMutability": "view",
			"type": "function"
		}
	]
}