{
	"data": {
		"bytecode": {
			"linkReferences": {},
			"object": "6080604052623a593360005561303960015534801561001d57600080fd5b506101dc8061002d6000396000f3fe608060405234801561001057600080fd5b50600436106100365760003560e01c80634717f97c1461003b578063ce3e39c01461005a575b600080fd5b610043610079565b6040516100519291906100d8565b60405180910390f35b61006261008a565b6040516100709291906100d8565b60405180910390f35b600080600054600154915091509091565b6000806000600590506000603290506001546001546100a99190610130565b935080826100b79190610172565b925050509091565b6000819050919050565b6100d2816100bf565b82525050565b60006040820190506100ed60008301856100c9565b6100fa60208301846100c9565b9392505050565b7f4e487b7100000000000000000000000000000000000000000000000000000000600052601160045260246000fd5b600061013b826100bf565b9150610146836100bf565b9250828202610154816100bf565b9150828204841483151761016b5761016a610101565b5b5092915050565b600061017d826100bf565b9150610188836100bf565b92508282019050808211156101a05761019f610101565b5b9291505056fea2646970667358221220f73bb3c0b72c58650cdcd3e793b95b5e84c3e3c7cb258f92ae50ebfb07a9e97464736f6c63430008120033",
			"opcodes": "PUSH1 0x80 PUSH1 0x40 MSTORE PUSH3 0x3A5933 PUSH1 0x0 SSTORE PUSH2 0x3039 PUSH1 0x1 SSTORE CALLVALUE DUP1 ISZERO PUSH2 0x1D JUMPI PUSH1 0x0 DUP1 REVERT JUMPDEST POP PUSH2 0x1DC DUP1 PUSH2 0x2D PUSH1 0x0 CODECOPY PUSH1 0x0 RETURN INVALID PUSH1 0x80 PUSH1 0x40 MSTORE CALLVALUE DUP1 ISZERO PUSH2 0x10 JUMPI PUSH1 0x0 DUP1 REVERT JUMPDEST POP PUSH1 0x4 CALLDATASIZE LT PUSH2 0x36 JUMPI PUSH1 0x0 CALLDATALOAD PUSH1 0xE0 SHR DUP1 PUSH4 0x4717F97C EQ PUSH2 0x3B JUMPI DUP1 PUSH4 0xCE3E39C0 EQ PUSH2 0x5A JUMPI JUMPDEST PUSH1 0x0 DUP1 REVERT JUMPDEST PUSH2 0x43 PUSH2 0x79 JUMP JUMPDEST PUSH1 0x40 MLOAD PUSH2 0x51 SWAP3 SWAP2 SWAP1 PUSH2 0xD8 JUMP JUMPDEST PUSH1 0x40 MLOAD DUP1 SWAP2 SUB SWAP1 RETURN JUMPDEST PUSH2 0x62 PUSH2 0x8A JUMP JUMPDEST PUSH1 0x40 MLOAD PUSH2 0x70 SWAP3 SWAP2 SWAP1 PUSH2 0xD8 JUMP JUMPDEST PUSH1 0x40 MLOAD DUP1 SWAP2 SUB SWAP1 RETURN JUMPDEST PUSH1 0x0 DUP1 PUSH1 0x0 SLOAD PUSH1 0x1 SLOAD SWAP2 POP SWAP2 POP SWAP1 SWAP2 JUMP JUMPDEST PUSH1 0x0 DUP1 PUSH1 0x0 PUSH1 0x5 SWAP1 POP PUSH1 0x0 PUSH1 0x32 SWAP1 POP PUSH1 0x1 SLOAD PUSH1 0x1 SLOAD PUSH2 0xA9 SWAP2 SWAP1 PUSH2 0x130 JUMP JUMPDEST SWAP4 POP DUP1 DUP3 PUSH2 0xB7 SWAP2 SWAP1 PUSH2 0x172 JUMP JUMPDEST SWAP3 POP POP POP SWAP1 SWAP2 JUMP JUMPDEST PUSH1 0x0 DUP2 SWAP1 POP SWAP2 SWAP1 POP JUMP JUMPDEST PUSH2 0xD2 DUP2 PUSH2 0xBF JUMP JUMPDEST DUP3 MSTORE POP POP JUMP JUMPDEST PUSH1 0x0 PUSH1 0x40 DUP3 ADD SWAP1 POP PUSH2 0xED PUSH1 0x0 DUP4 ADD DUP6 PUSH2 0xC9 JUMP JUMPDEST PUSH2 0xFA PUSH1 0x20 DUP4 ADD DUP5 PUSH2 0xC9 JUMP JUMPDEST SWAP4 SWAP3 POP POP POP JUMP JUMPDEST PUSH32 0x4E487B7100000000000000000000000000000000000000000000000000000000 PUSH1 0x0 MSTORE PUSH1 0x11 PUSH1 0x4 MSTORE PUSH1 0x24 PUSH1 0x0 REVERT JUMPDEST PUSH1 0x0 PUSH2 0x13B DUP3 PUSH2 0xBF JUMP JUMPDEST SWAP2 POP PUSH2 0x146 DUP4 PUSH2 0xBF JUMP JUMPDEST SWAP3 POP DUP3 DUP3 MUL PUSH2 0x154 DUP2 PUSH2 0xBF JUMP JUMPDEST SWAP2 POP DUP3 DUP3 DIV DUP5 EQ DUP4 ISZERO OR PUSH2 0x16B JUMPI PUSH2 0x16A PUSH2 0x101 JUMP JUMPDEST JUMPDEST POP SWAP3 SWAP2 POP POP JUMP JUMPDEST PUSH1 0x0 PUSH2 0x17D DUP3 PUSH2 0xBF JUMP JUMPDEST SWAP2 POP PUSH2 0x188 DUP4 PUSH2 0xBF JUMP JUMPDEST SWAP3 POP DUP3 DUP3 ADD SWAP1 POP DUP1 DUP3 GT ISZERO PUSH2 0x1A0 JUMPI PUSH2 0x19F PUSH2 0x101 JUMP JUMPDEST JUMPDEST SWAP3 SWAP2 POP POP JUMP INVALID LOG2 PUSH5 0x6970667358 0x22 SLT KECCAK256 0xF7 EXTCODESIZE 0xB3 0xC0 0xB7 0x2C PC PUSH6 0xCDCD3E793B9 JUMPDEST 0x5E DUP5 0xC3 0xE3 0xC7 0xCB 0x25 DUP16 SWAP3 0xAE POP 0xEB 0xFB SMOD 0xA9 0xE9 PUSH21 0x64736F6C6343000812003300000000000000000000 "
		},
		"gasEstimates": {
			"creation": {
				"codeDepositCost": "95200",
				"executionCost": "44353",
				"totalCost": "139553"
			},
			"external": {
				"calculator()": "infinite",
				"getResults()": "infinite"
			}
		},
		"methodIdentifiers": {
			"calculator()": "ce3e39c0",
			"getResults()": "4717f97c"
		}
	},
	"abi": [
		{
			"inputs": [],
			"name": "calculator",
			"outputs": [
				{
					"internalType": "uint256",
					"name": "stateSum",
					"type": "uint256"
				},
				{
					"internalType": "uint256",
					"name": "localSum",
					"type": "uint256"
				}
			],
			"stateMutability": "view",
			"type": "function"
		},
		{
			"inputs": [],
			"name": "getResults",
			"outputs": [
				{
					"internalType": "uint256",
					"name": "",
					"type": "uint256"
				},
				{
					"internalType": "uint256",
					"name": "",
					"type": "uint256"
				}
			],
			"stateMutability": "view",
			"type": "function"
		}
	]
}